:020000040800F2
:10000000B8040020D5000008810C00087F0C00080F
:1000100000000000000000000000000000000000E0
:10002000000000000000000000000000CB0C0008F1
:100030005901000800000000C90C0008CD0C0008A0
:10004000E9000008E9000008E9000008E9000008EC
:10005000E9000008E9000008E9000008E9000008DC
:10006000E9000008E9000008E9000008E9000008CC
:10007000E9000008E900000800000000E9000008AD
:1000800000000000E900000800000000000000007F
:10009000E900000800000000E9000008E90000088D
:1000A000E9000008E9000008E9000008E90000088C
:1000B000E9000008E9000008E9000008E90000087C
:1000C0000348854600F036F800480047351100081F
:1000D000B80400200548804705480047FEE7FEE7D2
:1000E000FEE7FEE7FEE7FEE7FEE70000390D000849
:1000F000C100000830B50B46014600202022012433
:1001000009E00D46D5409D4205D31D469540491B4B
:100110002546954040191546521E002DF1DC30BD94
:1001200003460A780270401C491C002AF9D118467F
:1001300070470000064C0125064E05E0E36807CC39
:100140002B430C3C98471034B442F7D3FFF7BCFF65
:10015000BC110008DC11000870470000F8B500224F
:10016000012425460B6895402B40AB426FD14E6869
:10017000022E01D0122E14D1D608B60036180096E1
:10018000366A5707B446FE0E0F27B646B740664696
:10019000BE43B4460F697646B74066463743009E75
:1001A00037624E68012E05D0022E03D0112E01D0E9
:1001B000122E16D187680326BC465700BE46BE40A5
:1001C0006746B743BC46CE687746BE4067463E4367
:1001D00086604668AE430D79ED06ED0F95403543D8
:1001E0004560076856000325B540AC46AF430D791E
:1001F000AD07AD0FB5403D430560C7686546AF43E9
:100200008D68B5403D43C5604D68ED004CD5294D26
:100210006E6B26436E639608274DB6007519AF685E
:10022000AC4695072E0F0F25ED43B5403D40052701
:100230003F07B84201D1002715E0204FB84201D155
:10024000012710E01E4FB84202D102270BE02BE03D
:100250001C4FB84201D1032705E01B4FB84201D122
:10026000042700E00527B7402F436546AF60174DD0
:100270002E684F689E43FF0300D51E432E606E68B4
:100280004F689E43BF0300D51E436E60AE684F6843
:100290009E43FF0200D51E43AE60EE684F689E434A
:1002A000BF0200D51E43EE60521C102A00D258E750
:1002B000F8BD0000001002400000014000040050A2
:1002C00000080050000C0050001C005000040140C9
:1002D00001480068704700002000002002480168C3
:1002E000491C0160704700002000002010B508483C
:1002F000016840221143016001680222114301603C
:10030000032000F007F800F016F8002010BD0000F0
:100310000020024010B5044600F014F97D21C90008
:10032000FFF7E8FE00F060FB00222146501E00F0BF
:1003300003F8002010BD704710B500F0A3FC10BDFD
:10034000F8B505467C480E460068F021C007C00F8E
:100350007A4CB04268D27848026852085200324360
:1003600002600068C007C00FB0427DD128788007C6
:1003700004D5E0688843A9680843E0602878C0078E
:100380002FD06868022818D0002819D021680328C7
:1003900019D04907002967DAE16889088900014313
:1003A000E160FFF795FF06466868022813D003282E
:1003B0001ED0634F002827D030E021688903E9E789
:1003C00021688905E6E78901E4E7FFF781FF801BE3
:1003D000B84201D981E05A4FE0680007800F022837
:1003E000F3D18EE0FFF774FF801BB84201D974E0AF
:1003F000534FE0680007800F0328F3D181E0FFF737
:1004000067FF801BB84268D8E0680007800FF6D10C
:1004100077E0FFF75DFF801BB8425ED8E068000719
:10042000800F0128F5D16CE02878800704D5E068BA
:100430008843A9680843E0602878C00754D06868FA
:10044000022819D000281AD0216803281AD0490799
:10045000002954DAE168890889000143E160FFF767
:1004600037FF0746686800E049E0022812D00328F9
:100470001CD0002826D032E021688903E8E72168F3
:100480008905E5E78901E3E7FFF722FFC11B2C4857
:10049000814222D8E0680007800F0228F4D123E0CF
:1004A000FFF716FFC11B2648814216D8E0680007F7
:1004B000800F0328F4D117E0FFF70AFFC11B204883
:1004C00081420AD8E0680007800FF5D10CE0FFF701
:1004D000FFFEC11B1A48814201D90320F8BDE06824
:1004E0000007800F0128F2D113480168490849002C
:1004F000314301600068C007C00FB04201D0012045
:10050000F8BD2878400706D5E0680721090288432E
:10051000E9680843E0602878000707D5E06807210C
:10052000C90288432969C9000843E0600320FFF736
:10053000F1FE0020F8BD0000002002400010024043
:100540008813000010B500F031F80549C968054A64
:100550000906090F515CC8400349086010BD00003E
:10056000001002402D0000200000002010B5FFF711
:10057000E9FF0449C968044A4905490F515CC8406C
:1005800010BD0000001002402D00002010B5FFF744
:10059000D9FF0449C968044A8904490F515CC8401D
:1005A00010BD0000001002402D00002010B5174AB9
:1005B000506817490004400F80000858D1680C2388
:1005C000194019D0042918D008291DD00C2913D19D
:1005D000D068D16880020F4B000F185C0902D26806
:1005E000890F01231B04491C1A4201D10A4A00E069
:1005F0000A4A5043FFF77EFD10BD1068C00601D5C2
:10060000074810BD044810BD044810BD001002404A
:10061000A0110008240000200024F40000127A0039
:1006200000093D00F8B504460078E84DC0074CD0FD
:10063000E8680007800F022807D0E8680007800FED
:1006400003280BD1E868C00308D5286880033CD58F
:10065000012061680004814272D136E029680520DA
:10066000000481432960FFF733FE0746D84E04E0BB
:10067000FFF72EFEC01BB0427DD828688003F7D458
:10068000286805210904884361680843286001201F
:100690006168000481420CD1FFF71AFE074604E0AE
:1006A000FFF716FEC01BB042E6D828688003F7D5D6
:1006B0000BE0FFF70DFE074604E0FFF709FEC01B45
:1006C000B042D9D828688003F7D42078800740D575
:1006D000E8681F270007800F3F02012807D0E8685D
:1006E0000007800F032809D1E868C00306D42868F2
:1006F000400717D5E0680128AED113E0E168092072
:10070000002916D02A6882430A432A60FFF7E0FDD9
:10071000064604E0FFF7DCFD801B6428ACD828689F
:100720004007F7D568682169B84309020843686043
:100730000FE0296881432960FFF7CAFD064605E0FE
:1007400042E1FFF7C5FD801B642895D82868400763
:10075000F7D420789F4FC0063AD5E8680007800F8D
:100760000AD0E0690028286824D038432860FFF7C1
:10077000AFFD06460CE0BFE0286880050BD5E069B8
:100780000128B9D107E0FFF7A3FD801B64288BD8AF
:1007900028688005F7D56868072149038843616A9E
:1007A000084368606868218C0002000A0906084353
:1007B00068600DE0B8432860FFF78AFD064604E054
:1007C000FFF786FD801B6428A8D828688005F7D429
:1007D0002078814E000724D560690028306910D048
:1007E000012108433061FFF773FD009005E0FFF73A
:1007F0006FFD0099401A64287ED830698007F6D5CD
:100800000FE0400840003061FFF762FD009005E016
:10081000FFF75EFD0099401A64286DD830698007A3
:10082000F6D42078800632D5A0696C4A002818D00A
:10083000A96801200143A960696B01436963106ADB
:10084000674908431062FFF743FD009005E0FFF79A
:100850003FFD0099401A64284ED8A8688007F6D555
:1008600015E0A86840084000A860106A5C49C943C8
:1008700008401062FFF72CFD009005E0FFF728FD0F
:100880000099401A642837D8A8688007F6D42078E1
:10089000400751D5A86B012109070843A8635148B7
:1008A0000168821511430160FFF712FD074604E05D
:1008B000FFF70EFDC01B64287FD84A480068C005BA
:1008C000F6D531690520000281433161FFF700FD53
:1008D0003F4F009005E0FFF7FBFC0099401AB8423B
:1008E0006BD830698005F6D4306905210902884348
:1008F000A1680843306100E05FE0A168C81FF938D3
:1009000003D0FFF7E5FC009013E0FFF7E1FC009057
:1009100005E0FFF7DDFC0099401AB8424DD8306978
:100920008005F6D508E0FFF7D3FC0099401AB842DD
:1009300043D830698005F6D4A06A002842D0E9681F
:100940000907890F03293FD00126360602282868A7
:1009500005D0B0432860FFF7BBFC04462FE0B0434E
:100960002860FFF7B5FC074604E0FFF7B1FCC01BA9
:10097000642822D828688001F7D4616B206BEA686C
:100980000843E16AFD231B049A4311430843E860CE
:10099000286830432860FFF79BFC044604E0FFF71B
:1009A00097FC001B642808D828688001F7D509E067
:1009B000FFF78EFC001B642801D90320F8BD2868CE
:1009C0008001F5D40020F8BD0120F8BD00100240E0
:1009D00088130000000100004010024000000140A8
:1009E0000120000000700040094910B5401E8842F7
:1009F00001D9012010BD074C60610321081F00F0E0
:100A000041F90020A06107202061002010BD0000F6
:100A1000FFFFFF0000E000E070B5040006D02046B4
:100A200060300546407A002802D004E0012070BD05
:100A3000204600F025F80220687220680168490805
:100A400049000160204600F031FA606A002802D0B7
:100A5000204600F09BF9206841680922D2029143A8
:100A60004160206881682A22914381602068016882
:100A7000012211430160204600F0EEF970BD000034
:100A800030B5124885B0C26A01210A43C262C26A07
:100A90000A43C262816B0122520411438163022026
:100AA0000424002105250190029103902D07009454
:100AB000049469462846FFF751FB082000906946D8
:100AC00004942846FFF74AFB05B030BD00100240F1
:100AD000FFB5064604466036707A81B00F4601289D
:100AE00002D0707A122868D1002F1BD0002A19D0AA
:100AF000307A012861D0012030720020B072707A03
:100B0000122812D022207072254640352A836A832B
:100B10000122A0681203FF2190420AD12069002817
:100B200005D026E0012005B0F0BD3220EBE72448D7
:100B30000AE07F22002817D001210907884204D14A
:100B40002069002813D03F20A883A88B0090688BD1
:100B50000022401E688320212046049B00F076FA84
:100B6000002808D00320DEE72069002801D0AA83EE
:100B7000EBE7A983E9E70120A1680003814202D1E4
:100B80002069002810D02068416A0098014039701F
:100B90007F1C688B0028DAD1707A32280BD00120B4
:100BA000707200203072BEE72068406A00990840E9
:100BB0003880BF1CEDE71220F2E70220B3E7000007
:100BC000FF010000FFB5054604466035687A81B034
:100BD0000E46012802D0687A22284ED1002E1DD060
:100BE000002A1BD0287A012847D001202872002033
:100BF000A872687A222814D01220687227464037DB
:100C00003A827A82788A0022401E788280212046A9
:100C1000049B00F01BFA00281CD104E0012005B061
:100C2000F0BD3220E9E70120A1680003814202D132
:100C30002069002810D0216830788862761C788A74
:100C40000028DFD1002240212046049B00F0FEF95D
:100C5000002808D00320E2E730882168C005C00DD5
:100C60008862B61CEBE7687A322804D001206872EB
:100C700000202872D3E72220F9E70220CFE7FEE721
:100C8000704700008307FF22DB0E9A408907090E98
:100C9000994000280BDA0007000F0838830808483D
:100CA0009B001818C36993430B43C36170478308C3
:100CB00004489B001B18186890430843186070474D
:100CC00000ED00E000E400E07047704710B5FFF76A
:100CD00005FB10BD10B5164894B0816B020411439A
:100CE0008163144801680322D2029143C214891817
:100CF0000160022000900A90400401210C900391B1
:100D000000010D9000241020019404900B9468467B
:100D1000FFF788FC0F200E9003200F901094119481
:100D2000012112940EA8FFF70BFB14B010BD0000B8
:100D30000010024000700040104801688215114305
:100D40000160C1680E4A1140C16001680D4A11403E
:100D500001608168490849008160016801229204AC
:100D600091430160C168FD2212049143C1600021DA
:100D700001610549C003886070470000001002400F
:100D80000C40FF88F6FFF6FE00ED00E010B5818C08
:100D9000C90707D001684A6801235B049A43836A44
:100DA0001A434A60818C890707D501684A68012384
:100DB0001B049A43C36A1A434A60818C490707D5CA
:100DC00001684A6801239B049A43036B1A434A60F3
:100DD000818C090707D501684A680123DB039A4320
:100DE000436B1A434A60818CC90607D50268916833
:100DF00001231B039943836B19439160818C8906FE
:100E000007D501688A6801235B039A43C36B1A43C1
:100E10008A60818C490612D503685A680121090548
:100E2000046C8A4322435A60026C8A4207D10268EA
:100E3000516803235B059943436C19435160818CCE
:100E4000090607D501684A680123DB04806C9A43D0
:100E500002434A6010BD000070B504460068006897
:100E6000114D000708D501212B46002249052046D7
:100E700000F0ECF800280CD12068006840070AD583
:100E800001212B4600228905204600F0DFF80028CA
:100E900001D0032070BD002060342072A0720120B8
:100EA0006072002070BD0000F055000070B504466F
:100EB0002269A168E3691143626900201A4323682B
:100EC00011431A680646594D2A400A431A6022689F
:100ED000516803231B039943E36819435160226A55
:100EE000A169236811439A680B252D02AA430A437E
:100EF0009A604F4B25684F494F4A9D420CD1C968B3
:100F00008907890F06D0012936D0022932D003295A
:100F100020D11EE001201DE0484B9D420AD1C96846
:100F20000C23194016D0042926D0082922D00C29D8
:100F300010D10EE095420DD1CB68032189020B4000
:100F400008D0012189025B1A16D05B1A12D08B429D
:100F500000D1082095421ED100280FD0022810D0C1
:100F6000042811D0082804D100056168FFF7C2F8F1
:100F7000E86070BD0220EDE70420EBE7FFF7F6FA2A
:100F800004E02F486168F1E7FFF710FB000245E03D
:100F90002168C86070BD0122E169D203914228D165
:100FA000030000F0AAF8090609111C141C1C1C22DD
:100FB0001C00FFF7DBFA01E0FFF7E8FA4000616888
:100FC000FFF798F886B20AE01E486168F8E7FFF775
:100FD000EDFA40006168FFF78DF82168C8603109BB
:100FE00009013007400F0843D2E70120000461687F
:100FF000E6E7030000F081F809070A0D061006066F
:1010000006160600C6E7FFF7B1FA07E0FFF7BEFADB
:1010100004E00D486168A9E7FFF7C8FA6168FFF7C7
:1010200069F8B5E710466168A0E70000F369FFEFD3
:101030000038014040100240004800400044004099
:10104000000024F40048E8010024F400F8B51D462F
:1010500016460F460446FFF73BF9314626466036F2
:101060000090002916D041E0681C13D0002D06D056
:10107000FFF72EF901460098081AA8420AD92068FD
:101080000168802291430160206801682022914319
:1010900001601AE02068C16938468843E4D12AE03B
:1010A000681C23D0002D06D0FFF712F901460098E6
:1010B000081AA8421AD92068016880229143016069
:1010C0002068026820218A43026020680168FF22AC
:1010D00001329143016020688168490849008160BC
:1010E00003207072002030720320F8BD2068C169AF
:1010F00038468843D4D00020F8BD30B47446641E0E
:101100002578641CAB4200D21D46635D5B00E3188A
:1011100030BC184702E008C8121F08C1002AFAD1E3
:1011200070477047002001E001C1121F002AFBD167
:1011300070470000FFF7DAF8FFF7CCFD15481449B7
:1011400001604B21C901416000218160C1600161E2
:1011500081610C214161FFF75FFC0F4C002800D03A
:10116000FEE7234604220D490A48FFF7B1FC002898
:1011700000D0FEE70949081FFEF7D2FF07492346C2
:101180000422091F0348FFF71DFD0028E9D0FEE7F0
:101190000044004048000020881300004100002067
:1011A00000FA000000F4010000E8030000D007008E
:1011B00040420F0080841E0000093D00DC11000841
:1011C000000000204800000014110008241200084C
:1011D00048000020700400002411000880841E00D4
:1011E00000000000000000000102030406070809D7
:1011F000030406080C101820300000000000000056
:10120000030406080C10182030000000000102033F
:1012100004010203040607080900000000000000A2
:0412200000000000CA
:04000005080000C12E
:00000001FF
