:020000040800F2
:1000000078050020D5000008530D0008510D0008A8
:1000100000000000000000000000000000000000E0
:100020000000000000000000000000009B0D000820
:10003000A501000800000000990D00089D0D0008B2
:10004000E9000008E9000008E9000008E9000008EC
:10005000E9000008E9000008E9000008E9000008DC
:10006000E9000008E9000008E9000008E9000008CC
:10007000E9000008E900000800000000E9000008AD
:1000800000000000E900000800000000000000007F
:10009000E900000800000000E9000008E90000088D
:1000A000E9000008E9000008E9000008E90000088C
:1000B00009130008E9000008E9000008E900000849
:1000C0000348854600F02CF800480047511300080B
:1000D000780500200548804705480047FEE7FEE711
:1000E000FEE7FEE7FEE7FEE7FEE70000090E000878
:1000F000C100000830B50B46014600202022012433
:1001000009E00D46D5409D4205D31D469540491B4B
:100110002546954040191546521E002DF1DC30BD94
:10012000064C0125064E05E0E36807CC2B430C3C4A
:1001300098471034B442F7D3FFF7C6FF18140008ED
:100140003814000800B5012185B0002803D10A4AFF
:10015000D36A0B43D3624200084B80009A5A019144
:10016000029102210391064900920858694600F065
:100170001BF805B000BD000000100240F413000899
:100180000000002010B5054A4100515A044A800081
:100190001058012200F0C2F810BD0000F41300084E
:1001A0000000002070470000F8B500220124254619
:1001B0000B6895402B40AB426FD14E68022E01D0A8
:1001C000122E14D1D608B60036180096366A570794
:1001D000B446FE0E0F27B646B7406646BE43B44649
:1001E0000F697646B74066463743009E37624E68D1
:1001F000012E05D0022E03D0112E01D0122E16D1C1
:1002000087680326BC465700BE46BE406746B743D4
:10021000BC46CE687746BE4067463E438660466829
:10022000AE430D79ED06ED0F954035434560076807
:1002300056000325B540AC46AF430D79AD07AD0F71
:10024000B5403D430560C7686546AF438D68B5401E
:100250003D43C5604D68ED004CD5294D6E6B26437E
:100260006E639608274DB6007519AF68AC469507C2
:100270002E0F0F25ED43B5403D4005273F07B842FF
:1002800001D1002715E0204FB84201D1012710E02D
:100290001E4FB84202D102270BE02BE01C4FB842A0
:1002A00001D1032705E01B4FB84201D1042700E02C
:1002B0000527B7402F436546AF60174D2E684F683E
:1002C0009E43FF0300D51E432E606E684F689E4319
:1002D000BF0300D51E436E60AE684F689E43FF02A9
:1002E00000D51E43AE60EE684F689E43BF0200D546
:1002F0001E43EE60521C102A00D258E7F8BD0000E1
:1003000000100240000001400004005000080050AE
:10031000000C0050001C005000040140002A01D0D5
:100320008161704781627047014800687047000032
:100330003000002002480168491C0160704700003D
:100340003000002010B508480168402211430160C8
:100350000168022211430160032000F007F800F059
:1003600016F8002010BD00000020024010B5044621
:1003700000F01EF97D21C900FFF7BCFE00F06AFB0A
:1003800000222146501E00F00DF8002010BD7047DD
:10039000C106C90E0120884001490860704700006D
:1003A00000E100E010B500F0D5FC10BDF8B5054641
:1003B0007C480E460068F021C007C00F7A4CB0425E
:1003C00068D27848026852085200324302600068DE
:1003D000C007C00FB0427DD12878800704D5E068FF
:1003E0008843A9680843E0602878C0072FD0686870
:1003F000022818D0002819D02168032819D04907ED
:10040000002967DAE168890889000143E160FFF7A4
:100410008BFF06466868022813D003281ED0634F5E
:10042000002827D030E021688903E9E721688905A1
:10043000E6E78901E4E7FFF777FF801BB84201D9BF
:1004400081E05A4FE0680007800F0228F3D18EE068
:10045000FFF76AFF801BB84201D974E0534FE06890
:100460000007800F0328F3D181E0FFF75DFF801BB9
:10047000B84268D8E0680007800FF6D177E0FFF750
:1004800053FF801BB8425ED8E0680007800F012848
:10049000F5D16CE02878800704D5E0688843A96826
:1004A0000843E0602878C00754D06868022819D053
:1004B00000281AD0216803281AD04907002954DAE5
:1004C000E168890889000143E160FFF72DFF0746D5
:1004D000686800E049E0022812D003281CD00028F8
:1004E00026D032E021688903E8E721688905E5E73D
:1004F0008901E3E7FFF718FFC11B2C48814222D88E
:10050000E0680007800F0228F4D123E0FFF70CFF1A
:10051000C11B2648814216D8E0680007800F0328D7
:10052000F4D117E0FFF700FFC11B204881420AD831
:10053000E0680007800FF5D10CE0FFF7F5FEC11B66
:100540001A48814201D90320F8BDE0680007800FF6
:100550000128F2D11348016849084900314301607C
:100560000068C007C00FB04201D00120F8BD287854
:10057000400706D5E068072109028843E968084377
:10058000E0602878000707D5E0680721C9028843A2
:100590002969C9000843E0600320FFF7E7FE002057
:1005A000F8BD000000200240001002408813000047
:1005B00010B500F031F80549C968054A0906090F68
:1005C000515CC8400349086010BD000000100240A3
:1005D0003D0000201000002010B5FFF7E9FF04499E
:1005E000C968044A4905490F515CC84010BD000064
:1005F000001002403D00002010B5FFF7D9FF04496C
:10060000C968044A8904490F515CC84010BD000004
:10061000001002403D00002010B5174A50681749ED
:100620000004400F80000858D1680C23194019D0ED
:10063000042918D008291DD00C2913D1D068D168FD
:1006400080020F4B000F185C0902D268890F01234A
:100650001B04491C1A4201D10A4A00E00A4A5043CD
:10066000FFF748FD10BD1068C00601D5074810BD52
:10067000044810BD044810BD00100240FC130008DF
:10068000340000200024F40000127A0000093D002C
:10069000F8B504460078E84DC0074CD0E86800077C
:1006A000800F022807D0E8680007800F03280BD1CD
:1006B000E868C00308D5286880033CD5012061683C
:1006C0000004814272D136E029680520000481438C
:1006D0002960FFF729FE0746D84E04E0FFF724FE05
:1006E000C01BB0427DD828688003F7D42868052154
:1006F0000904884361680843286001206168000498
:1007000081420CD1FFF710FE074604E0FFF70CFE14
:10071000C01BB042E6D828688003F7D50BE0FFF78E
:1007200003FE074604E0FFF7FFFDC01BB042D9D827
:1007300028688003F7D42078800740D5E8681F2711
:100740000007800F3F02012807D0E8680007800FEC
:10075000032809D1E868C00306D42868400717D5E4
:10076000E0680128AED113E0E1680920002916D025
:100770002A6882430A432A60FFF7D6FD064604E052
:10078000FFF7D2FD801B6428ACD828684007F7D556
:1007900068682169B8430902084368600FE0296866
:1007A00081432960FFF7C0FD064605E042E1FFF7FF
:1007B000BBFD801B642895D828684007F7D42078B3
:1007C0009F4FC0063AD5E8680007800F0AD0E0695D
:1007D0000028286824D038432860FFF7A5FD064686
:1007E0000CE0BFE0286880050BD5E0690128B9D18D
:1007F00007E0FFF799FD801B64288BD828688005E7
:10080000F7D56868072149038843616A084368602F
:100810006868218C0002000A0906084368600DE040
:10082000B8432860FFF780FD064604E0FFF77CFD33
:10083000801B6428A8D828688005F7D42078814ECA
:10084000000724D560690028306910D001210843D1
:100850003061FFF769FD009005E0FFF765FD009945
:10086000401A64287ED830698007F6D50FE040082A
:1008700040003061FFF758FD009005E0FFF754FDA0
:100880000099401A64286DD830698007F6D4207822
:10089000800632D5A0696C4A002818D0A9680120CA
:1008A0000143A960696B01436963106A67490843A2
:1008B0001062FFF739FD009005E0FFF735FD009964
:1008C000401A64284ED8A8688007F6D515E0A868B5
:1008D00040084000A860106A5C49C94308401062A3
:1008E000FFF722FD009005E0FFF71EFD0099401A7A
:1008F000642837D8A8688007F6D42078400751D5F7
:10090000A86B012109070843A863514801688215B3
:1009100011430160FFF708FD074604E0FFF704FDFF
:10092000C01B64287FD84A480068C005F6D53169E5
:100930000520000281433161FFF7F6FC3F4F009034
:1009400005E0FFF7F1FC0099401AB8426BD8306916
:100950008005F6D43069052109028843A16808435F
:10096000306100E05FE0A168C81FF93803D0FFF7ED
:10097000DBFC009013E0FFF7D7FC009005E0FFF7E9
:10098000D3FC0099401AB8424DD830698005F6D59D
:1009900008E0FFF7C9FC0099401AB84243D8306913
:1009A0008005F6D4A06A002842D0E9680907890FBB
:1009B00003293FD0012636060228286805D0B04317
:1009C0002860FFF7B1FC04462FE0B0432860FFF732
:1009D000ABFC074604E0FFF7A7FCC01B642822D845
:1009E00028688001F7D4616B206BEA680843E16AEC
:1009F000FD231B049A4311430843E86028683043F1
:100A00002860FFF791FC044604E0FFF78DFC001B13
:100A1000642808D828688001F7D509E0FFF784FC2E
:100A2000001B642801D90320F8BD28688001F5D493
:100A30000020F8BD0120F8BD00100240881300001E
:100A400000010000401002400000014001200000B1
:100A500000700040094910B5401E884201D90120AC
:100A600010BD074C60610321081F00F073F90020DE
:100A7000A06107202061002010BD0000FFFFFF00E3
:100A800000E000E07047FEE770B505460068C16908
:100A90002C46C90701266034002907D00168C90522
:100AA00004D50662A07A3043A07266722868C169D4
:100AB00004228B070221002B07DA8368DB0704D0AE
:100AC0000162A07A1043A07266722868C3695B074E
:100AD00007D58368DB0704D00262A07A0843A072BE
:100AE00066722868C169090708D58168C90705D0F9
:100AF00008210162A07A0843A0726672A07A0028D9
:100B000002D02846FFF7BFFF2868C169C90209D58E
:100B10008168490206D501210905016266722846ED
:100B2000FFF7B0FF2868C169890605D5006880060F
:100B300002D5284600F022FA2868C169090605D5C1
:100B40000068000602D5284600F032FBA07A002893
:100B500002D02846FFF797FF70BD70B5040006D09D
:100B6000204660300546407A002802D004E001208B
:100B700070BD204600F024F80220687220680168E9
:100B8000490849000160204600F042FA606A0028E6
:100B900002D0204600F062F9206841680922D202A2
:100BA00091434160206881682A22914381602068D6
:100BB0000168012211430160204600F0B5F970BDC3
:100BC00030B5164885B0C26A01210A43C262C26AC2
:100BD0000A43C262816B01225204114381630220E5
:100BE0000424002105250190029103902D07009413
:100BF000049469462846FFF7D7FA08200090694612
:100C000004942846FFF7D0FA012200211C20FFF7A8
:100C1000C9FB1C20FFF7BCFB05B030BD0010024033
:100C200070B5034660335C7A012C02D05C7A122CDA
:100C300048D1002914D0002A12D01C7A012C41D0AE
:100C400001241C724165014640310A834A8382684F
:100C50002603FF25B24207D10269002A02D02DE007
:100C6000012070BD184A0AE07F26002A21D0012504
:100C70002D07AA4204D10269002A1DD03F228A838F
:100C8000002199725A7A122A1AD022225A720268C4
:100C90001568FF26013635431560026895682543BF
:100CA00095601972006801682022114301600020DC
:100CB00070BD0269002A01D08E83E1E78D83DFE7F2
:100CC0003222E3E7022070BDFF010000014901204C
:100CD000087070474D00002070B5034660335C7AA1
:100CE000012C02D05C7A222C2AD1002924D0002A9F
:100CF00022D01C7A012C23D001241C72C16401462D
:100D000040310A824A82002199725A7A222A15D0E9
:100D100012225A7202681568FF26013635431560A3
:100D20000268956825439560197200680168802201
:100D300011430160002070BD012070BD3222E8E740
:100D4000022070BD01490120087070474D0000204D
:100D5000FEE770478307FF22DB0E9A408907090EE2
:100D6000994000280BDA0007000F0838830808486C
:100D70009B001818C36993430B43C36170478308F2
:100D800004489B001B18186890430843186070477C
:100D900000ED00E000E400E07047704710B5FFF799
:100DA000C9FA10BD10B5164894B0816B0204114306
:100DB0008163144801680322D2029143C214891846
:100DC0000160022000900A90400401210C900391E0
:100DD00000010D9000241020019404900B946846AB
:100DE000FFF756FC0F200E9003200F9010941194E3
:100DF000012112940EA8FFF7D9FA14B010BD00001B
:100E00000010024000700040104801688215114334
:100E10000160C1680E4A1140C16001680D4A11406D
:100E200001608168490849008160016801229204DB
:100E300091430160C168FD2212049143C160002109
:100E400001610549C003886070470000001002403E
:100E50000C40FF88F6FFF6FE00ED00E010B5818C37
:100E6000C90707D001684A6801235B049A43836A73
:100E70001A434A60818C890707D501684A680123B3
:100E80001B049A43C36A1A434A60818C490707D5F9
:100E900001684A6801239B049A43036B1A434A6022
:100EA000818C090707D501684A680123DB039A434F
:100EB000436B1A434A60818CC90607D50268916862
:100EC00001231B039943836B19439160818C89062D
:100ED00007D501688A6801235B039A43C36B1A43F1
:100EE0008A60818C490612D503685A680121090578
:100EF000046C8A4322435A60026C8A4207D102681A
:100F0000516803235B059943436C19435160818CFD
:100F1000090607D501684A680123DB04806C9A43FF
:100F200002434A6010BD000070B5044600680068C6
:100F3000114D000708D501212B4600224905204606
:100F400000F08AF900280CD12068006840070AD513
:100F500001212B4600228905204600F07DF900285A
:100F600001D0032070BD002060342072A0720120E7
:100F70006072002070BD0000F055000070B50246A0
:100F8000403201466031938B4C7A222C04D04C7A4B
:100F9000322C01D0022070BD012584682D03AC42A3
:100FA00002D10469002C0DD00468646A1C40436DB2
:100FB0005D1C45651C70538B5B1E1B041B0C53830F
:100FC00009D021E00568446D6D6A1D402580436DA0
:100FD0009B1C4365EFE70268D3699B06FCD413684A
:100FE0002024A34313604A7A322A0FD00268136880
:100FF000E400A3431360026893685B085B0093609E
:1010000001224A72FFF762FE002070BD1222F8E74B
:1010100070B504462269A168E36911436269002042
:101020001A43236811431A680646594D2A400A4359
:101030001A602268516803231B039943E36819432C
:101040005160226AA169236811439A680B252D0219
:10105000AA430A439A604F4B25684F494F4A9D4225
:101060000CD1C9688907890F06D0012936D0022919
:1010700032D0032920D11EE001201DE0484B9D42C3
:101080000AD1C9680C23194016D0042926D0082992
:1010900022D00C2910D10EE095420DD1CB6803214E
:1010A00089020B4008D0012189025B1A16D05B1A15
:1010B00012D08B4200D1082095421ED100280FD0BB
:1010C000022810D0042811D0082804D10005616836
:1010D000FFF710F8E86070BD0220EDE70420EBE7B1
:1010E000FFF77AFA04E02F486168F1E7FFF794FA16
:1010F000000245E02168C86070BD0122E169D203A9
:10110000914228D1030000F007F9090609111C14C7
:101110001C1C1C221C00FFF75FFA01E0FFF76CFAB1
:1011200040006168FEF7E6FF86B20AE01E4861688B
:10113000F8E7FFF771FA40006168FEF7DBFF21680E
:10114000C860310909013007400F0843D2E7012088
:1011500000046168E6E7030000F0DEF809070A0D05
:101160000610060606160600C6E7FFF735FA07E082
:10117000FFF742FA04E00D486168A9E7FFF74CFA6F
:101180006168FEF7B7FFB5E710466168A0E70000A9
:10119000F369FFEF00380140401002400048004072
:1011A00000440040000024F40048E8010024F4005A
:1011B00010B504466030417A122904D0417A3229B0
:1011C00001D0022010BD214640314A8A002A12D0A7
:1011D0000122A0681203904202D1206900282ED07B
:1011E000E06C421CE264226800789062488A401EEB
:1011F0004882002010BD21680A6880239A430A6053
:10120000417A322915D021680A685B009A430A6046
:1012100021688A68520852008A60012141720D4B90
:1012200000224021204600F017F8002803D00320B8
:1012300010BD2221F2E72046FFF784FDD9E7E06CDC
:1012400022680088C005C00D9062E06C801CE064DC
:10125000CCE70000F0550000F8B51D4616460F46D5
:101260000446FFF761F831462646603600900029B3
:1012700016D041E0681C13D0002D06D0FFF754F8BB
:1012800001460098081AA8420AD9206801688022FD
:1012900091430160206801682022914301601AE0B7
:1012A0002068C16938468843E4D12AE0681C23D00D
:1012B000002D06D0FFF738F801460098081AA8421A
:1012C0001AD9206801688022914301602068026871
:1012D00020218A43026020680168FF220132914385
:1012E00001602068816849084900816003207072AC
:1012F000002030720320F8BD2068C1693846884359
:10130000D4D00020F8BD000010B50248FFF7BCFBA8
:1013100010BD0000AC00002030B47446641E257877
:10132000641CAB4200D21D46635D5B00E31830BC19
:10133000184702E008C8121F08C1002AFAD17047F6
:101340007047002001E001C1121F002AFBD1704745
:10135000FEF7F8FF0020FEF7F5FEFFF723FD234818
:101360002149016000258560C5604B210561C901E7
:10137000856141600C214161FFF7EFFB002800D03F
:10138000FEE71A495A226C311848FFF749FC184CFD
:10139000002800D0FEE720780128FCD125701449F0
:1013A0005A22491C1148FFF797FC002800D0FEE79D
:1013B00020780128FCD125700D490C48491C6C305F
:1013C00059220B780478A34202D0002A07D0FEE706
:1013D0001346521E401C491C92B2002BF1D1002032
:1013E000FEF7D0FEFEE7000000440040AC00002005
:1013F0004D000020200000200700000000FA00003F
:1014000000F4010000E8030000D0070040420F0094
:1014100080841E0000093D003814000800000020F0
:10142000AC00000032130008E4140008AC000020F7
:10143000CC040000421300080000005000080050D7
:10144000E80300000000000080841E00000000008F
:10145000000000000102030406070809030406084F
:101460000C101820300000000000000003040608E3
:101470000C101820300000000001020304010203D8
:10148000040607080900202A2A2A2A554152545FD7
:1014900054776F426F617264735F436F6D49542A72
:1014A0002A2A2A20202A2A2A2A554152545F547770
:1014B0006F426F617264735F436F6D49542A2A2AC9
:1014C0002A20202A2A2A2A554152545F54776F42F3
:1014D0006F617264735F436F6D49542A2A2A2A2010
:0414E0000000000008
:04000005080000C12E
:00000001FF
