:020000040800F2
:10000000F8090020D500000881170008DD16000857
:1000100000000000000000000000000000000000E0
:10002000000000000000000000000000A718000809
:100030009105000800000000D9170008A918000861
:10004000E9000008E9000008E9000008E9000008EC
:10005000E90000089D050008E9000008A90500085E
:10006000E9000008E9000008E9000008E9000008CC
:10007000E9000008E900000800000000E9000008AD
:1000800000000000E900000800000000000000007F
:10009000E900000800000000E9000008E90000088D
:1000A000E9000008E9000008E9000008E90000088C
:1000B000E9000008E9000008E9000008E90000087C
:1000C0000348854600F052F8004800475D220008CA
:1000D000F80900200548804705480047FEE7FEE78D
:1000E000FEE7FEE7FEE7FEE7FEE700001519000861
:1000F000C100000830B50B46014600202022012433
:1001000009E00D46D5409D4205D31D469540491B4B
:100110002546954040191546521E002DF1DC30BD94
:1001200010B503461C460C43A40703D009E010C9D0
:10013000121F10C3042AFAD203E00C781C70491C69
:100140005B1C521EF9D210BD10B50346C9B201E0C6
:1001500019705B1C521EFBD210BD034603220870AF
:10016000000A491C521EFAD518467047064C012554
:10017000064E05E0E36807CC2B430C3C984710344F
:10018000B442F7D3FFF7A0FFB8230008D823000834
:10019000F0B593B025A001460EC9C0680FAC0EC4DF
:1001A000129026A0036882684168C0680B930D9284
:1001B0000C910E9025A001460EC9C06807AC0EC474
:1001C0000A9026480090072301220FA9022001F07F
:1001D00092FD002824D121481025801C00260124EE
:1001E000009503950296871F0196049405901423A9
:1001F0000BAA0221B88801F024FD002810D138464E
:10020000083005900C200294039504940196009008
:10021000142307AA0221B88801F013FD002802D098
:10022000472013B0F0BD0020FBE70000669A0C20C9
:100230000008969EE2119EB1E0F273D9669A0C20F6
:100240000008969EE2119EB1E1F273D9669A0C20E5
:100250000008969EE2119EB1E2F273D9540000208C
:1002600010B5094B1C89641CA04203D1104602F052
:1002700069F810BDD988891C8842FAD11078012804
:10028000F7D1587010BD00005000002010B50D4887
:100290000B490160FF210531416000218160C1608F
:1002A00001614161012252028261016241620722C1
:1002B000C2620822C261816200F0BFFE10BD000070
:1002C000003001407C00002000B585B001210028ED
:1002D00003D10A4AD36A0B43D362094B42009A5AAC
:1002E0000092019102910221039106498000085871
:1002F000694600F003FA05B000BD0000001002409E
:10030000902300080000002010B5044A4100515A13
:10031000034A8000105800F0A2FA10BD9023000894
:100320000000002010B5044A4100515A034A8000E1
:10033000105800F08DFA10BD922300080400002030
:10034000F0B585B00E462A49002803D1CA6A0423B5
:100350001A43CA624A6B01231A434A630027850085
:100360004400002E0BD12348005B009001970297B8
:100370000220039020486946405900F0BFF9012E41
:1003800034D11C48005B00900297022003901B4868
:10039000019019486946405900F0B0F9154EB61C55
:1003A000305D40B2FF25C02300280FDA0107090F96
:1003B00008398A08124992005118CA698007C00E8C
:1003C0008540AA4383401A43CA610BE082080D4965
:1003D000920051180A688007C00E8540AA438340E6
:1003E0001A430A60305D40B200F082FA05B0F0BDF9
:1003F0000010024092230008040000200000211099
:1004000000ED00E000E400E070B5FF2405250134B4
:100410002D0700222146284600F025FA052000F08D
:1004200026F901222146284600F01DFA052000F099
:100430001EF970BDF7B588B00E4617460024FF20A0
:10044000079022A003C805910490052000220221F4
:10045000000700F008FA0F200090052302AA04A963
:10046000089800F0ADFE6946087A02281AD168465D
:10047000007B05026846C07A0543002D12D0BD42BC
:1004800000D93D460F270BE0012306AA07A90097D4
:10049000089800F095FE6846007E3055641CE4B272
:1004A000AC42F1D3052001220221000700F0DBF964
:1004B0000020019003E000BF0198401C01900198CA
:1004C0000228F8DB20460BB0F0BD00000B00000056
:1004D00000000000FFB5C5B04E9E1D46002421A0BF
:1004E00003C84491439021A003C84291419000F079
:1004F00050F8052000220221000700F0B4F90F2770
:10050000052341AA43A90097459800F059FE40A849
:10051000007902280BD0641E052001220221000769
:1005200000F0A1F900F04CF8204649B0F0BD40A819
:100530004079A919884212D3002D06D000972B4686
:1005400001AA4699459800F03BFE002EE4D03346C0
:1005500001AA00974799459800F032FEDCE7012494
:10056000E443D9E70A00000000000000AA000000F0
:10057000000000000149012048617047000401406B
:1005800010B500F077F910BD10B500F070F810BD8F
:10059000704710B5052000F0A1F910BD10B501207D
:1005A00000F0A0F810BD000010B50120400300F0DD
:1005B00099F802490120087010BD00004E0000208B
:1005C00010B5052000F094F910BD000030B585B0DD
:1005D0000B49CA6A01200243CA62C4030094019015
:1005E00002900020039005252D076946284600F05B
:1005F00085F800222146284600F035F905B030BDC7
:100600000010024010B5012105200022C903000797
:1006100000F029F910BD10B501220520D103000713
:1006200000F021F910BD000070B50C46054D012009
:10063000E860FFF7F0FF6C800520401E0028FCDC1E
:1006400070BD00005000002070B5044C0025E5602E
:10065000FFF7D8FF01202070657070BD50000020AA
:1006600010B5122802D1104601F06CFE10BD31B554
:1006700000F000F9044600F0FDF80099001B8842E4
:10068000F9D338BD38B500210091012824D10524C3
:1006900024071BE0114801F0C6FD002814D169466B
:1006A0000E4801F0C7FD0099FF2208310C48FFF702
:1006B000C1FEC1B2002903D0009800F06BFF03E037
:1006C0000648009901F0A1FDFFF754FF01212046E3
:1006D00000F0BEF80128DDD038BD00006C0000201D
:1006E0007C00002010B504494A69024202D04861EA
:1006F000FFF7C8FF10BD000000040140F0B5002264
:10070000012595400B682B40AB427DD14C68022CF3
:1007100001D0122C0ED1D408A4002418266AA446B5
:100720005407E40E0F27A740BE430F69A740374385
:10073000644627624C68012C05D0022C03D0112C92
:1007400001D0122C10D1876854000326A640B7436D
:10075000CE68A6403E4386604468AC430D79ED0602
:10076000ED0F954025434560076854000325A540DB
:10077000AF430E79B607B60FA6403E430660C66883
:10078000AE438D68A5403543C5604C68E4004CD548
:10079000284C666B01252E4366639508264CAD00F8
:1007A0002F19BD6894070F26240FF643A6402E404C
:1007B00005252D07A84201D1002514E01F4DA842B0
:1007C00001D101250FE01E4DA84201D102250AE00A
:1007D0001C4DA84201D1032505E01B4DA84201D1C3
:1007E000042500E00525A5403543BD60174D2C6864
:1007F0009C434E68F60300D51C432C606C689C43F8
:100800004E68B60302D500E00FE01C436C60AC6894
:100810009C434E68F60200D51C43AC60EC689C43D8
:100820004E68B60200D51C43EC60521C102A00D260
:1008300066E7F0BD001002400000014000040050D7
:1008400000080050000C0050001C00500004014043
:100850000069084201D001207047002070474269BA
:100860004A4042617047002A01D08161704781622D
:100870007047000001480068704700003000002009
:1008800002480168491C01607047000030000020E8
:1008900010B5084801684022114301600168022236
:1008A00011430160032000F007F800F016F8002063
:1008B00010BD00000020024010B5044600F048F9C9
:1008C0007D21C900FFF716FC00F0F4FD002221464F
:1008D000501E00F017F8002010BD7047C106C90E69
:1008E00001208840014908607047000080E100E075
:1008F000C106C90E01208840014908607047000008
:1009000000E100E010B500F03DFF10BDF8B5044671
:100910000F468C480068F022C007C00F8A4EB842CC
:100920007DD2884801684908490039430160006860
:10093000C007C00FB84201D00120F8BD2078800761
:1009400004D5F068A16890430843F0602078C007A0
:1009500039D06068022808D000280BD003280ED0B8
:100960003168490710D40120F8BD316889030BD4E0
:100970000120F8BD3168890506D40120F8BD316831
:10098000890101D40120F8BDF1688908890001437B
:10099000F160FFF76FFF05466068022805D0032865
:1009A00012D000281FD0694F33E0684F06E0FFF7F0
:1009B00061FF401BB84201D90320F8BDF068000771
:1009C000800F0228F3D1A3E0604F06E0FFF752FF4B
:1009D000401BB84201D90320F8BDF0680007800F22
:1009E0000328F3D194E0594F06E0FFF743FF401B83
:1009F000B84201D90320F8BDF0680007800FF4D198
:100A000086E00CE0FFF736FF401BB84201D9032017
:100A1000F8BDF0680007800F0128F3D178E0207856
:100A2000800704D5F068A16890430843F0602078FF
:100A3000C00760D06068022808D000280BD00328C7
:100A40000ED03168490710D40120F8BD3168890300
:100A50000BD40120F8BD3168890506D40120F8BD0A
:100A60003168890101D40120F8BDF1688908890045
:100A70000143F160FFF7FEFE0546606802280CD0D6
:100A8000032818D0002824D030E0FFF7F3FE411BE4
:100A90002E48814201D90320F8BDF0680007800F7D
:100AA0000228F2D127E0FFF7E5FE411B27488142EB
:100AB00001D90320F8BDF0680007800F0328F2D1A8
:100AC00019E0FFF7D7FE411B2048814201D90320DE
:100AD000F8BDF0680007800FF3D10CE0FFF7CAFE05
:100AE000411B1A48814201D90320F8BDF068000774
:100AF000800F0128F2D113480168490849003943A1
:100B000001600068C007C00FB84201D00120F8BDE5
:100B10002078400706D5F068072109028843E1687C
:100B20000843F0602078000707D5F0680721C90264
:100B300088432169C9000843F0600320FFF7BCFE29
:100B40000020F8BD00200240001002408813000081
:100B500010B500F011F80549C968054A0906090FE2
:100B6000515CC8400349086010BD000000100240FD
:100B70003D0000201000002010B51B4A5068000402
:100B8000400F1A4980000858D1680C2319401BD027
:100B900004291AD008291FD00C2915D1D0680F219B
:100BA00089040840D1681B051940114B800C185C62
:100BB000890D491CD26801231B041A40002A0DD05C
:100BC0000C4A5043FFF796FA10BD1068C00601D5D5
:100BD000094810BD094810BD064810BD074A5043DA
:100BE000FFF788FA10BD00000010024098230008AB
:100BF0003400002000127A0000093D000024F400B7
:100C0000F8B504462078F94DC00753D0E8680007CE
:100C1000800F022807D0E8680007800F03280CD156
:100C2000E868C00309D52868800343D501206168BE
:100C3000000481423ED00120F8BD2968052000044F
:100C400081432960FFF716FE0646E94F06E0FFF7ED
:100C500011FE801BB84201D90320F8BD286880032B
:100C6000F5D4286805210904884361680843286091
:100C700001206168000481420ED1FFF7FBFD0646AA
:100C800006E0FFF7F7FD801BB84201D90320F8BD4D
:100C900028688003F5D50DE0FFF7ECFD064606E079
:100CA000FFF7E8FD801BB84201D90320F8BD286892
:100CB0008003F5D4207880074BD5E8681F2700070C
:100CC000800F3F02012807D0E8680007800F032843
:100CD00011D1E868C0030ED42868400704D5E06845
:100CE000012801D00120F8BD68682169B8430902D4
:100CF000084368602DE0E0680921002818D02A68C0
:100D00008A4302432A60FFF7B5FD064606E0FFF777
:100D1000B1FD801B642801D90320F8BD2868400775
:100D2000F5D568682169B84309020843686010E096
:100D3000286888432860FFF79DFD064606E0FFF718
:100D400099FD801B642801D90320F8BD286840075D
:100D5000F5D42078C0064FD5E868A64F0007800F6D
:100D60000BD0E069002834D02868FF210131084306
:100D70002860FFF77FFD06461BE02868800504D544
:100D8000E069012801D00120F8BD6868616AB843B4
:100D9000084368606868218C0002000A090608435D
:100DA000686029E0FFF766FD801B642801D90320F5
:100DB000F8BD28688005F5D56868616AB8430843BE
:100DC00068606868218C0002000A090608436860B0
:100DD00012E02968FF20013081432960FFF74AFDB6
:100DE000064606E0FFF746FD801B642801D9032074
:100DF000F8BD28688005F5D420787F4F000727D5F7
:100E00006069002812D03969012001433961FFF778
:100E100031FD064606E0FFF72DFD801B642801D951
:100E20000320F8BD38698007F5D511E0386940081E
:100E300040003861FFF71EFD064606E0FFF71AFD89
:100E4000801B642801D90320F8BD38698007F5D4D8
:100E50002078800634D5A1696848002919D0A9688E
:100E600001221143A960696B11436963016A644AF5
:100E700011430162FFF7FEFC064606E0FFF7FAFCAD
:100E8000801B642801D90320F8BDA8688007F5D528
:100E900016E0A96849084900A960016A584AD24386
:100EA00011400162FFF7E6FC064606E0FFF7E2FCB0
:100EB000801B642801D90320F8BDA8688007F5D4F9
:100EC000207840075BD5A86B012109070843A86378
:100ED0004C480168821511430160FFF7CBFC0646C0
:100EE00006E0FFF7C7FC801B642801D90320F8BD8A
:100EF00044480068C005F4D53F480269052109024D
:100F00008A430261FFF7B6FC0746394E06E0FFF759
:100F1000B1FCC01BB04201D90320F8BD36480069BE
:100F20008005F4D4344A1069052109028843A16878
:100F300008431061A168C81FF93804D0FFF79AFC74
:100F400007462D4E18E0FFF795FC07462A4E07E0AE
:100F5000FFF790FCC11B2648814201D90320F8BD50
:100F600030698005F4D50AE0FFF784FCC11B2048F6
:100F7000814201D90320F8BD30698005F4D4A06A0C
:100F8000002856D0E9680907890F032953D00127A3
:100F90003F06022806D02868B8432860FFF76AFC9D
:100FA000044643E02868B8432860FFF763FC064620
:100FB00006E0FFF75FFC801B642801D90320F8BD21
:100FC00028688001F5D4616B206BEA680843E16A08
:100FD000FD231B049A4311430843E8602868384303
:100FE0002860FFF747FC044615E0000000100240AF
:100FF0008813000000E000004010024000000140A3
:101000000120000000700040FFF734FC001B642842
:1010100001D90320F8BD28688001F5D509E0FFF764
:1010200029FC001B642801D90320F8BD2868800131
:10103000F5D40020F8BD0120F8BD70B50446002CA1
:1010400005D025464035687C002802D004E0012008
:1010500070BD204600F034F80220687420680168F2
:10106000402291430160A168606822690843E168F9
:1010700011430843616901220843A16952021140EA
:101080000843E1690843216A0843A16A08432168CB
:101090000860A0690421000C0840616A08432168C7
:1010A00048602168E06A08612068C1699200914344
:1010B000C1610020A87401206874002070BD000088
:1010C000F0B585B000683A4988426ED13948C16AA6
:1010D00001242143C162C16A02263143C162C16A4F
:1010E0002143C162C16A2143C162C16A2143C16215
:1010F000C16A2143C162416B821411434163871568
:1011000000970194029400250395049505206946F3
:101110000007FFF7F3FA0520002239460007FFF722
:10112000A2FB0820009001960296032703970495DE
:1011300069462148FFF7E2FA4020009001960295A7
:1011400003970495052069460007FFF7D7FA80202A
:1011500000900196029503970495052069460007C3
:10116000FFF7CCFA009601940294039704950520AA
:1011700069460007FFF7C2FA052001220221000795
:10118000FFF771FB00940D480190029503970495B9
:10119000052069460007FFF7B1FA00220421052067
:1011A000FFF7B0FB0520FFF7A3FB05B0F0BD000083
:1011B00000300140001002400004005000001110F7
:1011C000F8B5044625464035687C012803D022281E
:1011D00001D00220F8BD00290CD0002A0AD0002B33
:1011E00008D0287C012807D001202874687C0128B9
:1011F00004D005E00120F8BD0220F8BD322068745B
:101200000020A874A263A387E3872163A386E386F3
:10121000A064E0640126A06A7603B04207D120688A
:101220000168B143016020680168314301602068B2
:101230000168490603D4016840221143016001227C
:10124000D202FF21E0680531570090427ED16068EC
:10125000002804D088420CD1E08E012809D1206BEF
:1012600021680088C860206B801C2063E08E401ECF
:10127000E086E08E00284DD1A06AB04203D12068FC
:10128000016839430160002201212046069B00F0DD
:10129000A4FA002801D00320F8BD2068C068A16B23
:1012A0000880A06B801CA063E08F401EE087C3E035
:1012B000002202212046069B00F08FFA002801D070
:1012C0000320F8BD206B21680088C860206B801C5B
:1012D0002063E08E401E80B2E086002806D1A06A1E
:1012E000B04203D120680168394301600022012126
:1012F0002046069B00F071FA002801D00320F8BDBB
:101300002068C068A16B0880A06B801CA063E08F80
:10131000401EE087E08E0028CAD16068002814D102
:10132000002201212046069B00F057FA002802D037
:101330000320F8BD0AE02068C068A16B0880A06B9C
:10134000801CA063E08F401EE08775E06068002885
:1013500004D088420BD1E08E012808D1206B411CBB
:10136000216321680078C860E08E401EE086E08E30
:10137000002848D1A06AB04203D1206801683943EF
:101380000160002201212046069B00F026FA002879
:1013900001D00320CDE72068C068A16B0870E08F02
:1013A000401EE08748E0002202212046069B00F014
:1013B00014FA002801D00320BBE7206B411C2163F5
:1013C00021680078C860E08E401E80B2E086002868
:1013D00006D1A06AB04203D1206801683943016098
:1013E000002201212046069B00F0F7F9002801D0D9
:1013F00003209EE72068C168A06B421CA2630170B5
:10140000E08F401EE087E08E0028CCD16068002885
:1014100012D1002201212046069B00F0DEF90028AF
:1014200001D0032085E72068C168A06B421CA2633D
:101430000170E08F401EE087A06A0227B0420FD102
:10144000002201212046069B00F0C7F9002804D0A5
:10145000A87C3843A87403206BE72068C06800901C
:10146000012280212046069B00F0B7F9002805D014
:10147000A87C20210843A87403205AE7012068743F
:1014800020688168C906C90FA26AB2420FD100293B
:101490000DD0A97C3943A9740168B143016020686B
:1014A00001683143016000202874012041E70020D9
:1014B00028743EE710B50949401E884201D9012031
:1014C00010BD074C60610321081F00F05BF900208C
:1014D000A06107202061002010BD0000FFFFFF0079
:1014E00000E000E010B5421C007804281BD1107801
:1014F000052819D03E281AD0FF2814D1921C507804
:10150000117800020843154940181DD00E280AD151
:10151000921C9078D378801EC1B21079521D0002BF
:101520001843FFF79DF810BDFFF78EF810BD901C13
:1015300001780129FAD1401C8178427809021143CF
:10154000401DFFF771F810BD921CD0789378117987
:1015500000021843521DFEF783FE10BDFFF3FFFF8C
:1015600070B50A4800F04EFE0848083000F04AFE08
:101570000024074DFF20093060434119034800F063
:101580004BFE641CE4B2052CF4D370BD6C0000204B
:10159000D0000020F8B58446002265462B4C083563
:1015A000656000204DE02178002900D160806788C7
:1015B0007E1C6680EE5D00290ED0032911D004291F
:1015C00012D0052913D0072914D0082915D00629CF
:1015D0001CD009291FD02EE0042E2CD1032121700C
:1015E00029E00621217026E00521217023E0072152
:1015F000217020E0082121701DE029460A79C97870
:1016000013020B4300220921217014E0334600220B
:10161000092121700FE0521C92B29A420BD3207024
:10162000604600F0DDFCA068002803D06188A26855
:1016300060689047F8BD6188FF260536B14200D347
:1016400020706188FF29AED3F8BD00006000002043
:1016500008B500200090FEF79CFF0E4800F0E3FD67
:1016600013E069460B4800F0E5FDFEF7A9FF00987E
:101670000830FFF737FFFEF78CFF0648009908385F
:1016800000F0CAFD034800F0CEFD0028E9D0FEF7C7
:1016900097FF08BD74000020FEB506460F461546AC
:1016A0001C460C480A210068FEF724FD014601A8EB
:1016B00000F068F9E4B2EBB23A46314606480094CD
:1016C000FEF708FF002804D001A800F04DF900281B
:1016D000F1D0FEBDB42300087C000020FEE700002E
:1016E00010B58CB01F480024007800281CD01EA024
:1016F00001460EC9C0680A93099208910B90002117
:10170000084600F087FC002308A80D2106940594E4
:1017100001910290039404941A46009419461846C5
:1017200000F03CFA0CB010BD13A003C80B910A9056
:10173000082005900690192040014B21019002904D
:10174000C90001200491800303940AAB0022009495
:10175000014600F074F90028E4D06420FEF714FF7D
:10176000E0E700004D00002009426C75654E5247CD
:101770005F43686174000000AA0000E1800200007D
:10178000704700008307FF22DB0E9A408907090E8D
:10179000994000280BDA0007000F08388308084832
:1017A0009B001818C36993430B43C36170478308B8
:1017B00004489B001818036893430B430360704769
:1017C00000ED00E000E400E010B5FEF7A9FC10BD5C
:1017D00010B5FEF7B9FC10BD7047FFB581B00446E7
:1017E00016461D46FFF746F8074631462646403660
:1017F000002926D050E0681C23D0002D04D0FFF72C
:1018000039F8C01BA8421CD920684268E0218A43ED
:10181000426020680168402291430160A06AD101C2
:10182000884207D1206802688A4302602068026803
:101830000A4302600120707400203074032005B058
:10184000F0BD2068816802988843D4D129E0681CE3
:1018500022D0002D04D0FFF70DF8C01BA8421BD9E1
:1018600020684268E0218A43426020680268402183
:101870008A430260A06AC901884207D120680268D1
:101880008A430260206802680A4302600120707483
:10189000002030740320D2E72068816802988843D2
:1018A000D5D00020CBE7704710B5FEF7E9FF10BD9B
:1018B00070B594B0154DA86B29040843A86314486B
:1018C00001680322D2029143C214891801600220E8
:1018D000019001260496002405940B900C9440047A
:1018E0000D9000010E9001A8FFF78AF90F960320D2
:1018F000109011941294139401210FA8FFF706F889
:10190000686B3043686314B070BD00000010024083
:101910000070004010480168821511430160C168E1
:101920000E4A1140C16001680D4A11400160816892
:1019300049084900816001680122920491430160D5
:10194000C168FD2212049143C16000210161054973
:10195000C003886070470000001002400C40FF8800
:10196000F6FFF6FE00ED00E010B50446FEF708FEB7
:101970002168401A401C6168814201D2012010BDDB
:10198000002010BD10B504466160FEF7F9FD20602F
:1019900010BD000030B585B0184C2078002803D069
:1019A000FFF79EFE002020701548164C0078164D5B
:1019B000002807D12068002804D02878002801D109
:1019C00000F0EAFA0020FEF7ADFC002813D1002059
:1019D000FEF7A8FC0028FAD0206800280BD0287851
:1019E000002808D0142209A16846FEF799FB1421AB
:1019F000684600F0B3FC05B030BD00005000002088
:101A00004D0000205C0000205100002030313233B6
:101A10003435363738394142434445464748494AC8
:101A200002E008C8121F08C1002AFAD170477047A7
:101A3000002001E001C1121F002AFBD17047F0B560
:101A40008DB012ADE0CD044668468480C18002723C
:101A50000622194601AC0930FFF7B6FE6846C57389
:101A600006824782159981821699C182179901834E
:101A7000189941831822002107A8FFF7A9FE3F21EA
:101A8000684681839C21C183099418200A900F2005
:101A9000089068460B9001200C9007A800F00AFB04
:101AA000002802DAFF200DB0F0BD68460078FAE7A2
:101AB00070B58AB00C4615461E46039007220021D9
:101AC00001A8FFF785FE1822002104A8FFF780FE79
:101AD0003F20694608828A20488203A80690012098
:101AE000079001A808900720099004A800F0E2FAE6
:101AF000002802DAFF200AB070BD6846007900288D
:101B0000F9D16946887949790002084320806946FD
:101B1000087AC9790002084328806946887A497A98
:101B20000002084330800020E5E7F0B58FB0159E35
:101B3000149D17461C466A4610725172394602AF10
:101B40001022B81CFFF740FE6A469476D5761677C9
:101B500007A901311698FEF700FB08AA17985070E4
:101B60001822002109A8FFF733FE3F206A4690841F
:101B70008620D0840B971A200C9001A80D9001208C
:101B80000E9009A800F096FA002802DAFF200FB0A4
:101B9000F0BD684600790028F9D1F8E7FFB5C9B073
:101BA000539F559D694601AC08710126601C0222B5
:101BB0004AA9FFF709FEE01C02224BA9FFF704FE29
:101BC00069464C98487252988872CF7203A83A4678
:101BD0005499FFF7F9FD0837F8B22554401CC7B2F5
:101BE000E0192A465699FFF7EFFD7819C5B260193A
:101BF000022257A9FFF7E8FDAD1CEDB260190222E1
:101C000058A9FFF7E1FDAD1CEDB21822002143A851
:101C1000FFF7DEFD3F2040A988818320C8814594DD
:101C2000469542A84790489643A800F043FA0028FA
:101C300002DAFF204DB0F0BD40A8007A0028F9D1AB
:101C4000F8E7FFB5C9B00D461F4601AC2046022299
:101C500049A9FFF7B9FD684685710326012D3BD0E0
:101C60001025E01C2A464B99FFF7AEFDED1CE8B2AB
:101C70002754401CC0B252992154401CC0B2539901
:101C80002154401CC0B254992154401CC0B25599F3
:101C90002154401CC0B256992154401CC5B20322A5
:101CA000002142A8FFF794FD1822002143A8FFF766
:101CB0008FFD3F2040A98881FF200530C8814594D1
:101CC000469542A84790489643A800F0F3F90028AB
:101CD00004DAFF204DB0F0BD0225C2E740A8007A2B
:101CE0000028F7D140A9887A497A00020843579919
:101CF00008800020EEE7F0B5C9B016461F466A46D8
:101D000001AD107101282AD01024681C2246FFF76B
:101D10005BFD641CE0B22E54401CC0B22F54401C2A
:101D2000C4B20322002142A8FFF752FD182200216D
:101D300043A8FFF74DFD3F2040A98881FF200330D5
:101D4000C8814595469442A847900320489043A8EF
:101D500000F0B0F9002804DAFF2049B0F0BD0224F9
:101D6000D3E740A8007A0028F7D140A9887A497AB9
:101D7000000208434E9908800020EEE700B587B0C6
:101D80001822002101A8FFF723FD3F206946888023
:101D9000FF200230C880684605900120069001A807
:101DA00000F088F9002802DAFF2007B000BD68467D
:101DB00000780028F9D1F8E7FFB5C9B0529F164660
:101DC0001D4601AC2046022249A9FFF7FDFCA01CDC
:101DD00002224AA9FFF7F8FC69460E724D72A01D57
:101DE0002A463946FFF7F0FCAD1DEDB2182200215E
:101DF00043A8FFF7EDFC3F2040A98881FF20073072
:101E0000C8814594469542A847900120489043A830
:101E100000F050F9002802DAFF204DB0F0BD40A8D4
:101E2000007A0028F9D1F8E77FB5C8B015461E46FC
:101E30006C462046022248A9FFF7C6FCA01C0222DD
:101E400049A9FFF7C1FC69460D71601D2A4631465C
:101E5000FFF7BAFC6D1DEDB21822002142A8FFF772
:101E6000B7FC3F2040A90881FF20223048814494DC
:101E7000459541A846900120479042A800F01AF9E4
:101E8000002802DAFF204CB070BD40A80079FAE7C4
:101E90007FB5C8B015461E466C462046022248A9AA
:101EA000FFF792FCA01C022249A9FFF78DFC6946AE
:101EB0000D71601D2A463146FFF786FC6D1DEDB29F
:101EC0001822002142A8FFF783FC3F2040A9088187
:101ED000FF20243048814494459541A84690012034
:101EE000479042A800F0E6F8002802DAFF204CB044
:101EF00070BD40A80079FAE700B589B06A46107253
:101F000051721822002103A8FFF762FC3F206A46A5
:101F100090810F20D08102A805900220069001A890
:101F200007900120089003A800F0C4F8002802DA06
:101F3000FF2009B000BD684600790028F9D1F8E714
:101F400070B50C46C8B011466A466D461070012641
:101F50005470A81C2246FFF737FCA41CE4B21822D8
:101F6000002142A8FFF734FC3F2040AA10810C203A
:101F700050814495459441A84690479642A800F068
:101F800099F8002802DAFF2048B070BD40A8007917
:101F90000028F9D1F8E700003EB50EA000680290D5
:101FA0000D4801680A2041436846FFF7EBFC0B4CE3
:101FB00004E06846FFF7D8FC002807D102AB0222F4
:101FC00013216088FFF730FF4628F2D001206070AF
:101FD0003EBD000001000000B423000850000020B6
:101FE00010B5014608314A1C0978042909D1117835
:101FF0000E2906D00F2904D00146054800F00CF93F
:1020000010BD01460248083800F006F910BD000076
:102010007400002030B58FB004460D462022002108
:1020200001A8FFF7D5FB684604711F2C00D91F24B7
:10203000224601AC2946601CFFF7C6FB182200218E
:1020400009A8FFF7C5FB0820694688840920C884D1
:102050000B9420200C9068460D9001200E9009A84A
:1020600000F028F80021C943002802DA08460FB022
:1020700030BD68460078002801D00846F7E7002008
:10208000F5E77CB514461D468905890D800201439C
:102090006A469180947101201070032201A968445E
:1020A000FFF792FB234604222946684600F0A6F873
:1020B00000207CBDFEB50446608821788005800D37
:1020C0008902084387B2474864210068FEF712F886
:1020D0000546454900204870444800F089F8227BB5
:1020E00061882088A368FFF7CCFF002871DB0A26EF
:1020F0006CE0002D00D10125002D0CDD294668463D
:10210000FFF740FC6846FFF72FFC002861D13648F6
:1021100040780028F6D0344841680A78042A04D070
:1021200000214170FEF74CFA50E00B462E48C91CC6
:102130004288D21E58780E281CD00F2804D01028B0
:1021400047D03E283DD127E0C8788B78000218435D
:10215000B84236D160680F2803D00878002838D1FB
:102160002FE06069904200DC024662612069FFF75F
:102170002BFB1FE00846837840781B020343BB42D9
:102180001FD1C91CD21E6069904200DC0246626108
:102190002069FFF719FB0DE008786368984210D1B9
:1021A000521E6069904200DC02466261491C20694F
:1021B000FFF70AFB002000F01BF8FEF701FA0020F1
:1021C000FEBD094900204870FEF7FAF9761E701C22
:1021D0008FD1002000F00CF8FEF7F2F90020C04388
:1021E000FEBD0000B4230008600000203123000879
:1021F00001498860704700006000002010B5FFF7BB
:102200004BFA10BD00604060704702680A60486089
:102210000160086841607047086042684A60416038
:102220004868016070470168814201D10120704710
:102230000020704700B50B4601681960006800F087
:1022400006F81968002008601968486000BD4268F7
:102250000168116003C84160704700008EB02EA075
:1022600003C80D910C902EA003C80B910A90FEF7A5
:102270000FFBFEF7ABF90020FEF726F80021084619
:10228000FEF75EF8FFF714FBFEF700F8FFF768F9BA
:10229000FEF7BAF8244C2078002824D006220AA998
:1022A00008A8FFF791FA08AA06210020FFF748FEC8
:1022B000FFF764FD207801281BD005AB06AA07A90B
:1022C0000320FFF7F5FB194900221023012000939A
:1022D00002910192039007231146FFF726FC207814
:1022E00001280DD00EE006220CA908A8FFF76CFA11
:1022F000D9E705AB06AA07A90120FFF7D9FBE2E75A
:10230000FDF746FF04210120FFF7F6FDFFF7A0F9D6
:10231000FFF740FBFAE70000BB0000E1800200008D
:10232000AA0000E1800200004D00002040E2010010
:1023300010B5FEF72EF902490120487010BD0000CB
:102340006000002010B50C460020FDF7DDFF0020E6
:1023500000E0401CA042FCDB10BD000038B50A4A7A
:102360000A4C1278012A06D003460A4615216088D5
:10237000FFF78EFD38BD00900B460022E188A08853
:10238000FFF71AFD38BD00004D000020500000206E
:10239000200000200700000000FA000000F4010007
:1023A00000E8030000D0070040420F0080841E00B8
:1023B00000093D00E8030000D823000800000020C9
:1023C0007C000000201A0008542400087C00002033
:1023D0007C090000301A000800000050000800507E
:1023E000E80300000000000080841E0000000000E0
:1023F00000000000010203040607080903040608A0
:102400000C10182030000000000000000304060833
:102410000C10182030000000000102030401020328
:102420000406070809010000010000000000000088
:10243000000000000000000000000000000000009C
:10244000000000000000000000000000000000008C
:042450000000000088
:04000005080000C12E
:00000001FF
