:020000040800F2
:1000000088150020DD7C0008897C00088B7C0008B6
:1000100000000000000000000000000000000000E0
:100020000000000000000000000000008D7C0008BF
:100030008F7C000800000000917C0008937C000881
:10004000F34B0008C7620008D3720008A77C0008C1
:10005000CF7C0008DB7C0008F97C00089B7C000852
:10006000FB7C0008FD7C0008FF7C0008017D000887
:10007000037D0008057D000800000000077D0008E2
:1000800000000000097D00080000000000000000E2
:100090000B7D0008000000000D7D00080F7D0008AA
:1000A000117D0008137D0008157D0008177D0008EC
:1000B000197D00081B7D00081D7D00081F7D0008BC
:1000C0000000000000000000000000000000000030
:1000D0000000000000000000000000000000000020
:1000E0000000000000000000000000000000000010
:1000F0000000000000000000000000000000000000
:10010000000000000000000000000000000003806C
:100110000003800003800003800003800003800050
:100120000380000380000380000100000100000044
:1001300000000000000380000380000000000000B9
:1001400000000000000000000000000000000000AF
:100150000000000000000000000E70000E70000E95
:10016000700004200004200004200004200000008F
:10017000000000000000000000000000000000007F
:10018000000000000000000000000000000000006F
:1001900000000000000000000000000000000660F9
:1001A000000660000660000660000660003FF80080
:1001B0003FF8000660000CC0003FF8003FF8000C5C
:1001C000C0000CC0000CC0000CC0000CC00000003F
:1001D000000000000000000000000000000000001F
:1001E00000000001800001800007B0000FF000183F
:1001F00070001870001C00000F800007E00000F085
:10020000001830001C30001C70001FE0001BC000F4
:1002100001800001800001800001800000000000DA
:100220000000000000000000000000000000078047
:10023000000FC0001CE0001860001860001CE00007
:100240000FF80007E0001FF000073800061800064E
:10025000180007380003F00001E000000000000073
:10026000000000000000000000000000000000008E
:1002700000000000000000000000000003F0000784
:10028000F0000C60000C00000C00000600000700ED
:10029000000F9C001DFC0018F0001870000FFC00FF
:1002A00007DC00000000000000000000000000006B
:1002B000000000000000000000000000000000003E
:1002C00000038000038000038000010000010000A3
:1002D000010000010000000000000000000000001C
:1002E000000000000000000000000000000000000E
:1002F00000000000000000000000000000000000FE
:10030000000000000000001800003800007000002D
:10031000F00000E00000E00001C00001C00001C0EA
:100320000001C00001C00001C00000E00000E000CA
:10033000007000007000003800001800000000008D
:100340000000000000000000000000000000180095
:10035000001C00000E00000E000007000007000057
:1003600003800003800003800003800003800003FB
:1003700080000700000700000F00000E00001C00B6
:100380000018000000000000000000000000000055
:100390000000000000000180000180000180001DBD
:1003A000B8001FF80007E00003C00003C0000660AB
:1003B00000066000000000000000000000000000D7
:1003C000000000000000000000000000000000002D
:1003D000000000000000000000000000000000001D
:1003E0000000000001800001800001800001800009
:1003F0000180003FFC003FFC000180000180000103
:10040000800001800001800000000000000000006A
:1004100000000000000000000000000000000000DC
:1004200000000000000000000000000000000000CC
:1004300000000000000000000000000000000000BC
:100440000000000000000000000000E00000C0000C
:1004500001C00001800001800003000003000000D3
:10046000000000000000000000000000000000008C
:10047000000000000000000000000000000000007C
:100480000000001FF8001FF800000000000000003E
:10049000000000000000000000000000000000005C
:1004A000000000000000000000000000000000004C
:1004B000000000000000000000000000000000003C
:1004C000000000000000000000000000000000002C
:1004D0000000000000000000000003C00003C00096
:1004E00003C0000000000000000000000000000049
:1004F0000000000000000000001800001800003894
:100500000000300000700000600000600000C000CB
:1005100000C000018000018000030000030000060D
:1005200000000600000E00000C00001C0000180077
:1005300000180000000000000000000000000000A3
:1005400000000000000003C00007E0000C30000CB9
:10055000300018180018180018180018180018187B
:10056000001818001818000C30000C300007E000CC
:1005700003C00000000000000000000000000000B8
:1005800000000000000000000000000000000080EB
:10059000000780001F80001D800001800001800096
:1005A00001800001800001800001800001800001C5
:1005B00080000180001FF8001FF80000000000000C
:1005C000000000000000000000000000000000002B
:1005D00000000000000007C0001FF00038300030AD
:1005E000180030180000180000300000600001C042
:1005F000000380000600000C00001800003FF80017
:100600003FF80000000000000000000000000000B3
:10061000000000000000000000000000000003C017
:10062000000FE0000C70000030000030000060009F
:1006300003C00003E0000070000018000018000074
:1006400018001838001FF0000FC000000000000064
:10065000000000000000000000000000000000009A
:1006600000000000000000E00001E00001E00003E5
:1006700060000660000660000C60000C60001860FE
:10068000003060003FF8003FF80000600003F80011
:1006900003F800000000000000000000000000005F
:1006A00000000000000000000000000000001FF03B
:1006B000001FF0001800001800001800001BC00008
:1006C0001FF0001C30000018000018000018000087
:1006D00018003030003FF0000FC0000000000000A4
:1006E000000000000000000000000000000000000A
:1006F00000000000000000F80003F8000700000EF2
:1007000000000C00001800001BC0001FF0001C308F
:10071000001818001818001818000C38000FF00006
:1007200003E00000000000000000000000000000E6
:1007300000000000000000000000000000001FF8A2
:10074000001FF800181800183800003000003000B2
:1007500000700000600000600000E00000C00000C9
:10076000C00001C000018000018000000000000006
:100770000000000000000000000000000000000079
:1007800000000000000007E0000FF0001C38001817
:1007900018001818000C300007E00007E0000C30CB
:1007A000001818001818001818001C38000FF00066
:1007B00007E0000000000000000000000000000052
:1007C000000000000000000000000000000007C062
:1007D000000FF0001C30001818001818001818003E
:1007E0000C38000FF80003D800001800003000009B
:1007F000700000E0001FC0001F00000000000000AB
:1008000000000000000000000000000000000000E8
:1008100000000000000000000000000000000000D8
:10082000000003C00003C00003C00000000000007F
:100830000000000000000000000003C00003C00032
:1008400003C00000000000000000000000000000E5
:100850000000000000000000000000000000000098
:100860000000000000000000000000F00000F000A8
:1008700000F0000000000000000000000000000088
:10088000E00001C0000180000180000300000200C0
:100890000000000000000000000000000000000058
:1008A000000000000000000000000000001C00002C
:1008B0003C0000F00003C0000F00003C0000F0000E
:1008C000003C00000F000003C00000F000003C00EE
:1008D000001C0000000000000000000000000000FC
:1008E0000000000000000000000000000000000008
:1008F000000000000000000000000000007FFC007D
:100900007FFC000000000000007FFC007FFC000076
:1009100000000000000000000000000000000000D7
:1009200000000000000000000000000000000000C7
:1009300000000000000000000000000070000078CF
:1009400000001E000007800001E000007800001E8B
:100950000000780001E0000780001E000078000021
:100960007000000000000000000000000000000017
:100970000000000000000000000000000000000077
:100980000007C0000FE00018700018300018300099
:1009900000700000E00003C00003800003000000BE
:1009A0000000000000070000070000000000000039
:1009B0000000000000000000000000000000000037
:1009C00000000000000003E00007F0000E38000CFB
:1009D000180018780018F80019D80019980019980C
:1009E0000019980018F8001878001800000C000092
:1009F0000E180007F80003E00000000000000000EF
:100A000000000000000000000000000000000000E6
:100A1000001F80001FC00001C000036000036000D1
:100A20000630000630000C30000FF8001FF80018E8
:100A30000C00300C00FC7F00FC7F00000000000078
:100A400000000000000000000000000000000000A6
:100A50000000000000000000007FE0007FF00018B0
:100A600038001818001818001838001FF0001FF878
:100A700000181C00180C00180C00180C007FF8005F
:100A80007FF00000000000000000000000000000F7
:100A90000000000000000000000000000000000056
:100AA0000003EC000FFC001C1C00180C00300C00B4
:100AB000300000300000300000300000300000182E
:100AC0000C001C1C000FF80003F0000000000000E8
:100AD0000000000000000000000000000000000016
:100AE0000000000000000000007FC0007FF0001840
:100AF0003800181800180C00180C00180C00180CFE
:100B000000180C00180C001818001838007FF000AE
:100B10007FE0000000000000000000000000000076
:100B200000000000000000000000000000000000C5
:100B3000007FF8007FF800181800181800199800B6
:100B40001980001F80001F8000198000199800186C
:100B500018001818007FF8007FF80000000000005F
:100B60000000000000000000000000000000000085
:100B70000000000000000000003FFC003FFC000CF3
:100B80000C000C0C000CCC000CC0000FC0000FC0FF
:100B9000000CC0000CC0000C00000C00003FC000A6
:100BA0003FC0000000000000000000000000000046
:100BB0000000000000000000000000000000000035
:100BC0000003EC000FFC001C1C00180C00300C0093
:100BD00030000030000030FE0030FE00300C0038E5
:100BE0000C001C1C000FFC0003F0000000000000C3
:100BF00000000000000000000000000000000000F5
:100C00000000000000000000007E7E007E7E0018D4
:100C100018001818001818001818001FF8001FF8FE
:100C2000001818001818001818001818007E7E0008
:100C30007E7E0000000000000000000000000000B8
:100C400000000000000000000000000000000000A4
:100C5000001FF8001FF800018000018000018000E3
:100C600001800001800001800001800001800001FE
:100C700080000180001FF8001FF800000000000045
:100C80000000000000000000000000000000000064
:100C900000000000000000000007FE0007FE00004A
:100CA00030000030000030000030000030003030F4
:100CB000003030003030003030003060003FE00065
:100CC0000F80000000000000000000000000000095
:100CD0000000000000000000000000000000000014
:100CE000007F3E007F3E0018300018600018C000F2
:100CF0001980001B80001FC0001CE0001870001845
:100D000030001838007F1F007F1F00000000000027
:100D100000000000000000000000000000000000D3
:100D20000000000000000000007F80007F80000CB9
:100D300000000C00000C00000C00000C00000C0077
:100D4000000C0C000C0C000C0C000C0C007FFC00C8
:100D50007FFC000000000000000000000000000018
:100D60000000000000000000000000000000000083
:100D700000F00F00F81F00381C003C3C003C3C0019
:100D8000366C00366C0033CC0033CC00318C003034
:100D90000C00300C00FE7F00FE7F00000000000011
:100DA0000000000000000000000000000000000043
:100DB00000000000000000000078FE0078FE001C2B
:100DC00018001E18001F18001B18001B980019D8C7
:100DD0000018D80018F8001878001838007F18009C
:100DE0007F1800000000000000000000000000006C
:100DF00000000000000000000000000000000000F3
:100E00000003C0000FF0001C3800181800381C0048
:100E1000300C00300C00300C00300C00381C001876
:100E200018001C38000FF00003C000000000000094
:100E300000000000000000000000000000000000B2
:100E40000000000000000000003FF0003FF8000C30
:100E50001C000C0C000C0C000C0C000C18000FF803
:100E6000000FE0000C00000C00000C00003FC00070
:100E70003FC0000000000000000000000000000073
:100E80000000000000000000000000000000000062
:100E90000003C0000FF0001C3800181800381C00B8
:100EA000300C00300C00300C00300C00381C0018E6
:100EB00018001C38000FF00007C00007CC000FFC22
:100EC000000C3800000000000000000000000000DE
:100ED0000000000000000000007FE0007FF000182C
:100EE00038001818001818001838001FF0001FC02C
:100EF0000018E0001870001830001838007F1E003D
:100F00007F0E000000000000000000000000000054
:100F100000000000000000000000000000000000D1
:100F20000007D8000FF8001C380018180018180027
:100F30001E00000FC00003F0000078001818001811
:100F400018001C38001FF0001BE00000000000002B
:100F50000000000000000000000000000000000091
:100F60000000000000000000003FFC003FFC0031DA
:100F70008C00318C00318C00318C000180000180AC
:100F8000000180000180000180000180000FF0005E
:100F90000FF0000000000000000000000000000052
:100FA0000000000000000000000000000000000041
:100FB000007E7E007E7E00181800181800181800A9
:100FC0001818001818001818001818001818001819
:100FD00018000C30000FF00003C0000000000000FB
:100FE0000000000000000000000000000000000001
:100FF0000000000000000000007F7F007F7F0018DD
:101000000C000C18000C18000C18000630000630FC
:101010000003600003600003600001C00001C00025
:101020000080000000000000000000000000000040
:1010300000000000000000000000000000000000B0
:1010400000FE3F80FE3F8030060030060030860004
:1010500019CC0019CC001B6C001B6C001E7C000E10
:1010600038000E38000C18000C18000000000000BA
:101070000000000000000000000000000000000070
:101080000000000000000000007E7E007E7E001850
:1010900018000C300006600003C0000180000180D1
:1010A0000003C0000660000C30001818007E7E00AF
:1010B0007E7E000000000000000000000000000034
:1010C0000000000000000000000000000000000020
:1010D000007C7E007C7E001818000C30000660004A
:1010E00006600003C0000180000180000180000153
:1010F00080000180000FF0000FF0000000000000F1
:1011000000000000000000000000000000000000DF
:101110000000000000000000001FF8001FF8001889
:10112000180018300018600018C00001800003008B
:10113000000618000C18001818003018003FF800BE
:101140003FF8000000000000000000000000000068
:10115000000000000000000000000000000001F09E
:101160000001F0000180000180000180000180008A
:1011700001800001800001800001800001800001E9
:10118000800001800001800001800001800001F0EA
:101190000001F0000000000000000000000000005E
:1011A0001800001800001C00000C00000E000006D3
:1011B0000000060000030000030000018000018021
:1011C0000000C00000C0000060000060000070006F
:1011D0000030000038000018000018000000000077
:1011E00000000000000000000000000000000F8070
:1011F000000F80000180000180000180000180005C
:101200000180000180000180000180000180000158
:1012100080000180000180000180000180000F80BB
:10122000000F80000000000000000000000000002F
:1012300000000000800001C00003E000077000060D
:1012400030000C1800180C00100400000000000012
:10125000000000000000000000000000000000008E
:10126000000000000000000000000000000000007E
:10127000000000000000000000000000000000006E
:10128000000000000000000000000000000000005E
:10129000000000000000000000000000000000004E
:1012A000000000000000000000000000000000003E
:1012B00000000000000000000000FFFF00FFFF0032
:1012C00000000003000003800000E0000060000058
:1012D000000000000000000000000000000000000E
:1012E00000000000000000000000000000000000FE
:1012F00000000000000000000000000000000000EE
:1013000000000000000000000000000000000000DD
:10131000000000000000000000000FC0001FE000FF
:1013200000300000300007F0001FF00038300030BF
:1013300030003070001FFC000FBC000000000000F7
:10134000000000000000000000000000000000009D
:10135000000000000000780000780000180000186D
:1013600000001BE0001FF8001C1800180C00180CEF
:1013700000180C00180C00180C001C18007FF80056
:101380007BE0000000000000000000000000000002
:10139000000000000000000000000000000000004D
:1013A0000000000000000000000003EC000FFC0043
:1013B0001C1C00380C00300C0030000030000038DD
:1013C0000C001C1C000FF80003F0000000000000DF
:1013D000000000000000000000000000000000000D
:1013E00000000000000000780000780000180000F5
:1013F000180007D8001FF8001838003018003018FF
:10140000003018003018003018001838001FFE0097
:1014100007DE0000000000000000000000000000E7
:1014200000000000000000000000000000000000BC
:101430000000000000000000000007E0001FF800AE
:10144000181800300C003FFC003FFC00300000305A
:101450000000180C001FFC0007F000000000000056
:10146000000000000000000000000000000000007C
:1014700000000000000001FC0003FC000600000664
:1014800000003FF8003FF8000600000600000600DC
:10149000000600000600000600000600003FF00005
:1014A0003FF000000000000000000000000000000D
:1014B000000000000000000000000000000000002C
:1014C0000000000000000000000007DE001FFE001A
:1014D000183800301800301800301800301800306C
:1014E00018001838001FF80007D80000180000186E
:1014F000000038000FF0000FC000000000000000E6
:1015000000000000000078000078000018000018BB
:1015100000001BE0001FF0001C380018180018180D
:10152000001818001818001818001818007E7E00FF
:101530007E7E0000000000000000000000000000AF
:10154000000000000000000000000000000001801A
:10155000000180000000000000001F80001F8000CC
:1015600001800001800001800001800001800001F5
:1015700080000180003FFC003FFC000000000000F4
:10158000000000000000000000000000000000005B
:1015900000000000000000C00000C00000000000CB
:1015A00000001FF0001FF00000300000300000308D
:1015B000000030000030000030000030000030003B
:1015C0000030000030000030000070001FE0001FFD
:1015D00080000000000000000000000000003C004F
:1015E000003C00000C00000C00000CF8000CF8009F
:1015F0000CC0000D80000F80000F00000F80000D58
:10160000C0000CE0003C7C003C7C000000000000BE
:1016100000000000000000000000000000000000CA
:101620000000000000001F80001F800001800001FA
:1016300080000180000180000180000180000180A5
:10164000000180000180000180000180003FFC005B
:101650003FFC00000000000000000000000000004F
:10166000000000000000000000000000000000007A
:1016700000000000000000000000F77800FFFC0000
:1016800039CC00318C00318C00318C00318C003130
:101690008C00318C00FDEF00FDEF00000000000029
:1016A000000000000000000000000000000000003A
:1016B000000000000000000000000000000000002A
:1016C00000007BE0007FF0001C380018180018189C
:1016D000001818001818001818001818007E7E004E
:1016E0007E7E0000000000000000000000000000FE
:1016F00000000000000000000000000000000000EA
:101700000000000000000000000003C0000FF00017
:101710001C3800381C00300C00300C00300C003835
:101720001C001C38000FF00003C000000000000087
:1017300000000000000000000000000000000000A9
:101740000000000000000000000000000000000099
:1017500000007BE0007FF8001C1800180C00180C3B
:1017600000180C00180C00180C001C18001FF800C2
:101770001BE0001800001800001800007F00007F28
:101780000000000000000000000000000000000059
:101790000000000000000000000007DE001FFE0047
:1017A0001838003018003018003018003018003099
:1017B00018001838001FF80007D80000180000189B
:1017C0000000180000FE0000FE0000000000000005
:1017D0000000000000000000000000000000000009
:1017E00000003E78003EFC0007CC00070000060029
:1017F000000600000600000600000600003FF000A2
:101800003FF00000000000000000000000000000A9
:1018100000000000000000000000000000000000C8
:101820000000000000000000000007F8000FF800B2
:101830001818001818001F80000FF00000F800189A
:1018400018001838001FF0001FE000000000000022
:101850000000000000000000000000000000000088
:101860000000000000000C00000C00000C00000C48
:1018700000003FF0003FF0000C00000C00000C00E6
:10188000000C00000C00000C00000C1C0007FC0009
:1018900003F0000000000000000000000000000055
:1018A0000000000000000000000000000000000038
:1018B0000000000000000000000078780078780048
:1018C0001818001818001818001818001818001810
:1018D00018001838000FFE0007DE000000000000AE
:1018E00000000000000000000000000000000000F8
:1018F00000000000000000000000000000000000E8
:1019000000007C3E007C3E001818001818000C30C7
:10191000000C300006600006600007E00003C00015
:1019200003C00000000000000000000000000000F4
:1019300000000000000000000000000000000000A7
:1019400000000000000000000000783C00783C002F
:101950003118003398003398001AB0001EF0001EB2
:10196000F0001C60000C60000C6000000000000033
:101970000000000000000000000000000000000067
:101980000000000000000000000000000000000057
:1019900000003E7C003E7C000C300006600003C06E
:1019A0000001800003C0000660000C30003E7C0097
:1019B0003E7C00000000000000000000000000006D
:1019C0000000000000000000000000000000000017
:1019D000000000000000000000007E1F007E1F00CD
:1019E000180C000C18000C1800063000063000031C
:1019F000600003E00001C00000C000018000018021
:101A0000000300003FC0003FC000000000000000D5
:101A100000000000000000000000000000000000C6
:101A200000001FF8001FF80018300018600000C008
:101A3000000180000300000618000C18001FF800C9
:101A40001FF800000000000000000000000000007F
:101A5000000000000000000000000000000000E0A6
:101A60000001E00001800001800001800001800091
:101A70000180000180000380000700000380000156
:101A8000800001800001800001800001800001E0F1
:101A90000000E00000000000000000000000000066
:101AA00000000000000001800001800001800001B2
:101AB0008000018000018000018000018000018021
:101AC0000001800001800001800001800001800091
:101AD0000180000180000180000180000000000002
:101AE00000000000000000000000000000000700EF
:101AF000000780000180000180000180000180005B
:101B000001800001800001C00000E00001C0000170
:101B100080000180000180000180000180000780BA
:101B200000070000000000000000000000000000AE
:101B300000000000000000000000000000000000A5
:101B400000000000000000000E00001F18003BB85D
:101B50000031F00000E00000000000000000000084
:101B60000000000000000000000000000000000075
:101B70000000000000000000000000000000000065
:101B800000000000001010101010000010000000F5
:101B9000006C4848000000000000000000141428F9
:101BA0007C287C2850500000001038404038487095
:101BB00010100000002050200C70081408000000D5
:101BC00000000018202054483400000000101010BD
:101BD0001000000000000000000808101010101095
:101BE00010080800002020101010101010202000F5
:101BF00000107C10282800000000000000001010D9
:101C000010FE10101000000000000000000000187E
:101C10001030200000000000007C000000000000E8
:101C20000000000000000030300000000004040844
:101C3000081010202040000000384444444444442C
:101C40003800000000301010101010107C00000050
:101C500000384404081020447C000000003844048C
:101C60001804044438000000000C141424447E04BA
:101C70000E000000003C202038040444380000001E
:101C8000001C20407844444438000000007C440498
:101C90000808081010000000003844443844444448
:101CA0003800000000384444443C04087000000040
:101CB000000000303000003030000000000000184C
:101CC000180000183020000000000C106080601028
:101CD0000C000000000000007C007C000000000000
:101CE0000000C02018041820C000000000001824C4
:101CF00004081000300000003844444C54544C4058
:101D0000443800000030102828287C44EE000000F1
:101D100000F8444478444444F8000000003C444047
:101D2000404040443800000000F0484444444448E7
:101D3000F000000000FC445070504044FC000000E3
:101D4000007E22283828202070000000003C4440FB
:101D5000404E44443800000000EE44447C44444477
:101D6000EE000000007C1010101010107C0000002D
:101D7000003C0808084848483000000000EE44488D
:101D800050704844E60000000070202020202424E9
:101D90007C00000000EE6C6C54544444EE000000E3
:101DA00000EE64645454544CEC0000000038444489
:101DB000444444443800000000782424243820207F
:101DC000700000000038444444444444381C00007F
:101DD00000F8444444784844E200000000344C4099
:101DE000380404645800000000FE92101010101017
:101DF0003800000000EE44444444444438000000ED
:101E000000EE4444282828101000000000EE44444E
:101E1000545454542800000000C64428101028448C
:101E2000C600000000EE4428281010103800000002
:101E3000007C4408101020447C0000000038202062
:101E400020202020202038000040202020101008D2
:101E500008080000003808080808080808083800C2
:101E600000101028440000000000000000000000E6
:101E700000000000000000FE00100800000000004C
:101E80000000000000000038443C44443E000000D4
:101E900000C0405864444444F80000000000003C86
:101EA0004440404438000000000C04344C44444496
:101EB0003E00000000000038447C40403C00000030
:101EC000001C207C202020207C0000000000003628
:101ED0004C4444443C04380000C0405864444444EA
:101EE000EE00000000100070101010107C000000C8
:101EF00000100078080808080808700000C0405C5E
:101F000048705048DC000000003010101010101015
:101F10007C000000000000E854545454FE0000000F
:101F2000000000D864444444EE0000000000003883
:101F30004444444438000000000000D86444444451
:101F40007840E000000000364C4444443C040E005D
:101F50000000006C302020207C0000000000003CCD
:101F600044380444780000000000207C2020202217
:101F70001C000000000000CC4444444C360000002B
:101F8000000000EE4444282810000000000000EE8D
:101F90004454545428000000000000CC483030481D
:101FA000CC000000000000EE442428181010780037
:101FB0000000007C481020447C0000000008101045
:101FC0001010201010100800001010101010101029
:101FD0001010000000201010101008101010200029
:101FE0000000000000245800000000000000000075
:101FF00000000000202020200020000050500000A1
:10200000000000002850F850F850A0002030603048
:1020100010602000202018601010000000382060A0
:102020005078000020202000000000001020202018
:102030002020100040202020202040002070205030
:1020400000000000002020F8202000000000000018
:1020500010202000000000700000000000000000C0
:1020600000200000102020204040800020505050D0
:10207000502000006020202020F800002050202068
:102080004070000020501020106000001030507888
:102090001038000070406010502000003040605048
:1020A0005060000070501020202000002050205070
:1020B0005020000030505030106000000000200020
:1020C000002000000000100010200000001020C0C0
:1020D0002010000000700070000000000040201878
:1020E00020400000205010200020000030484858B8
:1020F000484038006020507088D80000F048704890
:1021000048F000007050404040300000F04848481F
:1021100048F00000F848604048F80000F848604087
:1021200040E000007040405850300000E8487848D7
:1021300048E8000070202020207000003810105067
:1021400050200000D850607050D80000E04040405F
:1021500048F80000D8D8D8A888D80000D8686858AF
:1021600058E800003048484848300000F0484870BF
:1021700040E000003048484848301800F0484870B7
:1021800048E800007050201050700000F8A820208F
:1021900020700000D848484848300000D88848508F
:1021A00050300000D888A8A8A8500000D85020209F
:1021B00050D80000D88850202070000078481020A7
:1021C000487800003020202020203000804040202F
:1021D00020201000602020202020600020205000BF
:1021E0000000000000000000000000F820100000C7
:1021F000000000000000301070780000C0407048FF
:1022000048F0000000007040407000001808384896
:10221000483800000000707040300000102070202E
:10222000207000000000384848380830C04070482E
:1022300048E800002000602020700000200070109E
:1022400010101070C040587050D80000602020203E
:10225000207000000000D0A8A8A800000000F048EE
:1022600048C8000000003048483000000000F04836
:10227000487040E0000038484838081800007820CE
:102280002070000000003020106000000040F0408E
:10229000483000000000D848483800000000C84816
:1022A000303000000000D8A8A850000000004830DE
:1022B000304800000000D8505020206000007850C6
:1022C00028780000102020602020100020202020EE
:1022D0002020200040202030202040000000002846
:1022E0005000000003E00B780370491C401C1300F1
:1022F0005A1E002BF7D17047130000D1704780B5EC
:102300000A00190001F0F6FA01BDF1B50020002223
:102310000023B54C0C255D4365192F68002F17D09D
:10232000BC468027BF00009EF659B44511D16F68A6
:10233000BC468027BF00009EF619B668B44508D198
:102340002D893E46009FBE19F688B54201D103E0B3
:1023500001225B1C0C2BDDD30C2B05D1002A0ED1E6
:1023600002290CD01220F2BD002907D10C214B43C9
:10237000E118498980225200914200D11020F2BD1B
:10238000F2B501000022002080239B00C9180B68D1
:10239000954C8F680C25454365192E689E4206D1E1
:1023A0006E68BE4203D12D89CE88B54202D0401C52
:1023B0000C28EFD30C2813D100200C254543655978
:1023C000002D02D0401C0C28F7D30C2811D00C256E
:1023D000454365192B608B686B60C98829816A81C8
:1023E0000C21414361184A89009B002B06D0002A2A
:1023F00001D00020F2BD8022520000E0521C4A8130
:10240000401CF2BD401E0C2813D20C2148437649D3
:1024100009184A89002080235B009A4201D0002AD3
:1024200001D1488103E0521E4A81120402D10860A2
:1024300070470220704710B5002100220C2353433F
:10244000694CE3181C68844200D11960521C0C2AA4
:10245000F4D310BDF8B506009B483718F87800286B
:1024600027D08620800030184469012322003100E3
:10247000387801F08DFA002801D00120F2BDF87003
:102480008620800030188068201A862189007158C3
:1024900088420ED2BD780AE0862080003058241889
:1024A000012322003100387801F072FA6D1E022DEE
:1024B000F2D20020F2BD70B505000C008B20800028
:1024C0002E183068844210D02800FFF7C3FF002880
:1024D00008D1012322002900C148285C01F04CFAF0
:1024E000002801D0012070BD3460002070BDF8B517
:1024F0000400FFF7AFFF050063D173482718401EA3
:10250000205C032855D1B74826183078012850D1CF
:102510008022920000212000FFF7EEFE5520FF21CF
:1025200049006054AA20491C6054522020706070F9
:102530006120A0704121E1707222F2235B00E2541D
:102540005B1CE2545A1CA154511C6054842080002E
:1025500020180168921CA15401680904090E521C3C
:10256000A1540168090C521CA1540068000E511CB2
:1025700060548320800020180168921CA1540168D7
:102580000904090E521CA1540168090C521CA154E3
:102590000068000E511C6054872080002258521C95
:1025A0001030225001232100387801F0F1F9002089
:1025B000307000220021387801F0F6F9002800D0B0
:1025C00001252800F2BD891E852292008218136819
:1025D0009B1E994201D300207047A24BC05C41432F
:1025E0005069081870470000040C0020F1B582B053
:1025F0000C00022C07D3802080000299081800905C
:102600004069844201D30120FEBD974D00980078B7
:10261000012804D055D3032839D026D351E06008CF
:1026200027180098006A790A41180298FFF743FFBB
:10263000002846D12800384002990E5C7F1C009883
:10264000006A790A41180298FFF735FF002838D14F
:102650003D400298405D000230430600E00701D58E
:102660003009FEBD3005000DFEBD0098006A210A4C
:1026700041180298FFF71FFF002822D16000054093
:10268000029841194878000209780843FEBD009875
:10269000006AE10941180298FFF70DFF002810D1E8
:1026A000A000054002984119C87800068A781204F3
:1026B00002434878000210430978014308010009E9
:1026C000FEBD0020C043FEBD01020000F0B583B096
:1026D00007000E0014000220022E00D27FE001024B
:1026E000791849698E427AD25F4D0102795C0129DD
:1026F00004D070D3032953D040D36CE07008301855
:102700000090681C3818006A0099490A411838007E
:10271000FFF7D1FE00285ED1009828403A18F00754
:10272000C00F01900F26002804D0117831402001FD
:10273000084300E0200010700098401C0090012029
:1027400041027918087140023818006A0099490A54
:1027500041183800FFF7AFFE00283CD100990D402A
:102760007A190199002901D0260905E01178F02392
:102770000B40210A0E401E4316702CE00002381850
:10278000006A310A41183800FFF795FE002822D16F
:1027900071000D407A1914702104090E51701AE06D
:1027A00000023818006AF10941183800FFF783FE6B
:1027B000002810D1B1000D407A19D1780906090F0F
:1027C000090721430C0011700904090E5170210CF6
:1027D0009170210ED17001214A02BA181171FEBD0B
:1027E0000102000005020000F1B582B00C00022CCD
:1027F00013D3842080000299081800904068844216
:102800000BD2002559480818019021000298FFF7C3
:10281000EDFE070024D0012F01D1022520E0012682
:102820000020C043874201D1012519E00022210088
:102830000298FFF74BFF050012D1009800680021B5
:10284000C943884207D0401C00990860019800786D
:102850000643019806703C00009840688442D4D337
:102860002800FEBD02020000FF010000F2B50700D3
:10287000012600290AD1832080003D58002D03D075
:102880003818806885420ED301250CE0FFF7AEFEB4
:10289000022801D20120F2BD8321890079188968BC
:1028A000884247D3009D2C00641C83208000381888
:1028B0008068844202D30224022D32D321003800E2
:1028C000FFF794FE002824D18E4A21003800FFF73C
:1028D000FDFE002807D10098002806D022000146FE
:1028E0003800FFF7F3FE00281DD1832080003C5004
:1028F000381840680021C94388421AD0401E8321FD
:102900008900791848601948381801780E43067014
:102910000FE00021C94388420CD001280AD0AC4204
:10292000C2D10020F2BD012802D10024E44300E01E
:1029300001242000F2BD10B5802292008218546A52
:10294000241D480A70491268515C01F03DF801E00D
:10295000401A241D2168241D002901D1002010BD2A
:102960008842F5D22168401810BD00000502000021
:1029700070B50C00802189004518EC80A9680129F8
:102980002ED0802080002A6810184269914227D2F8
:10299000002903D10178032902D1416A002906D117
:1029A0000021E96001898C421AD2406A1DE08078DA
:1029B000060100E0A41B2868A4B2B44212D3FFF7BA
:1029C00015FE01000020C043814201D1012070BDED
:1029D000022905D3852080002A6810588142E9D356
:1029E000022070BDE960FFF7EEFD21094018286163
:1029F0002007C00D296808186861002070BDF8B56F
:102A00000E00802189004418E7887F1CBFB2002F88
:102A100026D02069002823D039076BD1401C2061C3
:102A2000206839494218E168002903D1D0888742DB
:102A300060DB15E03B091278521E1A405AD1FFF7AD
:102A4000D5FD0500022D16D30020C043854243D09A
:102A500020688521890041588D4245D3002E01D13F
:102A60000420F2BDE168FFF701FF050001D1072056
:102A7000F2BD012D01D10220F2BD0020C0438542EC
:102A80002AD02068FFF7E6FC002825D1802292009A
:102A900000212068FFF730FC29002068FFF793FD34
:102AA0008B21890022685050002607E08B2080008F
:102AB000216808180168491C0160761C20681249C9
:102AC00041180A78F6B2964208D201208870206830
:102AD000FFF7C0FC0028E9D00120F2BD8B2189005E
:102AE00040180168891B0160E56029002068FFF734
:102AF0006AFD2061E7803807C00D21680818606111
:102B00000020F2BDFFFFFF0F020200000200C87E9E
:102B100000028B7E184380239B00D25C032A06D1DF
:102B20000200487D0002097D0843000410437047FD
:102B300081760A04120EC276090C0175090A4175E4
:102B40007047F2B507000420C1017E1800253169E5
:102B5000002921D03068FFF7AEFC00281CD1726933
:102B60001178002901D1042018E0D27A9206920E41
:102B7000E5290BD02E2909D00F2A07D0082A01D128
:102B8000012100E00021009A914208D00021380084
:102B9000FFF735FF0028DAD0002800D03561E6BD08
:102BA0007CB504000021FFF7E3FE80218900661850
:102BB000002817D1002531693068FFF77CFC002818
:102BC00010D171690978E52903D0002901D00025C9
:102BD00002E06D1C012D08D001212000FFF70FFF3E
:102BE0000028E8D0042800D10720040014D131695E
:102BF0003068FFF760FC04000ED1202200217069CC
:102C0000FFF77AFB0B22B1697069FFF76BFB0120BC
:102C10008121890032685054E0B276BD7AB584B023
:102C2000096801E00199491C0191019909782F294E
:102C3000F8D05C29F6D086218900405800900B22FC
:102C40002021FFF759FB002300210020082204E087
:102C5000082A4BD108210B22029B019C245C401CBA
:102C60009D00EDB202950325212C03DB2F2C01D012
:102C70005C2C07D1019E3018049E3060212C32DA82
:102C8000042431E02E2CE3D091422FD2802C07DB9C
:102C90001E0003233343DBB223A52C19803C247888
:102CA000039400BF40A500E06D1C2E78002E01D0DB
:102CB000A642F9D1002E19D12500413D1A2D04D28A
:102CC0001D0002232B43DBB209E02500613D1A2DD4
:102CD00005D21D0001232B43DBB2203CE4B2009D52
:102CE0006C54491CB9E70024002901D1062019E0E1
:102CF00000980078E52802D1052000990870082A7C
:102D000000D1029B1D40012D02D12000102404435C
:102D10000C201840042802D1200008240443009805
:102D2000C472002006B070BD80818283848586874E
:102D300088898A8B8C8D8E8F90919293949596979B
:102D40009899AD9B8C9DAE9FA021A2A3A4A5A6A7F8
:102D5000A8A9AAABACADAEAFB0B1B2B3B4B5B6B77B
:102D6000B8B9BABBBCBDBEBFC0C1C2C3C4C5C6C76B
:102D7000C8C9CACBCCCDCECFD0D1D2D3D4D5D6D75B
:102D8000D8D9DADBDCDDDEDFC0C1C2C3C4C5C6C74B
:102D9000C8C9CACBCCCDCECFD0D1D2D3D4D5D6F71B
:102DA000D8D9DADBDCDDDE9F222A2B2C3A3B3C3DF6
:102DB0003E3F5B5D7C7F000070B50A0009328423D2
:102DC0009B00C31800201C68002C28D05B680024DE
:102DD0001D5D641C202D09D0052D00D1E525092C91
:102DE00002D12E261670521C1570521C0B2CEFD3DC
:102DF000DC7A0C72DC7F24069D7F2D0425435C7FEA
:102E000024022C431D7F25430D605C7E24021D7E21
:102E10002C438C80DC7D24029B7D1C43CC80107075
:102E200070BD01000022D24310000B68002B00D1BE
:102E3000704710B518783038092808D25C783A2CD9
:102E400005D19B1C0B60012802DB100010BD002087
:102E500010BDF3B581B008782F2801D05C2801D1CE
:102E6000481C02908020800001990C180020A0606E
:102E70000298007820280AD200210198FFF778FDF7
:102E800000216161FEBD2068FFF740FEA06002A93D
:102E90000198FFF7C3FE00283CD100210198FFF7FD
:102EA00067FD0425002824D121692068FFF703FB72
:102EB00000281ED161690A78002A01D1042018E097
:102EC000CA7A12070FD40B23A26900261F007B1EAB
:102ED000002F06D00E781778F61B521C491C002EC6
:102EE000F4D0002E05D000210198FFF788FD0028BE
:102EF000DAD0A169C97A0D40002804D0042809D18C
:102F0000002D07D105E0002D04D16169C87AC00603
:102F1000B9D40520FEBD38B50400FF2040002518B7
:102F20000020A871C0438B229200A0502000FFF720
:102F3000C2FA002801D0032032BD68780002297847
:102F400008430E49884201D0022032BD36340C4875
:102F5000A1780904627812020A4321781143814260
:102F600008D0A17F0904627F12020A43217F114326
:102F7000814201D1002032BD012032BD55AA00009E
:102F800046415400F0B587B0060008001700002144
:102F90003160FFF746FF050001D50B2094E1A80042
:102FA0007A4908184468002C01D10C208CE1346067
:102FB0000426F001205C00280AD0C448205C00F000
:102FC000D3FCC10704D4002F01D0304210D17AE1E4
:102FD0000020F1016054481C2554205C00F0B4FC32
:102FE000C10701D503206FE1002F03D0304201D08B
:102FF0000A2069E10020009000212000FFF78BFFEC
:103000000500012D2CD10020DF2149000201A2186A
:1030100051180A79002A0AD0CA7A12068B7A1B0440
:1030200013434A7A12021A43097A114300E000213D
:10303000820003AB9950401C0428E5D30026B00061
:1030400003A908580090002804D001462000FFF78B
:1030500062FF00E00220050002D0761C042EEED3B1
:10306000032D01D101202FE1002D35D1207B00025D
:10307000E17A08438021890088422DD1E07D060253
:10308000A07D06430DD12720205C00062621615C2F
:10309000090401432520205C000208432421665CCA
:1030A0000643862080002650207CB04960540128C9
:1030B00001D0022810D14643617BAD48215400293C
:1030C00023D0481E014207D1A07C0702607C074341
:1030D000822080002752380775D1207D0002E27CD3
:1030E00010430DD12320205C02062220205C000426
:1030F00010432122A25C120202432020205C1043D4
:10310000E27B1202A37B1A4302925CD092193B0924
:10311000D2180192904256D3801A00F055FC002834
:1031200051D001210125934A904200D30225924AB1
:10313000904200D3032585229200A218801C1060C3
:10314000009887239B00E0500098029BC0188823BA
:103150009B00E0500098019BC0188A239B00E05020
:10316000032D15D1002F2ED12F20205C00062E21FB
:10317000615C090401432D20205C03020B432C20D9
:10318000205C18431168890012E000BF180D002070
:10319000002F18D088208000205880191268022D36
:1031A00001D1510004E053009B185B0811405918ED
:1031B00089229200A050862080002058253A891844
:1031C000490A884201D20D207EE00020C0438421BC
:1031D00089006050091F67183860684826188020E9
:1031E0003070032D62D13120205C00023021615CFF
:1031F000084301285AD10099491C2000FFF75BF9C8
:10320000002853D130705E48205C0002FF21490045
:10321000615C08435B49884248D1E0780006A178A8
:1032200009040143607800020843217801435648AD
:1032300081423BD1FF20E830205C0006F3214900A9
:10324000615C09040143FF20E630205C0002084372
:10325000F2214900615C01434C48814226D1FF20A4
:10326000EC30205C0006F5214900615C0904014353
:10327000FF20EA30205C00020843F4214900615C31
:1032800001438420800021502138205C0006F72172
:103290004900615C09040143FF20EE30205C00021C
:1032A0000843F6214900615C0143396080208000B9
:1032B0002554BD480088401CBB490880BB4960526A
:1032C0002000FFF7B8F8002007B0F0BD01020000B1
:1032D00080B500280FD0802189004018016800299E
:1032E00009D08022920089180A78002A03D0CA885F
:1032F0008088824201D0092002BD487800F034FB6A
:10330000C00701D5032002BD002002BDF3B581B086
:10331000140000916846FFF784FD002801D50B20BA
:10332000FEBD8000A0490D186F680026002F05D053
:103330003800FFF780F8802189007E54019800282A
:1033400001D16E600AE08020800001990E5401983E
:1033500068600198002801D0012C01D00020FEBD3A
:10336000002202A901A8FFF70DFEFEBD0302000026
:1033700002020000F60F0000F6FF00000502000048
:10338000FF01000055AA0000525261417272416172
:10339000F3B5FFB08EB01400002801D1092000E180
:1033A0000020802189008D9A5050E406E40E04AF7D
:1033B000FE2222408EA9802080003818FFF7E2FD0F
:1033C000050074D101A88621890078508E9904A83F
:1033D000FFF73FFD0500852080003E58002D0CD1F1
:1033E000002E01D1062508E0FE202040010000D07B
:1033F000012104A8FEF789FF050004201C210C42CE
:1034000000D181E0002D77D0042D11D10020684932
:103410000C2242438A58002A02D0401C0C28F7D3C1
:103420000C2801D1122002E004A8FFF7B9FB050027
:10343000200008240443852080003E58002D35D10B
:1034400020073AD500F0BEFA0700B0730004000E62
:10345000F073380C3074380E70740020F0723077CE
:103460007077B077F07731008498FFF74FFB0090CA
:1034700000213000FFF75CFB012081218900849A44
:1034800050540098002813D0849828314758009948
:10349000FFF7AAF9050009D184980099491E8322F3
:1034A000920081503900FFF706F80500002D77D112
:1034B000200702D52000202404438B20800084991B
:1034C0000858802189008D9A5118C8618020800099
:1034D0008D9908180662FE202040010000D00121CD
:1034E00004A8FEF74DFF802189008D9A511888624B
:1034F000002816D1022553E0F17A112211420ED193
:1035000004429DD008254BE0002DCFD1F17ACA06A8
:1035100001D5042544E0A007CAD5C807C8D50725AA
:103520003EE0802080008D99081884710020802161
:1035300089008D9A5118C871849C31002000FFF7D2
:10354000E5FA802189008D9A51180861F07F000604
:10355000B17F09040143707F00020843317F0143BA
:10356000802080008D9A1018C16000208021890081
:103570008D9A51188860802189008D9A5118886130
:10358000802189008D9A51184862802080008D9991
:103590000C50801D205A802189008D9A51188880F6
:1035A00028007FB010B0F0BD180D0020060200000A
:1035B000040C0020F9B585B0160001910020069991
:1035C00008600598FFF784FE00280AD1802080005B
:1035D00005990D18E879002803D1A879C00701D40E
:1035E0000720A3E0E868A968401AB0421CD806008A
:1035F0001AE0AC61A868C005C00D391A34008E42CB
:1036000000D90C002200059909180198FEF76AFEFE
:10361000019800190190A8680019A8600698006830
:10362000001906990860361B002E00D17DE0A968BC
:103630008027BF00C805DDD128684A0ABB1CC35CCF
:103640005B1E1340DBB2002B029314D1002901D181
:10365000286909E06A6A002A03D00598FFF76BF928
:1036600002E06969FEF7C2FF02280AD30021C943BC
:10367000884257D0686169692868FEF7A4FF040092
:1036800001D102204FE002982418700A009028D03F
:10369000781C29680818039040780299009A8918C4
:1036A000884202D20299401A0090009BDBB22200AD
:1036B00001990398007800F05FF9002832D1A879C9
:1036C00040060BD5A869001B0099884206D23A0033
:1036D00005994002019B1818FEF704FE0098440269
:1036E00096E7AA69A24284D0A87940060ED50123A4
:1036F00005998C46791C2868405C614600F048F9C1
:1037000000280FD1A879BF210140A971012322000F
:1037100005998C46791C2868405C614600F02CF9BC
:103720000028E0D00120E87100E0002007B0F0BDE3
:1037300070B50500FFF7CCFD00284BD18021890032
:103740006C18A1792026314244D048060FD50123B8
:10375000A26929002B482568285C00F019F9002887
:1037600001D0012070BDA079BF210140A171E169A4
:103770002068FEF7A0FE00282CD1256AE87A0643CF
:10378000EE72E0682877E0680004000E6877E06871
:10379000000CA877E068000EE87721692800FFF7A1
:1037A000C7F900F00FF9A8750104090EE975010CBD
:1037B0002976000E68760020A874E874A079DF21CD
:1037C0000140A171012081218900226850542068A4
:1037D000FEF78DFE70BD10B50400FFF7A9FF0028AD
:1037E0000ED12000FFF774FD002809D18020800051
:1037F0002418A06AFEF706FE002801D100212160EE
:1038000010BD000001020000F2B584B0070001D134
:1038100009203FE0002204A96846FFF7B3FB04003B
:10382000802080003E180025002C2FD100983060A9
:1038300001A8B06104993800FFF70BFB040021D107
:103840007169002906D0C87AC0061DD50098FFF717
:103850005DF9B06026480099085AB0800021380010
:10386000FFF786F804000DD1B068002801D1F5619A
:103870000FE000213800FEF783FDF061002808D139
:10388000122405E0042C01D1052401E0002C00D015
:103890003560200005B0F0BDFEB504000E00FFF756
:1038A00017FD002822D1002E04D100212000FFF7AF
:1038B0005FF8FEBD8420800027186846B8600021AC
:1038C0002000FFF73EF90025042801D13D6001E00A
:1038D00000280BD131002000FFF76EFA00212000F4
:1038E000FFF78DF8042801D13D600020FEBD0000E7
:1038F000060200001206130A1A43130C1A4300BFF3
:10390000094205D0830705D00270401C491EF9D139
:1039100070470000130030B414001500103902D3B2
:1039200010393CC0FCD2490700D30CC000D504C0FC
:10393000890002D30280801C002900D5027030BCAF
:10394000704700000022E5E710B5010000201C4A86
:1039500053181C78002C06D101201870880010180C
:1039600040680068804710BD80B580001449081881
:1039700040684068804702BD10B50400080011008F
:103980001A00A3000E4CE3185B689B68984710BDB3
:1039900010B50400080011001A00A300084CE31839
:1039A0005B68DB68984710BD80B503000800110014
:1039B0009A00034B9A1852681269904702BD0000A2
:1039C0000C0D0020002070470022030A8B420BD20E
:1039D00003098B4219D243088B422ED2411A00D2DE
:1039E0000146524110467047FF2209023FD012069D
:1039F0008B4205D3121209028B4201D31212090223
:103A000003098B4219D300E0090AC3098B4201D391
:103A1000CB01C01A524183098B4201D38B01C01ADA
:103A2000524143098B4201D34B01C01A5241030951
:103A30008B4201D30B01C01A5241C3088B4201D300
:103A4000CB00C01A524183088B4201D38B00C01AAD
:103A5000524143088B4201D34B00C01A5241884265
:103A600000D3401A5241CFD201461046704708B5E4
:103A700000F016F808BD38B4012100220368001DCB
:103A8000002B0BD00468001D0C4202D04D466D1E69
:103A900064192260241D1B1FF0D0FAE732BC704766
:103AA00070470268531C036011707047E022520097
:103AB00080180268914203D34368D218914202D31E
:103AC00080680028F5D170471848016800290ED198
:103AD000802149028160090941600021C943C16018
:103AE000016104214161124A116012490160012003
:103AF000704738B407230C0008341C4201D100235E
:103B000004E008240D000835641B2340C918D21AAC
:103B10008161C260012313434B60282389184B60E5
:103B200002490969C16131BC70470000F40C0020F2
:103B3000E80B00206859883CF1B586B007200C00DE
:103B40000834044201D1002404E008240D000835A3
:103B5000641B04400919029111000831014201D18E
:103B6000002004E0082114000834091B0840101844
:103B700000900298C71800980299411ACC1A03269F
:103B8000334302994B60874201D301F02DF80125A0
:103B900000984068284001D101F026F8102C01D28D
:103BA00001F022F8009806998969884209D106989F
:103BB000C06800190699C86006998F6105437D6049
:103BC0008EE10699496988420AD1069880680019F1
:103BD0000699886006994F6105437D6038507FE102
:103BE00040680640012E00D0D7E0072188430490AA
:103BF000C00820284AD200998E68C96801910390B4
:103C000000980199884201D100F0EEFF0098B0427F
:103C100001D100F0E9FF009840680721884303992B
:103C2000C900884201D000F0DFFF0398C000069968
:103C30000818010028318E4209D0069909698E4280
:103C400000D2A2E0F168009A914200D09DE0019973
:103C5000B14208D106980168039A0120904081433F
:103C60000698016093E0283081420AD00846069900
:103C70000969884200D288E080680099884200D0B3
:103C800083E00198F0600198866080E00098806988
:103C900001900098C66886420ED08068069909692E
:103CA000884226D3C168009A914222D1B1689142DC
:103CB0001FD1C660B0601EE014300668002E07D128
:103CC000009810300668002E15D001E00800066844
:103CD000310014310A68002AF8D1310010310A6825
:103CE000002AF3D106990969884202D300210160B4
:103CF00001E000F079FF0198002848D098204000AA
:103D00000099C9698900069A511808180099026833
:103D100091420CD10660002E19D106984168009896
:103D2000C269012090408143069841602FE00198CC
:103D300006990969884208D3006900998842019868
:103D400001D1066103E0466101E000F04DFF002E65
:103D50001DD006980069864217D30199B161009978
:103D60000969002906D0814202D331618E6101E0E8
:103D700000F03AFF00984069002808D006990969C8
:103D8000884202D37061866101E000F02DFF049843
:103D90000099081800900498241800984068A843D7
:103DA000009948600120204378603C51E0082028B9
:103DB00027D20090C00006990818283001900646C6
:103DC000102C01D200F010FF069800680099020044
:103DD000CA402A4004D18D4005430698056009E099
:103DE0000198806806990969884201D3060001E0BC
:103DF00000F0FAFE01988760F760BE600198F860F5
:103E00006EE0200A01D1002223E02904884201D378
:103E10001F221EE0FF21C9434118090C082211404E
:103E20008840314A8218120C04231A4090402F4BCC
:103E3000C3181B0C022633400E26711A891AC91AA0
:103E40009840C00B08184100C01D2200C2402A4003
:103E50008A18982040009100069B59180918FA61A9
:103E6000002078613861069B5B681E00D6402E40BA
:103E700005D195401D43069845600F601DE0096817
:103E80001F2A01D1002302E0192352089B1A2200A5
:103E90009A4000E029004B680725AB43A34210D0AD
:103EA000D30F9B00CB18103352001D68002DF1D1A9
:103EB00006980069834211D31F60B961FF60BF603B
:103EC0000EE08A68069B1B69994207D39A4205D384
:103ED000D7608F60BA60F960B86101E000F084FEDD
:103EE0000298083007B0F0BD00F0FFFF00C0FFFFF0
:103EF000F2B586B0040089480068002801D1FFF7B8
:103F0000E3FD86488168069840182F30491E884393
:103F10000699814200D3CDE1DC2149006158002996
:103F20000AD0D8225200A21812681018824200D378
:103F3000C0E1814200D2BDE100F05CFE002800D16A
:103F4000B8E1009005680021C943884200D1B1E181
:103F5000D82040002218106840191060DA2149006A
:103F600061180A68824200D202000A60A069002833
:103F700035D12069002802D00099814201D20098F1
:103F800020610098E02149006050E2204000255067
:103F90000026083026506148006860620020C04357
:103FA000206220002830C060010008310860C9602C
:103FB0008960B61C1030202EF5D3C048844203D14E
:103FC000283D2A00009927E0201F00680721884328
:103FD0002118083900984019421A283A1CE0E020BC
:103FE0004000201800E08068002819D0009942683D
:103FF00003689A189142F6D1017B090710D4A16990
:104000001A4691420CD34368D218914208D25919EA
:104010004160E0684219A1692000FFF76AFD35E1BF
:1040200000982169884200D22061E02040002018D9
:104030000099491900E08068002810D002688A427F
:10404000F9D1017B09070AD4009901604168491937
:104050004160069B00992000FFF76EFD2BE1A769E8
:1040600039002000FFF722FD4168006840180590E4
:104070002F38002601000831490701D1002105E051
:10408000082102000832891A4907490F40183900EF
:104090001031884201D2019700E001900198083068
:1040A000049001981830039002962800283800994F
:1040B0000831490701D1002205E00821009A0832A1
:1040C000891A4A07520F00998918801AA161E06085
:1040D000012202434A602822081842600F48006902
:1040E000E0610498400701D000F07EFD1B2001999B
:1040F00048600498E02149006118102200F090FD0A
:104100000098E02149006050E2204000255008302E
:104110002650049808316050059802E0F40C002005
:1041200003910399091D0722039B5A60029A521CAE
:1041300002920A1D8242F3D30298022801DA00F0AB
:1041400053FD0198B84200D1A0E0C11B4268012391
:104150009A43426001220A437A600160C80820281D
:1041600021D20090C000261828363500102901D22F
:1041700000F03AFD206800990200CA40D10705D43A
:104180000121009A91400143216007E0B068216954
:10419000884201D3050001E000F026FDB760EF6022
:1041A000BD60FE6072E0080A01D1002228E01A0416
:1041B000904201D31F2223E0FF22D2438218120C27
:1041C00008231A40009290403D4A8218120C0423A2
:1041D0001A4090403B4BC3181B0C02252B40019307
:1041E0000E23009D5B1B9A1A019BD21A9840C00BAC
:1041F00010184200C01D0B00C340D807C00F121892
:10420000982040009300E31818180090FA617E612E
:104210003E6160680300D340DB0707D40121914071
:10422000014361600098076000981DE000980068F5
:104230001F2A01D1002302E0192352089B1A0A0009
:104240009A4000E0280043680725AB438B420FD01B
:10425000D30F9B00C318103352001D68002DF1D1FD
:1042600021698B4210D31F60B861FF60BF600DE011
:1042700081682269904207D3914205D3CF6087605D
:10428000B960F860BE6101E000F0AEFCE06806993C
:1042900081420FD2411AE160A069069A8218A26198
:1042A00001220A43A1694A60069903220A43426037
:1042B000083000E0002007B0F0BD00002C0A00200C
:1042C00000F0FFFF00C0FFFFF2B584B00400002043
:1042D000009004984542000A25D080214902884276
:1042E00001D31F201FE0FF21C9434118090C0822F8
:1042F00011408840B34A8218120C04231A4090409F
:104300000E4BC3181B0C022633400E26711A891A55
:10431000C91A9840C00B08184100049AC01DC24039
:10432000D007C00F0818982149008200A2185158E0
:10433000002929D01F2803D1002304E000C0FFFF7B
:1043400019224308D31A049A9A40002300E052002D
:104350004E680727BE43049FF61BAE4202D200916F
:1043600035000CD04E69D70FBF00C9190969002E5E
:1043700002D08E4200D033000029E8D11900002974
:104380003FD1009900293ED10121012282405000F5
:104390004342034362681A4000D177E15042104023
:1043A000401E020B10231A40D04043090826334018
:1043B000D840860804273E400296F040460802276F
:1043C0003E400196F0404608314098267600D218CB
:1043D000029BD218019BD2185218C84010188000B6
:1043E000201881590DE00100486807229043049A83
:1043F000801AA84201D20500009108690028F2D174
:1044000049690029F0D10098002800D13EE1A06858
:104410000499401A854200D338E1009E2069864203
:1044200000D231E17718681802900098406807219F
:1044300088430299884201D000F0D6FBBE4200D3E7
:1044400022E10098806901900098C66886420DD0EC
:1044500080682169884225D3C168009A914221D1A0
:10446000B16891421ED1C660B0601DE0143006688C
:10447000002E07D1009810300668002E14D001E0FD
:1044800008000668310014310A68002AF8D13100AA
:1044900010310A68002AF3D12169884202D3002131
:1044A000016001E000F0A0FB0198002843D09820B3
:1044B00040000099C96989006118081800990268CC
:1044C00091420AD10660002E16D160680121009A3F
:1044D000D2699140884360602DE00198216988424B
:1044E00008D3006900998842019801D1066103E070
:1044F000466101E000F078FB002E1CD02069864266
:1045000017D30198B06100980069002807D021698D
:10451000884202D33061866101E000F065FB0098BB
:104520004069002807D02169884202D37061866102
:1045300001E000F059FB03200121102D0AD2029A5C
:104540001043009A50600298009A10184268114374
:10455000416096E0049A1043009A5060012028437D
:1045600078607D51E808202819D2C200A6182836A4
:10457000350022681300C3400B4003D18140114332
:10458000216007E0B0682169884201D3050001E09D
:1045900000F02AFBB760EF60BD60FE6071E0280AA2
:1045A00001D100222AE00A04904201D31F2225E013
:1045B000FF22D2438218120C08231A400192904025
:1045C000004A01E000F0FFFF8218120C04231A4099
:1045D0009040304BC3181B0C0226334002930E232D
:1045E000019E9B1B9A1A029BD21A9840C00B10186E
:1045F0004200C01D2B00C3400B40D2189820400041
:104600009300E3181818FA6100237B613B6163682B
:104610001E00D6400E4004D19140194361600760EE
:104620001CE000681F2A01D1002202E01921520873
:104630008A1A2900914000E01000426807239A433B
:10464000AA420FD0CA0F92008318103349001A688B
:10465000002AF1D121698B4211D31F60B861FF603C
:10466000BF600EE081682269904208D3914206D370
:10467000CF608760B960F8600020B86101E000F0A9
:10468000B3FA0098083002E000F0AEFA002005B05E
:10469000F0BD000000C0FFFFF3B585B0416848429F
:1046A0000840401E010B10221140C8404209082357
:1046B0001A40D040830804242340D84045080224EF
:1046C0002540E84001244608264098277F008918A5
:1046D000C91849198919F040081880000599081867
:1046E000C0590700416807229143069A8D1A09E0D4
:1046F0000800416807229143069A891AA94201D20B
:104700000D00070001690029F2D140690028F0D1AD
:1047100005980069874200D2E1E0B8180490069835
:10472000281801907868072188430199884201D0B0
:1047300000F05AFA0498874200D3D0E0B86900909C
:10474000FE68BE420DD0B86805990969884226D333
:10475000C168B94223D1B168B94220D1C660B06006
:104760001FE0380014300668002E07D138001030E2
:104770000668002E15D001E00800066831001431EB
:104780000A68002AF8D1310010310A68002AF3D1F2
:1047900005990969884202D30021016001E000F017
:1047A00023FA0098002843D098204000F969890036
:1047B000059A5118081801688F420BD10660002E27
:1047C00016D105984168FA69012090408143059807
:1047D00041602DE000981169884207D30069B84212
:1047E000009801D1066103E0466101E000F0FCF9A8
:1047F000002E1DD005980069864217D30098B0613D
:104800003869002808D005990969884202D33061C7
:10481000866101E000F0E8F97869002808D0059980
:104820000969884202D37061866101E000F0DCF919
:104830000320102D08D20199084378600198381898
:1048400041680C43446047E00699084378600120C2
:104850002843049948600498455105988068009061
:10486000C608202E01D300F0BFF9009800282ED0F2
:104870000598406903900196F000059908182830C2
:10488000029006460098102801D200F0ADF9059874
:10489000006801990200CA40224004D18C400443C0
:1048A0000598046009E002988068059909698842C2
:1048B00001D3060001E000F097F90398029988609F
:1048C0000398F0600398866002980399C860059881
:1048D00085600498059948610837380002E000F0C7
:1048E00083F9002007B0F0BDF0B587B00400C046E2
:1048F000C046BC4FF52C00D328E10B2C01D210246C
:1049000002E00B3407208443E008019038680199E5
:10491000C8400325284250D001260122824388182E
:104920000190C0003C182834A06800900198C00095
:10493000039000984068072188430399884201D07A
:1049400000F052F90098806802900098A04201D1CE
:1049500000F04AF900980299884201D100F044F928
:1049600000984068072188430399884201D000F0ED
:104970003BF90298844206D13968019A012090409F
:10498000814339600DE03969884208D3C0680099D5
:10499000884204D10298A0600298C46001E000F04F
:1049A00023F9039805430098456003980099081877
:1049B00041680E434660009D07E1B968A14200D3FB
:1049C000D7E0002800D1B7E00126019901228A40F2
:1049D0005100019A90404A420A430240514211401C
:1049E000491E080B10221040C1404A0908231A40F2
:1049F0000092D1408A0804231A400192D1404A080B
:104A000002231A400292D1404A083240009BC0184B
:104A1000019BC018029BC0188018D1404018039019
:104A2000C000381828300090806804900398C000B7
:104A3000029004984068072188430299884201D077
:104A400000F0D2F804988068019004980099884298
:104A500001D100F0C9F804980199884201D100F011
:104A6000C3F804984068072188430299884201D01E
:104A700000F0BAF800980199884206D13968039A83
:104A8000012090408143396010E00846396988422E
:104A90000AD3C0680499884206D1019800998860B9
:104AA00000980199C86001E000F09EF80298001B90
:104AB00003902543049845600498001905900398D5
:104AC0003043059948600398059A1050B8680190E2
:104AD000C408202C01D300F087F80198002825D0C5
:104AE000786902900094E0003D1828352C00019868
:104AF000102801D200F078F8386800990200CA4006
:104B0000324003D18E4006433E6007E0A868396911
:104B1000884201D3040001E000F066F80298A86022
:104B20000298E060029884600298C5600398B860BB
:104B300005987861049D48E07868002836D0210007
:104B40003800FFF7A9FD050013D045E03F20C04322
:104B5000844202D30024E4430BE00B340720844357
:104B60007868002805D021003800FFF7ADFB05006C
:104B700032D1BA68A24219D3111B786901260325E4
:104B8000102908D302197A61B9600E43566051505A
:104B90002543456008E00021B9607961154345600F
:104BA00081184A6816434E6005000EE0F86884429A
:104BB0000DD2001BF860BD692919B96101210143BB
:104BC000B8694160032020436860083504E0210093
:104BD0003800FFF78DF90500C046C046280007B031
:104BE000F0BD00002C0A002080B5012000F032F852
:104BF00001BDFEE707490868002801D00020704782
:104C0000054807229043086004499143091A01604E
:104C1000704700BF240D00208F150020881700204A
:104C200070B4103A03D378C9103A78C0FBD2530756
:104C300001D318C918C001D508C908C0D20704D3C8
:104C40000B880380891C801C002A01D50B78037017
:104C500070BC704701491820ABBEFBE7260002007C
:104C6000F0B593B000F06EFB8B4FF86880214905DA
:104C70000143F96089480168894A0A40C10C11431F
:104C800001600224059400250695012608960F94DC
:104C900010956004119000011290099505A800F08C
:104CA0008DFB002800D0FEE70F200090032001902C
:104CB0000295039504950121684600F059FD0028EE
:104CC00000D0FEE7386820433860009601950294D2
:104CD000744E6946300000F0ADFE734C0121300087
:104CE00000F066FF002823D000F08EFFAB2080008C
:104CF00021186E4801F0B4F8002816D101F0CCF864
:104D000000226BA120007C30FEF700FB002803D0BE
:104D1000032000F02DFA08E00B20FFF7E5FDA900C5
:104D2000611848606D1C192DF6D300F099F9FEE763
:104D300001F0CAFA0121002001F0ECFA257008E028
:104D4000002001F0DBFA642000F028FB2078002826
:104D500005D1002001F0D2FAFA204000F4E7012842
:104D6000EED00228FBD1002001F0C8FA3220EBE798
:104D700070B5504800F070FFF8242402200000F0C5
:104D800065FF00BF4DA1012000F0DDFF51A1022011
:104D900000F0D9FF1F2000F059FF00BF53A10420ED
:104DA00000F0D1FF57A1062000F0CDFF5BA1082045
:104DB00000F0C9FF002000F049FF00BF5DA10B20FB
:104DC00000F0C1FF60A10C2000F0BDFF01F066FC07
:104DD0000228FBD1002000F039FF3749042000F001
:104DE000B2FF00BF5DA1062000F0ADFF1F2000F064
:104DF0002DFF00BF5EA1082000F0A5FF61A10920E2
:104E000000F0A1FF64A10B2000F09DFF67A10C2022
:104E100000F099FF01F042FC0600022E01D0052EA1
:104E2000F8D1D54800F01BFF1F4D052E21D12000E1
:104E300000F00CFF62A1032000F085FF65A10520B2
:104E400000F081FF1F2000F001FF00BF66A10920D4
:104E500000F079FF69A10A2000F075FF6CA10B201A
:104E600000F071FF6FA10C2000F06DFF0220687050
:104E700070BD022E0FD1200000F0E8FE6EA10320CD
:104E800000F061FF71A1052000F05DFF0120687056
:104E9000C82000F083FA70BD2C1002400070004062
:104EA000FFE7FFFF0004005014010020D0000020A5
:104EB0002F000000000100205C5200082020204E3E
:104EC00055434C454F2D4C3035335238202020204F
:104ED000000000002020202020202044454D4F20AD
:104EE0002020202020202020000000004469737032
:104EF0006C617920696D6167657320202020202016
:104F00000000000073746F72656420756E646572D2
:104F10002075534420202020000000006F6E205494
:104F20004654204C434420202020202020202020B4
:104F30000000000020205072657373204A4F5920F2
:104F4000444F574E202020002020746F20636F6E46
:104F500074696E75652E2E2E202020002020507240
:104F6000657373204A6F79737469636B2020200026
:104F70002020555020666F723A20202020202020CB
:104F80002020200020204D616E75616C204D6F64E3
:104F900065202020202020002020444F574E2066EE
:104FA0006F723A20202020202020200020204175F0
:104FB000746F6D61746963204D6F646520202000FB
:104FC0002020204D616E75616C204D6F646520203E
:104FD000200000002020202053656C656374656408
:104FE000202020202000000052494748543A204EFB
:104FF00065787420696D6167650000004C45465412
:10500000203A2050726576696F7573202000000089
:1050100053454C20203A2053776974636820746F9D
:10502000200000006175746F6D61746963206D6F9D
:10503000646520202000000020204175746F6D61A0
:10504000746963204D6F64652020000020202020BB
:105050002053656C65637465642020202020000067
:10506000F0B5FFB08CB00020019001F0D4FAFFF74A
:105070007FFE76A4210002A8FEF7C6FB002806D01A
:105080000D2801D1002000E0022000F071F8704EE0
:10509000311D200001F0E2FB0090012474A700E024
:1050A000044601F0FBFA0500012D03D17078401C85
:1050B00070700025707801281DD1A0003258390089
:1050C0003000683001F016FC01A93000683001F0B2
:1050D000B9FB002806D1320068329F217F2001F001
:1050E00027FB03E0012801D100F042F8641C00987E
:1050F000A04200D2012470780228D2D1042D13D10D
:10510000641C0098A042CBD3A00032583900300074
:10511000683001F0EFFB01A93000683001F092FB2C
:10512000002816D001201DE0032DBAD1641E022CE8
:1051300001D2012418E0A000325839003000683054
:1051400001F0D8FB01A93000683001F07BFB00289A
:1051500006D1320068329F217F2001F0E9FA03E096
:10516000012801D100F004F80220707099E70000D6
:1051700038B50400004801E0FFFF000000F06FFDBB
:10518000344800F069FD344800F063FDF820000267
:1051900000F05CFD002C10D138A1052000F0D3FDFB
:1051A0003BA1062000F0CFFD3EA1072000F0CBFD83
:1051B00041A1082000F0C7FDFEE700BF27A5012C94
:1051C00011D12900052000F0BEFD00BF3FA106203F
:1051D00000F0B9FD42A1072000F0B5FD290008202C
:1051E00000F0B1FDFEE7022C11D12900052000F0EE
:1051F000AAFD00BF3FA1062000F0A5FD42A10720A7
:1052000000F0A1FD2900082000F09DFDFEE7032C21
:1052100011D12900052000F096FD00BF3FA1062016
:1052200000F091FD42A1072000F08DFD290008202B
:1052300000F089FDFEE731BD05480178022901D162
:10524000002100E0491C0170704700002F000000A1
:105250001401002000010020DEF7000020202020A3
:10526000202020202020202020202020202020005E
:10527000252D31312E3131730000000020534420A0
:1052800043617264206973206E6F742020202000B7
:105290002046415420666F726D61747465642E20DF
:1052A0002020200020506C6561736520466F726D70
:1052B0006174207468652000206D6963726F5344C7
:1052C00020636172642E2020202020002046696C1B
:1052D000652074797065206973206E6F74202000DA
:1052E00020737570706F727465642E2020202020EA
:1052F00020202000204F70656E2064697265637401
:105300006F72792020202000206661696C732E2046
:105310002020202020202020202020002043616EFB
:105320006E6F74206D6F756E742020202020200019
:10533000204661744673206F6E2044726976652E34
:105340002020200080B51B48016840220A430260EB
:10535000016802220A430260032000F005F800F011
:1053600002F8002002BD704710B5040000F038FBC1
:10537000FA218900FEF728FB01F0FEFA0022210045
:105380000020C04301F0EDFA002010BD0A4801687A
:10539000491C0160704708480068704711B581B02A
:1053A000FFF7F9FF0400FFF7F6FF001B01998842A1
:1053B000F9D313BD00200240200D0020F8B50400F1
:1053C000A24D2078C00716D58027BF02E8680C21BF
:1053D0000140082907D0E8680C2101400C295CD164
:1053E000E868C00359D52868074004D06068802168
:1053F0004902884236D104272078800719D5686889
:10540000AD4901402069000208436860E8680C214A
:105410000140042907D0E8680C2101400C2972D111
:10542000E868C0036FD42868384002D0E0680128DB
:1054300018D12078C00617D56868A0490140606A75
:105440000843686068680002000A216A090601438F
:105450006960E8680C2101407AD12868800503D58D
:10546000E069012800D070E12078000700D4A2E0B4
:1054700060690028286D00D18EE001210143296573
:10548000FFF789FF0600286D800700D593E0FFF73E
:1054900082FF801B6528F6D355E12868AD4901409D
:1054A0002960FFF778FF06002868384006D0FFF72C
:1054B00072FF801BA8498842F6D344E12868A549B9
:1054C00001406068084328606068790888420CD110
:1054D000FFF761FF0600286838408CD1FFF75BFFBB
:1054E000801B9D498842F6D32DE1FFF754FF06004B
:1054F0002868384000D17EE7FFF74DFF801B9649B2
:105500008842F5D31FE1E0680921C94300280FD084
:105510002A68114008432860FFF73DFF060028680D
:10552000384086D1FFF737FF801B6528F7D30AE1A3
:10553000286801402960FFF72EFF060028683840E0
:1055400000D176E7FFF727FF801B6528F6D3FAE046
:10555000E069002828680FD0A90D01432960FFF7F2
:105560001AFF06002868800500D57DE7FFF713FFC6
:10557000801B6528F6D3E6E0784901402960FFF7F3
:105580000AFF06002868800500D46DE7FFF703FFD7
:10559000801B6528F6D3D6E0012188432865FFF7F4
:1055A000FAFE0600286D800705D5FFF7F4FE801B84
:1055B0006528F7D3C7E0207880062ED56848A16912
:1055C0000029A96816D001220A43AA60696B01224A
:1055D0000A436A6301686A0C0A430260FFF7DBFE54
:1055E0000600A868800718D4FFF7D5FE801B652841
:1055F000F7D3A8E001229143A9600168594A0A4003
:105600000260FFF7C8FE0600A868800705D5FFF70F
:10561000C2FE801B6528F7D395E0206807404FD075
:10562000A86B802149050143A9634F4F3868A90D34
:1056300001433960FFF7AFFE06003868C00507D4A4
:10564000FFF7A9FE801B6428F7D37CE0001002401E
:10565000464F286D38402865FFF79DFE0600286DEF
:10566000800506D5FFF797FE801B3B498842F6D39D
:1056700069E0286D0740A06838432865A068A90D37
:1056800088420CD1FFF787FE0600286D800517D4ED
:10569000FFF781FE801B30498842F6D353E0FFF7C5
:1056A0007AFE0600286D80050AD5FFF774FE801B80
:1056B00029498842F6D346E0FFE0FFFFFF1FFFFFC6
:1056C000A06A002843D0E9680C220A400C2A3CD08A
:1056D0008027BF04A5490228286827D101402960F6
:1056E000FFF759FE06002868384005D0FFF753FE43
:1056F000801B6528F7D326E0E8689D490140206BB0
:105700000843616B0143E06A0843E8602868790850
:1057100001432960FFF73FFE06002868384016D194
:10572000FFF739FE801B6528F7D30CE001402960A4
:10573000FFF731FE06002868384008D0FFF72BFE3F
:10574000801B6528F7D30320F2BD0120F2BD0020A5
:10575000F2BD0000FFFFFAFF89130000FFFEFFFF0C
:1057600020000140FEDFFFFF00700040FFFAFFFF56
:10577000F3B581B00C27974C0320C043964DF02120
:10578000C9430222954B1E68F307DB0F029EB3420A
:1057900066D2924B1B680126B343029E1E438F4B79
:1057A0001E601E68F307DB0F029EB3421FD1019BF0
:1057B0001B681A4005D0EA681140019A92680A43B2
:1057C000EA6001990978C90700D4B2E001994968F3
:1057D000022902D12A68920308E0002902D12A682E
:1057E000920503E003292A6802D1920102D49EE0C7
:1057F0005207FCD5EA6810400143E960FFF7CBFD92
:10580000060001984068022809D1E8683840082855
:1058100015D0FFF7C0FD801BA042F6D377E0032828
:1058200009D1E86838400C2809D0FFF7B4FD801B87
:10583000A042F6D36BE0002808D1E868384078D061
:10584000FFF7A9FD801BA042F7D360E0E86838406D
:1058500004286ED0FFF79FFD801BA042F6D356E0D0
:10586000019B1B681A4005D0EA681140019A9268B2
:105870000A43EA6001990978C9074AD5019949683C
:10588000022902D12A68920308E0002902D12A687D
:10589000920503E003292A6802D1920102D446E06E
:1058A000520744D5EA6810400143E960FFF773FDF1
:1058B000060001984068022809D1E86838400828A5
:1058C00027D0FFF768FD801BA042F6D31FE0032816
:1058D00009D1E86838400C281BD0FFF75CFD801B1D
:1058E000A042F6D313E0002808D1E868384010D071
:1058F000FFF751FD801BA042F7D308E0E86838406D
:10590000042806D0FFF747FD801BA042F6D30320F2
:10591000FEBD3248006801218843029901432F48A7
:1059200001600068C107C90F0298814201D00120BF
:10593000FEBD01980078400706D5E8682F49014070
:105940000198C0680843E86001980078000707D50F
:10595000E8682B49014001980069C0000843E860ED
:105960000320FFF701FD0020FEBD0000FFFFFFFE4A
:10597000FFFF02FF30B5184C616823484300E2681E
:105980000C251540042D04D0082D21D00C2D07D056
:1059900019E02068C00601D5980830BD180030BD58
:1059A000E268E1689202120F184DAA5C0902890FA1
:1059B000491CE468E40301D45A4300E04243100068
:1059C000FEF702F830BD0804400F800012A108580D
:1059D00030BD00008913000000100240002002408A
:1059E00080B5FFF7C7FF074909680906090F084A8C
:1059F000515CC8400749086002BD0000FFF8FFFF86
:105A0000FFC7FFFF0C10024000127A00F4000020D4
:105A1000E4000020CC00002000FA000000F40100A7
:105A200000E8030000D0070040420F0080841E0001
:105A300000093D00F1B583B00022032301240120B9
:105A4000904002900D680540854200D0ABE0486868
:105A5000022801D0122812D1D0088000039E3018ED
:105A60000090006A5607F60E0F27B740B8430F693B
:105A7000BC4637006646BE400643009806625600A4
:105A80000320B040C74300974868012805D002288A
:105A900003D0112801D0122813D1039887680098E9
:105AA0003840CF68B74007430398876003988088E1
:105AB000029FB8434F683F09274097400743039828
:105AC000878003980768009838404F681F40B740A8
:105AD0000743039807600398C768009838408F68A9
