:020000040800F2
:10000000D00B0020D5000008812C0008952900089D
:1000100000000000000000000000000000000000E0
:10002000000000000000000000000000592E000841
:10003000B50C000800000000D92C00081930000899
:10004000E9000008E9000008E9000008E9000008EC
:10005000E9000008C10C0008E9000008CD0C000808
:10006000E9000008E9000008E9000008E9000008CC
:10007000E9000008E900000800000000E9000008AD
:100080000000000001310008000000000000000036
:10009000E900000800000000E9000008E90000088D
:1000A000E9000008E9000008E9000008E90000088C
:1000B00061370008E9000008E9000008E9000008CD
:1000C0000348854600F0F6F900480047AD400008B7
:1000D000D00B00200548804705480047FEE7FEE7B3
:1000E000FEE7FEE7FEE7FEE7FEE70000AD300008B2
:1000F000C100000830B50B46014600202022012433
:1001000009E00D46D5409D4205D31D469540491B4B
:100110002546954040191546521E002DF1DC30BD94
:1001200010B503461C460C43A40703D009E010C9D0
:10013000121F10C3042AFAD203E00C781C70491C69
:100140005B1C521EF9D210BD10B50346C9B201E0C6
:1001500019705B1C521EFBD210BD421C0178401C62
:100160000029FBD1801A7047034603220870000A59
:10017000491C521EFAD518467047024670B54A40CF
:10018000D30FDB0740002DD04A002AD0010E140EF9
:10019000000212020919400A520A8418E5010446B5
:1001A0005443000A120A2E045043A4194219200C89
:1001B000C543AA18120C0125AD03521C5219120492
:1001C0007F39240400D0521C104301D44000491E42
:1001D000C2B20C06C0092018401C4008802A02D078
:1001E00003E0002070BD40084000002900DA002034
:1001F000184370BD420005D04200120E52428A429E
:1002000001DB00207047C90508187047F0B51FB41E
:1002100088B00B990998002448400999C00F4900FB
:1002200049080991C0070B990090490049080B91B2
:1002300009990898A64608431CD00B990A980843C8
:1002400018D0099801244000420D4800410D09983A
:1002500024050003000B204309900B980003000BBA
:1002600020430B9050181C4940180022019014465E
:10027000104605E0002001460DB0F0BD032801DA6C
:10028000034600E003239C46C11A0AAE0AE05F0061
:1002900008ADED5B4F00F75B7D430027AA187C415A
:1002A000491C5B1E6145F2DD410004AB5A5221043A
:1002B000120C0A43240C401C0828DFDB0198029032
:1002C0000099704601910090059B049A0799069841
:1002D00000F09DF8D0E700000DFCFFFF10B50022F4
:1002E0009623114600F04DF810BD41004002012256
:1002F000400AD205090E80187F2901DA00207047D4
:10030000962903DC9622511AC840704796398840D6
:100310007047C20FD207400040080BD0C10D072321
:10032000DB01C91840020905400A1143C208400711
:1003300011437047002001467047CB0FDB0749008F
:1003400010B5490802460A4307D00A0D07240903DD
:10035000E401090B121B002A01DC002010BDC900BA
:10036000440F0C43C100E018D205801800F001F8DA
:1003700010BD002904DA401C490001D140084000AA
:10038000704770B40024050C05D11024000402D17C
:10039000002921D01124050E01D100020834050FD7
:1003A00001D10001241D850F01D18000A41C00286B
:1003B00001DB4000641C002908D020252E1B0D46BF
:1003C000F540A14000D001212943084301061B1B31
:1003D000000ADB1D02D5002070BC7047DB05181831
:1003E00080180029F8DA401C4900F5D170BC40089B
:1003F0004000704710B5002B08DA0024401C614112
:1004000092185B411A4301D14008400010BDF0B57D
:100410001FB482B005460C0003D0084603F03CFA36
:1004200002E003F039FA20300246009021462846C7
:1004300000F052F8049B059A04460F4618431143F6
:10044000084314D0184610431BD0009840210A1AC4
:100450001846059900F050F805460E46009A059991
:10046000049800F039F8084305D0012004E0204644
:10047000394607B0F0BD0020C11705430E432C4399
:10048000374300990E986305401A7905E40A002263
:100490000C43FD0A0A3002D500200146E9E70105B8
:1004A000101969410C9C0D9D00196941FFF7A2FFCD
:1004B000DFE70000064C0125064E05E0E36807CCA7
:1004C0002B430C3C98471034B442F7D3FFF7FCFDA4
:1004D000744200089442000810B5202A04DB01464B
:1004E000203A9140002010BD914020239C1A0346E1
:1004F000E3401943904010BD10B5202A04DB0846A4
:10050000203AD040002110BD0B46D340D0402024DB
:10051000A21A91400843194610BD00000EB501789B
:100520006A4611710188091251718178917141886F
:100530000912D1710179117280880012507201A8DC
:1005400000900648062301890022808803F0E8FB1A
:10055000002801D047200EBD00200EBD5000002015
:10056000F8B5782000F084FC244DA880792000F0B4
:100570007FFCE8807A2000F07BFC84B22C81A88884
:10058000C10B02D0401EC043A880A888FFF7A6FE7A
:10059000FFF7BFFE1A4E1B4F32463B46FFF736FEB3
:1005A000FFF7CBFEFFF7A1FEA880E888C10B02D0C1
:1005B000401EC043E880E888FFF790FEFFF7A9FEE1
:1005C00032463B46FFF722FEFFF7B7FEFFF78DFEF0
:1005D000E880E00B02D0641EE04328812889FFF701
:1005E0007DFEFFF796FE32463B46FFF70FFEFFF714
:1005F000A4FEFFF77AFE2881F8BD00008C000020E1
:10060000747CB4386398433FF0B58BB01B256A46C1
:100610001577C5245477D5279777A526D677022155
:1006200008AA117000205070B42090709A20D070E9
:10063000E1201071112050713A209071CF20D071BB
:10064000802010726E20507236209072D1723A481B
:1006500000900723012207A9022003F0DDFA0028F9
:1006600064D168460577C5214177D5218177C67762
:10067000022708A8077000244470FC2181708F2194
:10068000C170E1210171112141714A218171CF2194
:10069000C171A0210172782141723E218172E22153
:1006A000C17225491020891C0591039000902248B1
:1006B000029404940194001F012307AA0221808858
:1006C00003F0E6F9002831D169460D77C520487757
:1006D000D5208877CE7708A90F704C7036208870A7
:1006E000AC20C870E1200871112048714B2088713E
:1006F000CF20C871802008724D720A208872342081
:10070000C8720D491020091D039005911220009018
:1007100004220948029204940194001F062307AAA8
:100720000221808803F0B4F9002802D047200BB0E2
:10073000F0BD0020FBE7000054000020F0B591B0B0
:100740001B2608A90E75C5274F75D5248C75A525C0
:10075000CD750220087600204876D0208876822247
:10076000CA76E22008771120487777208877E4203E
:10077000C877402010A908701A2048708A7042205B
:10078000C8708A4800900A2301220DA9022003F0B4
:1007900043FA00287ED11B2008A908754F75D52083
:1007A0008875A520C87502240C7600204876E322BF
:1007B0008A76A922CA76E2220A7711224A7777221C
:1007C0008A77E422CA77202210A90A7055224A703B
:1007D0002E228A70A322CA7010260421049001AD33
:1007E00043C5724A0094921C704D059202230A3D43
:1007F0000DAA1946688903F04BF90028CAD10E20CA
:1008000008AA1072E01E507269486A46508500209E
:1008100008AA10735073010A917366490C9109A9D3
:1008200008910AAB079007210590012206960293D2
:1008300001910492009103900CABA989688903F09F
:1008400081F90028A6D11B2108A80175C521417591
:10085000D5218175A521C175022202760024447636
:100860000B2181768421C176E22101771121417724
:100870008B218177E421C177802110A80170C421E8
:10088000417020218170CD21C17029460E31042094
:10089000049400E084E00092059103960194029094
:1008A00003230DAA0221688903F0F2F8002877D10A
:1008B0000F2008A90872601F48724F20C0016946C6
:1008C000488508A90C734C73200A887339480C902A
:1008D000102109A80691012708900726059407947E
:1008E0000AA8019602A991C100960CAB3A46E98983
:1008F000688903F027F9002852D11B2108A8017547
:10090000C5214175D5228275A522C27502230376C1
:10091000447673228276A022C276E22202771122E6
:1009200042778C228277E422C277602210A802707C
:100930000B2242708170C7702A4610320421009346
:100940001020059202910494019403900DAA194677
:10095000688903F09DF8002822D1062008A90872B2
:10096000C01F4872272000026946488508A90C73F9
:100970004C73200A88730F480C90102109A8069127
:100980000890059407940AA8019602A991C10096BF
:100990000CAB0122298A688903F0D4F8002802D020
:1009A000472011B0F0BD0020FBE700005A000020F6
:1009B0002F2700000429000010B50D480B490160E5
:1009C000FF210531416000218160C1600161416109
:1009D000012252028261016241620722C262082240
:1009E000C261816201F09BFA10BD0000003001403D
:1009F000AC00002000B585B00121002803D10A4ACF
:100A0000D36A0B43D362094B42009A5A0092019178
:100A1000029102210391064980000858694600F0BE
:100A20002DFB05B000BD0000001002404C42000844
:100A30000000002010B5044A4100515A034A8000CA
:100A4000105800F0CCFB10BD4C4200080000002004
:100A500010B5044A4100515A034A8000105800F072
:100A6000B7FB10BD4E42000804000020F0B585B071
:100A70000E462A49002803D1CA6A04231A43CA62CF
:100A80004A6B01231A434A63002785004400002E65
:100A90000BD12348005B009001970297022003903E
:100AA00020486946405900F0E9FA012E34D11C482B
:100AB000005B00900297022003901B4801901948A8
:100AC0006946405900F0DAFA154EB61C305D40B266
:100AD000FF25C02300280FDA0107090F08398A080B
:100AE000124992005118CA698007C00E8540AA4376
:100AF00083401A43CA610BE082080D4992005118E5
:100B00000A688007C00E8540AA4383401A430A60E2
:100B1000305D40B200F09CFD05B0F0BD0010024019
:100B20004E420008040000200000211000ED00E00B
:100B300000E400E070B5FF24052501342D070022F4
:100B40002146284600F04FFB052000F0E1F9012284
:100B50002146284600F047FB052000F0D9F970BD7A
:100B6000F7B588B00E4617460024FF20079022A054
:100B700003C805910490052000220221000700F01F
:100B800032FB0F200090052302AA04A9089801F067
:100B900089FA6946087A02281AD16846007B05025C
:100BA0006846C07A0543002D12D0BD4200D93D46AB
:100BB0000F270BE0012306AA07A90097089801F068
:100BC00071FA6846007E3055641CE4B2AC42F1D341
:100BD000052001220221000700F005FB0020019002
:100BE00003E000BF0198401C019001980228F8DB47
:100BF00020460BB0F0BD00000B000000000000001C
:100C0000FFB5C5B04E9E1D46002421A003C84491E7
:100C1000439021A003C84291419000F04CF8052078
:100C200000220221000700F0DEFA0F27052341AA67
:100C300043A90097459801F035FA40A800790228A9
:100C40000BD0641E052001220221000700F0CBFA20
:100C500000F054F8204649B0F0BD40A84079A919E9
:100C6000884212D3002D06D000972B4601AA469940
:100C7000459801F017FA002EE4D0334601AA0097F8
:100C80004799459801F00EFADCE70124E443D9E7DF
:100C90000A00000000000000AA00000000000000A0
:100CA00001490120486170470004014010B500F07F
:100CB000A1FA10BD704710B5052000F0BFFC10BDB3
:100CC00010B5012000F0CEF910BD000010B50124D0
:100CD0006403204600F0C6F9204600F0C3F9A010D6
:100CE00000F0C0F9E01000F0BDF9201100F0BAF9F1
:100CF00001490120087010BD4D00002010B50520ED
:100D000000F0A6FC10BD00000448012242614180B1
:100D10000520401E0028FCDC704700005000002029
:100D200003480021416101220270417070470000B8
:100D300050000020F8B5782000F0BBF8384D6881ED
:100D4000792000F0B6F8A8817A2000F0B2F884B2D9
:100D5000EC8168890126C10B0027002910D02E7074
:100D6000401EC04380B2FFF7B9FA0E21C943FFF716
:100D700041FA2C49FFF701FAFFF7B7FA68810CE056
:100D80002F70FFF7ABFA0E21C943FFF733FA25495D
:100D9000FFF7F3F9FFF7A9FA6881A889C10B10D012
:100DA0006E70401EC04380B2FFF798FA0E21C9430F
:100DB000FFF720FA1B49FFF7E0F9FFF796FAA88141
:100DC0000CE06F70FFF78AFA0E21C943FFF712FAA1
:100DD0001449FFF7D2F9FFF788FAA881E00B10D089
:100DE000AE70641EE04380B2FFF778FA0E21C9436B
:100DF000FFF700FA0B49FFF7C0F9FFF776FAE88131
:100E0000F8BDAF702046FFF769FA0E21C943FFF71E
:100E1000F1F90449FFF7B1F9FFF767FAE881F8BD86
:100E20008C0000200000FA4410494889322802D979
:100E30000120C8707047C889322805D9CA88082A95
:100E400002D90220C87070478A89052A0AD205286B
:100E500008D28888052805D20889052802D20320EF
:100E6000C87070470020C870704700008C000020D8
:100E700010B5002178280CD006DC582809D0592854
:100E80000CD05A2813D10EE0792807D07A280ED139
:100E900009E03B2000F02EF8014608E03D2000F07C
:100EA00029F8014603E03F2000F024F801460846F7
:100EB00010BD10B5002178280CD006DC582809D0C8
:100EC00059280CD05A2813D10EE0792807D07A2857
:100ED0000ED109E0432000F00DF8014608E045205E
:100EE00000F008F8014603E0472000F003F801464F
:100EF000084610BD70B50446204602F051F805467C
:100F0000641CE0B202F04CF82902081800B270BD6F
:100F100031B500F06FF9044600F06CF90099001B40
:100F20008842F9D338BD0000F8B505460024009486
:100F3000012D24D1052636071BE0414803F09BF81C
:100F4000002814D169463E4803F09CF80099FF221E
:100F500008313C48FFF704FEC0B2002803D00098D7
:100F600001F074FC03E03648009903F076F8FFF7CF
:100F700097FE0121304600F02BF90128DDD0012039
:100F800080020127304E85420FD130480178002978
:100F900034D00470304601F08DFA3068406A2C4934
:100FA000088001F0F7FF01F073FFE81FFF38FA38FF
:100FB0000FD12848017800292BD00470224801F075
:100FC00079FA3068406A2449088001F0E3FF01F0B3
:100FD00093FF0120C00285420FD1204801780029EB
:100FE00022D00470184801F065FA3068406A1C4944
:100FF000088001F0CFFF01F0B3FFF8BD0770306843
:101000004462114801F04AFA01F0C4FF01F026FFE2
:10101000CBE70770306844620B4801F03FFA01F0FB
:10102000B9FF01F04FFFD4E707703068446206480B
:1010300001F034FA01F0AEFF01F078FFF8BD0000D6
:101040007C000020AC000020940700209E000020BF
:10105000A20000209F000020A4000020A00000208B
:10106000A600002010B504494A69024202D0486136
:10107000FFF75AFF10BD000000040140F0B5002248
:10108000012595400B682B40AB427DD14C68022C6A
:1010900001D0122C0ED1D408A4002418266AA4462C
:1010A0005407E40E0F27A740BE430F69A7403743FC
:1010B000644627624C68012C05D0022C03D0112C09
:1010C00001D0122C10D1876854000326A640B743E4
:1010D000CE68A6403E4386604468AC430D79ED0679
:1010E000ED0F954025434560076854000325A54052
:1010F000AF430E79B607B60FA6403E430660C668FA
:10110000AE438D68A5403543C5604C68E4004CD5BE
:10111000284C666B01252E4366639508264CAD006E
:101120002F19BD6894070F26240FF643A6402E40C2
:1011300005252D07A84201D1002514E01F4DA84226
:1011400001D101250FE01E4DA84201D102250AE080
:101150001C4DA84201D1032505E01B4DA84201D139
:10116000042500E00525A5403543BD60174D2C68DA
:101170009C434E68F60300D51C432C606C689C436E
:101180004E68B60302D500E00FE01C436C60AC680B
:101190009C434E68F60200D51C43AC60EC689C434F
:1011A0004E68B60200D51C43EC60521C102A00D2D7
:1011B00066E7F0BD0010024000000140000400504E
:1011C00000080050000C0050001C005000040140BA
:1011D0000069084201D00120704700207047426931
:1011E0004A4042617047002A01D0816170478162A4
:1011F0007047000001480068704700003000002080
:1012000070B502462032537D022B27D0537D122B1E
:1012100024D0537D222B21D0537D322B1ED0537DE1
:10122000422B1BD0137D012B1AD0012414750223ED
:10123000537503681D68A5431D6003681D68260378
:10124000B5431D6003681D680D431D60006801689B
:101250002143016054750020107570BD022070BDDF
:10126000022070BD2030807D7047000070B50446BC
:10127000002C05D025462035687D002802D004E0EA
:10128000012070BD204600F071F9022068752068C9
:1012900001684908490001600F2160680906884318
:1012A00021680861206882680121C9038A4382603D
:1012B000A068002807D0E268012A08D0212189020D
:1012C000084321688860E068022804D007E00843EA
:1012D00021688860F7E701202168C0024860206823
:1012E00041680C4A11434160616920690843A16962
:1012F000090208432168C860216AE069084321683F
:1013000008602068026801210A4302600020A87575
:10131000697570BD00800002FFB581B017461C469C
:10132000019E2036707D012802D0022005B0F0BD5C
:10133000002F09D0002C07D0019800688069C043B5
:10134000000403D40220F1E70120EFE7307D0128FB
:1013500013D001203075222070750020B07509204F
:101360008002FF2C0BD9012300901B06FF2202995B
:10137000019801F06FFBFF250AE00220D6E7012368
:101380000090E2B25B060299019801F063FB2546EA
:10139000002204210A9B019801F06EFB002801D075
:1013A0000320C3E701980068406A38707F1C6D1EF7
:1013B000641EA4B2002D22D1002C20D00022802156
:1013C0000A9B019801F058FB002801D00320ADE7EB
:1013D000FF2C0AD90020012300901B06FF2202994E
:1013E000019801F037FBFF2509E000200123009060
:1013F000E2B25B060299019801F02CFB2546002C15
:10140000C6D11921019801F073FB002806D0B07DE8
:10141000042801D0032089E7012087E701982021D3
:101420000068C161019800684168044A1140416048
:10143000012070750020307578E7000000E800FE9C
:10144000FFB581B017461C46019E2036707D0128ED
:1014500002D0022005B0F0BD002F09D0002C07D02B
:10146000019800688069C043000403D40220F1E7BA
:101470000120EFE7307D012812D0012030751220C5
:1014800070750020B07501204003FF2C0AD9C302FB
:101490000090FF220299019801F0DCFAFF250AE092
:1014A0000220D7E701230090E2B25B06029901987F
:1014B00001F0D0FA25460A99019801F041FB002875
:1014C00006D0B07D042801D00320C3E70120C1E786
:1014D0000198397800687F1C81626D1E641EA4B279
:1014E000002D22D1002C20D0002280210A9B0198BF
:1014F00001F0C2FA002801D00320ABE7FF2C0AD983
:101500000020012300901B06FF220299019801F0A0
:10151000A1FAFF2509E0002001230090E2B25B065A
:101520000299019801F096FA2546002CC3D10A9938
:10153000019801F0DDFA002806D0B07D042801D022
:10154000032087E7012085E7019820210068C16119
:10155000019800684168044A11404160012070759B
:101560000020307576E7000000E800FE00B585B089
:1015700000680C49884212D10B48816B0122520548
:1015800011438163C020009012200190012002903D
:1015900003210391049069460448FFF76FFD05B0ED
:1015A00000BD000000540040001002400004005044
:1015B00002480168491C01607047000030000020AB
:1015C00010B50848016840221143016001680222F9
:1015D00011430160032000F007F800F017F8002025
:1015E00010BD00000020024010B5044600F002FAD1
:1015F0007D21C900FEF77EFD00F0DEFE00222146BF
:10160000501E00F02FF8002010BD000010B5054856
:10161000416B01221143416300221146501E00F02C
:1016200021F810BD00100240C106C90E01208840FB
:10163000014908607047000080E200E0C106C90E61
:1016400001208840014908607047000080E100E007
:10165000C106C90E0120884001490860704700009A
:1016600000E100E010B501F00DFB10BDF8B5044637
:1016700020784C4DC00705D0E8686168800880007C
:101680000843E8602078800705D5E8680C21884386
:10169000A1680843E8602078400706D5E868032180
:1016A00089028843E1680843E8602078000706D58E
:1016B000E86803210903884321690843E86020782A
:1016C000800650D537484038816B0204114381634E
:1016D000354F3868111508433860FFF78BFD064613
:1016E00006E0FFF787FD801B642801D90320F8BDC1
:1016F0003868C005F5D5286903273F04616938407B
:10170000394088420AD02869B8432A690121C904AE
:101710000A432A612A698A432A6128610121606992
:10172000090488420ED1FFF765FD064607E0FFF782
:1017300061FD811B1D48814201D90320F8BD286944
:101740008005F4D5606903228103890F12050329FE
:101750001FD01449403908689043086028696169BE
:10176000B843084328612078400606D5E86801217F
:1017700089068843A1690843E8602078000606D5F9
:10178000E868032189048843E1690843E860002090
:10179000F8BD044B403B1968B843914301431960BD
:1017A000DCE7000040100240007000408813000099
:1017B000F8B504460F468C480068F022C007C00FF9
:1017C0008A4EB8427DD288480168490849003943A9
:1017D00001600068C007C00FB84201D00120F8BD09
:1017E0002078800704D5F068A16890430843F06032
:1017F0002078C00739D06068022808D000280BD0B4
:1018000003280ED03168490710D40120F8BD316893
:1018100089030BD40120F8BD3168890506D4012065
:10182000F8BD3168890101D40120F8BDF16889084B
:1018300089000143F160FFF7DDFC0546606802287E
:1018400005D0032812D000281FD0694F33E0684F1D
:1018500006E0FFF7CFFC401BB84201D90320F8BDDA
:10186000F0680007800F0228F3D1A3E0604F06E084
:10187000FFF7C0FC401BB84201D90320F8BDF06857
:101880000007800F0328F3D194E0594F06E0FFF7DB
:10189000B1FC401BB84201D90320F8BDF068000735
:1018A000800FF4D186E00CE0FFF7A4FC401BB842A7
:1018B00001D90320F8BDF0680007800F0128F3D19B
:1018C00078E02078800704D5F068A1689043084349
:1018D000F0602078C00760D06068022808D0002837
:1018E0000BD003280ED03168490710D40120F8BD71
:1018F000316889030BD40120F8BD3168890506D40D
:101900000120F8BD3168890101D40120F8BDF168DA
:10191000890889000143F160FFF76CFC05466068A7
:1019200002280CD0032818D0002824D030E0FFF77C
:1019300061FC411B2E48814201D90320F8BDF068AB
:101940000007800F0228F2D127E0FFF753FC411B6C
:101950002748814201D90320F8BDF0680007800FB5
:101960000328F2D119E0FFF745FC411B20488142D2
:1019700001D90320F8BDF0680007800FF3D10CE017
:10198000FFF738FC411B1A48814201D90320F8BDFA
:10199000F0680007800F0128F2D113480168490858
:1019A0004900394301600068C007C00FB84201D048
:1019B0000120F8BD2078400706D5F068072109020C
:1019C0008843E1680843F0602078000707D5F06895
:1019D0000721C90288432169C9000843F060032038
:1019E000FFF702FE0020F8BD002002400010024078
:1019F0008813000010B500F031F80549C968054AA0
:101A00000906090F515CC8400349086010BD000079
:101A1000001002403D0000201000002010B5FFF72C
:101A2000E9FF0449C968044A4905490F515CC840A7
:101A300010BD0000001002403D00002010B5FFF76F
:101A4000D9FF0449C968044A8904490F515CC84058
:101A500010BD0000001002403D00002010B51B4AE0
:101A600050680004400F1A4980000858D1680C23C0
:101A700019401BD004291AD008291FD00C2915D1D0
:101A8000D0680F2189040840D1681B051940114B0B
:101A9000800C185C890D491CD26801231B041A4074
:101AA000002A0DD00C4A5043FEF724FB10BD1068ED
:101AB000C00601D5094810BD094810BD064810BD33
:101AC000074A5043FEF716FB10BD0000001002400D
:101AD000544200083400002000127A0000093D0042
:101AE0000024F400F8B504462078F94DC00753D01F
:101AF000E8680007800F022807D0E8680007800F19
:101B000003280CD1E868C00309D52868800343D5B1
:101B100001206168000481423ED00120F8BD29689F
:101B20000520000481432960FFF764FB0646E94F66
:101B300006E0FFF75FFB801BB84201D90320F8BD28
:101B400028688003F5D42868052109048843616862
:101B50000843286001206168000481420ED1FFF72C
:101B600049FB064606E0FFF745FB801BB84201D95A
:101B70000320F8BD28688003F5D50DE0FFF73AFB98
:101B8000064606E0FFF736FB801BB84201D903206A
:101B9000F8BD28688003F5D4207880074BD5E86825
:101BA0001F270007800F3F02012807D0E8680007C1
:101BB000800F032811D1E868C0030ED428684007BD
:101BC00004D5E068012801D00120F8BD68682169CA
:101BD000B8430902084368602DE0E0680921002845
:101BE00018D02A688A4302432A60FFF703FB06469F
:101BF00006E0FFF7FFFA801B642801D90320F8BD37
:101C000028684007F5D568682169B8430902084388
:101C1000686010E0286888432860FFF7EBFA064602
:101C200006E0FFF7E7FA801B642801D90320F8BD1E
:101C300028684007F5D42078C0064FD5E868A64F3D
:101C40000007800F0BD0E069002834D02868FF21FE
:101C5000013108432860FFF7CDFA06461BE02868EB
:101C6000800504D5E069012801D00120F8BD68682D
:101C7000616AB843084368606868218C0002000A02
:101C800009060843686029E0FFF7B4FA801B64285E
:101C900001D90320F8BD28688005F5D56868616A18
:101CA000B843084368606868218C0002000A09068E
:101CB0000843686012E02968FF20013081432960F1
:101CC000FFF798FA064606E0FFF794FA801B6428AF
:101CD00001D90320F8BD28688005F5D420787F4F0E
:101CE000000727D56069002812D039690120014317
:101CF0003961FFF77FFA064606E0FFF77BFA801BA3
:101D0000642801D90320F8BD38698007F5D511E0B2
:101D10003869400840003861FFF76CFA064606E073
:101D2000FFF768FA801B642801D90320F8BD3869E1
:101D30008007F5D42078800634D5A1696848002949
:101D400019D0A96801221143A960696B1143696325
:101D5000016A644A11430162FFF74CFA064606E045
:101D6000FFF748FA801B642801D90320F8BDA86852
:101D70008007F5D516E0A96849084900A960016AFD
:101D8000584AD24311400162FFF734FA064606E092
:101D9000FFF730FA801B642801D90320F8BDA8683A
:101DA0008007F5D4207840075BD5A86B012109078F
:101DB0000843A8634C480168821511430160FFF78E
:101DC00019FA064606E0FFF715FA801B642801D9C8
:101DD0000320F8BD44480068C005F4D53F480269B7
:101DE000052109028A430261FFF704FA0746394ECA
:101DF00006E0FFF7FFF9C01BB04201D90320F8BD90
:101E0000364800698005F4D4344A10690521090276
:101E10008843A16808431061A168C81FF93804D03D
:101E2000FFF7E8F907462D4E18E0FFF7E3F90746FC
:101E30002A4E07E0FFF7DEF9C11B2648814201D98F
:101E40000320F8BD30698005F4D50AE0FFF7D2F928
:101E5000C11B2048814201D90320F8BD30698005AB
:101E6000F4D4A06A002856D0E9680907890F03292D
:101E700053D001273F06022806D02868B8432860BF
:101E8000FFF7B8F9044643E02868B8432860FFF735
:101E9000B1F9064606E0FFF7ADF9801B642801D9C9
:101EA0000320F8BD28688001F5D4616B206BEA68D7
:101EB0000843E16AFD231B049A4311430843E86089
:101EC000286838432860FFF795F9044615E00000BC
:101ED000001002408813000000E0000040100240A3
:101EE000000001400120000000700040FFF782F96F
:101EF000001B642801D90320F8BD28688001F5D5AE
:101F000009E0FFF777F9001B642801D90320F8BD29
:101F100028688001F5D40020F8BD0120F8BD70B517
:101F20000446002C05D025464035687C002802D0A8
:101F300004E0012070BD204600F034F802206874EF
:101F400020680168402291430160A16860682269AD
:101F50000843E16811430843616901220843A1690C
:101F6000520211400843E1690843216A0843A16A0B
:101F7000084321680860A0690421000C0840616AD8
:101F80000843216848602168E06A08612068C169E7
:101F900092009143C1610020A87401206874002060
:101FA00070BD0000F0B585B000683A4988426ED136
:101FB0003948C16A01242143C162C16A0226314302
:101FC000C162C16A2143C162C16A2143C162C16A5F
:101FD0002143C162C16A2143C162416B8214114332
:101FE0004163871500970194029400250395049599
:101FF000052069460007FFF741F805200022394611
:102000000007FFF7F0F808200090019602960327DA
:102010000397049569462148FFF730F84020009067
:102020000196029503970495052069460007FFF77E
:1020300025F88020009001960295039704950520CD
:1020400069460007FFF71AF8009601940294039777
:102050000495052069460007FFF710F805200122C6
:1020600002210007FFF7BFF800940D480190029588
:1020700003970495052069460007FEF7FFFF00223D
:1020800004210520FFF7EEFA0520FFF7E1FA05B07D
:10209000F0BD00000030014000100240000400507C
:1020A00000001110F8B5044625464035687C01282B
:1020B00003D0222801D00220F8BD00290CD0002A2C
:1020C0000AD0002B08D0287C012807D001202874D2
:1020D000687C012804D005E00120F8BD0220F8BD8D
:1020E000322068740020A874A263A387E387216369
:1020F000A386E386A064E0640126A06A7603B0426A
:1021000007D120680168B14301602068016831434C
:10211000016020680168490603D401684022114328
:1021200001600122D202FF21E06805315700904290
:102130007ED16068002804D088420CD1E08E01284E
:1021400009D1206B21680088C860206B801C206347
:10215000E08E401EE086E08E00284DD1A06AB0429D
:1021600003D1206801683943016000220121204623
:10217000069B00F00BFE002801D00320F8BD20686C
:10218000C068A16B0880A06B801CA063E08F401E1C
:10219000E087C3E0002202212046069B00F0F6FD06
:1021A000002801D00320F8BD206B21680088C8609A
:1021B000206B801C2063E08E401E80B2E0860028E9
:1021C00006D1A06AB04203D120680168394301609A
:1021D000002201212046069B00F0D8FD002801D0F6
:1021E0000320F8BD2068C068A16B0880A06B801C2C
:1021F000A063E08F401EE087E08E0028CAD16068AF
:10220000002814D1002201212046069B00F0BEFDCB
:10221000002802D00320F8BD0AE02068C068A16B46
:102220000880A06B801CA063E08F401EE08775E0F3
:102230006068002804D088420BD1E08E012808D1C4
:10224000206B411C216321680078C860E08E401E2D
:10225000E086E08E002848D1A06AB04203D1206811
:10226000016839430160002201212046069B00F0ED
:102270008DFD002801D00320CDE72068C068A16B48
:102280000870E08F401EE08748E0002202212046CF
:10229000069B00F07BFD002801D00320BBE7206BEC
:1022A000411C216321680078C860E08E401E80B226
:1022B000E086002806D1A06AB04203D120680168F8
:1022C00039430160002201212046069B00F05EFD9B
:1022D000002801D003209EE72068C168A06B421C43
:1022E000A2630170E08F401EE087E08E0028CCD111
:1022F0006068002812D1002201212046069B00F0D0
:1023000045FD002801D0032085E72068C168A06B47
:10231000421CA2630170E08F401EE087A06A022782
:10232000B0420FD1002201212046069B00F02EFD75
:10233000002804D0A87C3843A87403206BE72068E9
:10234000C0680090012280212046069B00F01EFDFF
:10235000002805D0A87C20210843A87403205AE750
:102360000120687420688168C906C90FA26AB24258
:102370000FD100290DD0A97C3943A9740168B1435C
:102380000160206801683143016000202874012049
:1023900041E7002028743EE704220549042803D0C1
:1023A00008699043086170470869104308617047E5
:1023B00000E000E07047000010B50949401E884267
:1023C00001D9012010BD074C60610321081F00F0F6
:1023D00059FC0020A06107202061002010BD0000F2
:1023E000FFFFFF0000E000E010B5FFF7E3FF10BDC6
:1023F00070B502462032137D012B1BD001241475C9
:102400000223537503685D687026B5435D600368F9
:102410005D680E6835435D6003689D688026B5433E
:102420009D600068836849680B4383605475002091
:10243000107570BD022070BD70B50446002C05D02B
:1024400025462035687D002802D004E0012070BDBB
:10245000204600F00BF802206875211D206800F06E
:1024600057FE01206875002070BD000010B500689F
:10247000084988420CD10848816B102211438163BE
:10248000002211461120FFF7EDF81120FFF7E0F8C8
:1024900010BD000000100040001002400168CA6832
:1024A00001231A43CA6000680168194301600020D3
:1024B000704700000168CA6852085200CA6000688C
:1024C000016A044A114203D10168490849000160C8
:1024D0000020704711110000704770B50446206855
:1024E00001690025C9438907002916DBC168C94372
:1024F000890712D4E91E01610120207520688069D6
:10250000800703D02046FFF7E7FF05E0204600F0F4
:102510007BF8204600F079F8257520680169C943E9
:10252000490718D4C168C943490714D40421C943D1
:10253000016102202075206880698005800F03D02A
:102540002046FFF7C9FF05E0204600F05DF8204671
:1025500000F05BF8257520680169C943090717D4A5
:10256000C168C943090713D40821C9430161042084
:1025700020752068C069800703D02046FFF7ACFFB4
:1025800005E0204600F040F8204600F03EF82575B2
:1025900020680169C943C90618D4C168C943C9067E
:1025A00014D41021C9430161082020752068C06936
:1025B0008005800F03D02046FFF78EFF05E0204600
:1025C00000F022F8204600F020F825752068016907
:1025D000C943C90708D1C168C943C90704D1891EC5
:1025E0000161204600F012F820680169C9434906DC
:1025F00009D4C168C943490605D44021C9430161D2
:10260000204600F017F870BD704770470068064913
:10261000884207D1054800210268516202680449D6
:10262000D162C16070470000001000409407002094
:1026300050C3000070477047704770B50546286862
:10264000C1692C46C90701266034002907D00168FA
:10265000C90504D50662A07A3043A0726672286864
:10266000C16904228B070221002B07DA8368DB078C
:1026700004D00162A07A1043A07266722868C36910
:102680005B0707D58368DB0704D00262A07A0843A2
:10269000A07266722868C169090708D58168C907F0
:1026A00005D008210162A07A0843A0726672A07A60
:1026B000002802D02846FFF7BFFF2868C169C90279
:1026C00009D58168490206D50121090501626672B2
:1026D0002846FFF7B0FF2868C169890605D500685C
:1026E000800602D5284600F02FFE2868C169090639
:1026F00005D50068000602D5284600F077FFA07ACD
:10270000002802D02846FFF797FF70BD70B5044639
:10271000002C06D0204660300546407A002802D0C2
:1027200004E0012070BD204600F024F80220687209
:1027300020680168490849000160204600F050FE09
:10274000606A002802D0204600F06CFD20684168D5
:102750000922D20291434160206881682A22914374
:10276000816020680168012211430160204600F069
:10277000BFFD70BD00B585B000680D49884214D119
:102780000C48816B01225204114381630C2000909C
:102790000220019001200290032003900420049065
:1027A000052069460007FEF769FC05B000BD000082
:1027B00000440040001002407047704710B5421CB2
:1027C0000078042814D11078052812D03E2813D0A0
:1027D000FF280DD1921C50781178000208430D4952
:1027E000C84205D1507911790002084300F08AFAF5
:1027F00010BDFEF795FA10BD901C01780129FAD1A1
:10280000401C8178427809021143401DFEF77CFA92
:1028100010BD0000ECF3FFFF70B50A4801F01AFC90
:102820000848083001F016FC0024074DFF2009304D
:1028300060434119034801F017FC641CE4B2052C05
:10284000F4D370BD7C00002000010020F8B5844660
:10285000002265462B4C0835656000204DE021784C
:10286000002900D1608067887E1C6680EE5D0029AB
:102870000ED0032911D0042912D0052913D007291D
:1028800014D0082915D006291CD009291FD02EE004
:10289000042E2CD10321217029E00621217026E08D
:1028A0000521217023E00721217020E008212170FB
:1028B0001DE029460A79C97813020B430022092139
:1028C000217014E033460022092121700FE0521CD0
:1028D00092B29A420BD32070604601F0A9FAA06828
:1028E000002803D06188A26860689047F8BD6188BD
:1028F000FF260536B14200D320706188FF29AED390
:10290000F8BD00007000002008B500200090FEF720
:10291000D2F90E4801F0AFFB13E069460B4801F015
:10292000B1FBFEF7EBF900980830FFF747FFFEF721
:10293000C2F906480099083801F096FB034801F0F7
:102940009AFB0028E9D0FEF7D9F908BD84000020E1
:10295000FEB506460F4615461C460C480A2100687F
:10296000FDF7C8FB014601A800F018FCE4B2EBB289
:102970003A46314606480094FEF742F9002804D052
:1029800001A800F0FDFB0028F1D0FEBD7042000858
:10299000AC000020FEE7000001B582B002A8009064
:1029A00006480223018A0022408901F0B9F9002873
:1029B00001D047200EBD00200EBD000050000020B9
:1029C000F8B505460E46FEF715FC074628688169EE
:1029D000C943C9063AD42C462034617D122905D05A
:1029E000617D522902D0617D622917D14168890138
:1029F00014D4416801229203114341600EE0701C1F
:102A00000CD0002E04D0FEF7F5FBC01BB04205D958
:102A100001206075002020750320F8BD28688069BA
:102A2000C0438006EBD429681020C86129682020A3
:102A3000C86128684168064A114041600420A075B9
:102A400001206075002020750120F8BD0020F8BD30
:102A500000E800FE70B5049D00684468054E3440EF
:102A60008905890D1204114319432943214341600B
:102A700070BD0000009800FCFFB581B00646154609
:102A80001C46FEF7B7FB0746294635462035002988
:102A900010D025E0601C0DD0002C04D0FEF7AAFB5E
:102AA000C01BA04206D901206875002028750320AC
:102AB00005B0F0BD3068816902988843C003E9D150
:102AC00014E0601C0CD0002C04D0FEF793FBC01B5C
:102AD000A04205D901206875002028750320E7E78A
:102AE0003068816902988843C003EAD00020DFE79C
:102AF00070B504460D46FEF77DFB064619E02946F3
:102B00002046FFF75DFF002801D0012070BD002D99
:102B100004D0FEF76FFB801BA8420AD92034A07DA9
:102B200020210843A0750120607500202075032036
:102B300070BD20688069C0438006E0D4002070BD6D
:102B400070B505460C46FEF755FB06461BE02146D0
:102B50002846FFF735FF002801D0012070BD601C1A
:102B600011D0002C04D0FEF745FB801BA0420AD9EF
:102B70002035A87D20210843A87501206875002014
:102B80002875032070BD28688069C0438007DED4A3
:102B9000002070BD10B500216B2000F025FA072140
:102BA000192000F021FA06211A2000F01DFA182140
:102BB0001B2000F019FA01211C2000F015FA10BDAD
:102BC0000848C16A04221143C162C16A80221143CC
:102BD000C162C16A01221143C162C16A022211436A
:102BE000C16270470010024010B50C480A490160EC
:102BF000E121C9004160002181600122C2600161C0
:102C000041618161C1610162FEF730FB002103482F
:102C1000FEF7F6FA10BD0000005400402806002020
:102C20001CB50948074901601F21416000248460E8
:102C3000C460FFF701FC0094019469460248FFF765
:102C4000D7FB1CBD001000409407002010B50B48B6
:102C500009490160E1214902416000218160C160B0
:102C600001610C22426181610122D203C2610162D1
:102C70004162FFF74BFD10BD0044004028070020D3
:102C8000704700008307FF22DB0E9A408907090E78
:102C9000994000280BDA0007000F0838830808481D
:102CA0009B001818C36993430B43C36170478308A3
:102CB00004489B001818036893430B430360704754
:102CC00000ED00E000E400E010B5FDF729FA10BDCA
:102CD00010B5FDF739FA10BD7047000001B582B09C
:102CE00002A8009006480323C1890022408901F010
:102CF00017F8002801D047200EBD00200EBD0000AF
:102D0000500000207CB51C4C2189491C884204D10C
:102D100020461830FDF702FC27E0A189491C8842B3
:102D200009D11648057814481830FDF7F7FB2846F6
:102D300000F012FA19E0E189491C88420DD11048CF
:102D40000A210068FDF7D6F90146684600F026FA28
:102D50000C480088FFF7C2FF07E0218A491C88421F
:102D600003D109480088FFF717FE6088002802D0C9
:102D7000608800F094FF7CBD500000208F00002090
:102D800070420008A800002094000020FFB581B028
:102D9000044616461D46FEF72DFA074631462646DE
:102DA0004036002926D050E0681C23D0002D04D0E6
:102DB000FEF720FAC01BA8421CD920684268E02117
:102DC0008A43426020680168402291430160A06A02
:102DD000D101884207D1206802688A4302602068D6
:102DE00002680A43026001207074002030740320DE
:102DF00005B0F0BD2068816802988843D4D129E0ED
:102E0000681C22D0002D04D0FEF7F4F9C01BA842A4
:102E10001BD920684268E0218A434260206802682A
:102E200040218A430260A06AC901884207D1206814
:102E300002688A430260206802680A430260012037
:102E40007074002030740320D2E7206881680298F3
:102E50008843D5D00020CBE77047000000B585B08F
:102E60000120800200900948019002200290052074
:102E700069460007FEF702F9002211460720FEF717
:102E8000F1FB0720FEF7E4FB05B000BD00002110B8
:102E900000B585B001208002009009480190022011
:102EA0000290052069460007FEF7E8F80022114667
:102EB0000720FEF7D7FB0720FEF7CAFB05B000BDD1
:102EC0000000111000B585B00120400200900948B3
:102ED000019002200290052069460007FEF7CEF817
:102EE000002211460720FEF7BDFB0720FEF7B0FBCE
:102EF00005B000BD0000211000B585B001204002E2
:102F000000900948019002200290052069460007C0
:102F1000FEF7B4F8002211460720FEF7A3FB0720B6
:102F2000FEF796FB05B000BD0000111000B585B09E
:102F30000120C00200900948019002200290052063
:102F400069460007FEF79AF8002211460720FEF7AF
:102F500089FB0720FEF77CFB05B000BD00002110B7
:102F600000B585B00120C002009009480190022000
:102F70000290052069460007FEF780F800221146FE
:102F80000720FEF76FFB0720FEF762FB05B000BDD0
:102F90000000111010B50720FEF750FB10BD000017
:102FA00011B583B00E4C02E00E48FEF75BF9012329
:102FB00003AAD0210B480094FEF742FA0028F3D16F
:102FC000012302AAD12107480094FEF7A5F90028A1
:102FD00002D00448FEF746F96846007A04B010BDF6
:102FE00088130000280600201CB56A461071517134
:102FF000074C02E00748FEF735F9022301AAD02169
:1030000004480094FEF71CFA0028F3D11CBD000010
:10301000881300002806002010B5FEF7C9FAFFF754
:10302000E3F910BD70B59CB01E49886B0A041043CB
:1030300088631D4801680322D2029143C214891893
:10304000016002250E950126119610201290189508
:1030500000241994C0031A9000011B900EA8FEF7DB
:1030600041FD099603200A900B940C940D940121C4
:1030700009A8FEF79DFB0195039401A8FEF7F6FA57
:10308000FEF7B8FC7D21C900FDF734F8FFF794F98D
:103090000420FFF781F900221146501EFEF7E2FAE4
:1030A0001CB070BD00100240007000401048016864
:1030B000821511430160C1680E4A1140C160016868
:1030C0000D4A11400160816849084900816001682A
:1030D0000122920491430160C168FD2212049143D0
:1030E000C160002101610549C0038860704700008C
:1030F000001002400C40FF88F6FFF6FE00ED00E0F5
:1031000010B50248FFF7E9F910BD00009407002050
:1031100010B502680124A407A04203D170239A438A
:103120004B681A43A04205D0094B984202D0094B84
:10313000984204D103231B029A43CB681A430260CE
:103140008A68C262096881620121416110BD000084
:10315000000801400014014001B582B002A80090AF
:103160000648022381890022408900F0D9FD002809
:1031700001D047200EBD00200EBD000050000020F1
:1031800010B50446FDF792FD2168401A401C6168A5
:10319000814201D2012010BD002010BD10B50446AF
:1031A0006160FDF783FD206010BD000010B5074C85
:1031B000012202212046FEF716F800F02DF8002229
:1031C00002212046FEF70FF810BD00000004005059
:1031D00010B5074C012210212046FEF704F800F03C
:1031E0001BF8002210212046FDF7FDFF10BD000056
:1031F0000004005010B5074C012220212046FDF7A5
:10320000F2FF00F009F8002220212046FDF7EBFF35
:1032100010BD0000000400503220401E0006000EC9
:10322000FBD1704710B5818CC90707D001684A6887
:1032300001235B049A43836A1A434A60818C89079D
:1032400007D501684A6801231B049A43C36A1A43DD
:103250004A60818C490707D501684A6801239B04AD
:103260009A43036B1A434A60818C090707D50168AA
:103270004A680123DB039A43436B1A434A60818CFB
:10328000C90607D501688A6801231B039A43836B2B
:103290001A438A60818C890607D501688A680123F0
:1032A0005B039A43C36B1A438A60818C490612D52B
:1032B00001684B6801221205046C934323434B6061
:1032C000016C914207D101684A6803235B059A4368
:1032D000436C1A434A60818C090607D501684A6825
:1032E0000123DB04806C9A4302434A6010BD000056
:1032F00070B5044620680068124D00070AD5012108
:103300002B4600224905204600F0C6F9002801D0CE
:10331000032070BD2068006840070AD501212B46B4
:1033200000228905204600F0B7F9002801D00320CB
:1033300070BD002060342072A072012060720020F5
:1033400070BD0000F055000070B502464032938B0E
:10335000014660314C7A222C04D04C7A322C01D0B8
:10336000022070BD012584682D03AC4202D104699E
:10337000002C0ED00468646A1C40436D5D1C4565DA
:103380001C70538B5B1E1B041B0C53830AD0002044
:1033900070BD446D05686D6A1D402580436D9B1CA2
:1033A0004365EEE70268D3699B06FCD413682024CA
:1033B000A34313604A7A322A0FD002681368E400EC
:1033C000A3431360026893685B085B00936001226B
:1033D0004A72FFF7F1F9002070BD12224A72F8E735
:1033E00070B5044600200026A2682169E3690A43FB
:1033F000616919430A4321680B68744D2B401343DC
:103400000B6021684A6803231B039A43E3681A434D
:103410004A60A269216A0A4321688B680B252D0244
:10342000AB4313438B606A4B25686A496A4A9D42E5
:1034300012D1C9688907890F06D0012908D002294D
:1034400004D003292CD105E0012029E0022027E047
:10345000042025E0082023E0604B9D4210D1C9687C
:103460000C2319401CD0042906D0082902D00C29AD
:1034700016D103E0022013E0042011E008200FE041
:1034800095420DD1C96803239B02194008D001233E
:103490009B02C91A16D0C91A12D0994200D108202D
:1034A000954229D100280FD0022816D004281AD01E
:1034B000082804D100056168FCF71CFEE86070BDB7
:1034C0000220EDE70420EBE7FEF7A8FA00026168AE
:1034D000FCF710FE2168C86070BD41486168FCF7C8
:1034E00009FEE86070BDFEF7B9FA00026168FCF7FA
:1034F00001FE2168C86070BD0122E169D2039142DA
:1035000035D1030000F0DFF909060E162B1C2B2B1A
:103510002B252B00FEF782FA40006168FCF7EAFDDC
:1035200086B21CE0FEF78AFA40006168FCF7E2FD13
:1035300086B214E02B486168FCF7DCFD86B20EE031
:10354000FEF78CFA40006168FCF7D4FD2168C86082
:1035500005E0012000046168FCF7CCFD86B231096A
:1035600009013007400F08432168C86070BD03009F
:1035700000F0A9F909070F17061D06060625060023
:10358000F4E7FEF74BFA6168FCF7B4FD2168C86008
:1035900070BDFEF753FA6168FCF7ACFD2168C860A6
:1035A00070BD11486168FCF7A5FDE86070BDFEF7CD
:1035B00055FA6168FCF79EFD2168C86070BD104631
:1035C0006168FCF797FDE86070BD0000F369FFEFEC
:1035D00000380140401002400048004000440040D4
:1035E000000024F40048E8010024F40010B504466B
:1035F00020466030417A122904D0417A322901D024
:10360000022010BD214640314A8A002A12D00122F0
:10361000A0681203904202D12069002830D0E06CEB
:10362000421CE264226800789062488A401E488208
:10363000002010BD21680A6880239A430A60417AFD
:10364000322915D021680A685B009A430A60216814
:103650008A68520852008A60012141720D4B002293
:103660004021204600F018F8002804D0032010BDA7
:1036700022214172F2E72046FFF79FF8002010BD9B
:10368000E06C22680088C005C00D9062E06C801C70
:10369000E064CAE7F0550000FFB581B00446164665
:1036A0001D46FDF7A7FD0746314626466036002930
:1036B00024D04DE0681C21D0002D04D0FDF79AFDE8
:1036C000C01BA8421AD92068026880218A43026080
:1036D0002068016820229143016020680168D200BF
:1036E0009143016020688168490849008160032096
:1036F000707200203072032005B0F0BD2068C169EF
:1037000002988843D6D128E0681C21D0002D04D02F
:10371000FDF770FDC01BA8421AD9206802688021FD
:103720008A4302602068026820218A430260206880
:103730000168FF22013291430160206881684908D5
:103740004900816003207072002030720320D3E7AB
:103750002068C16902988843D6D00020CCE70000D9
:1037600070B51B48FEF769FF19480068C0698006FC
:1037700024D518488169082211438161406AC1B289
:10378000154A1088030419D444040023002C08DAD5
:103790000A2901D0138011E00121C90308431080D8
:1037A0000CE00D290ED08404094DA40CC83D295508
:1037B000401C80B21080C72800D913801C20FDF760
:1037C00033FF70BD0121890308431080F6E7000034
:1037D00028070020004400409C00002010B586B05F
:1037E000002211460720FDF73DFF0720FDF730FFBF
:1037F0000720400201901348029002240394052000
:1038000001A90007FDF73AFC322001900120029047
:103810000394032004900C4C01A92046FDF72EFCD4
:10382000002202212046FDF7DEFC00221021204666
:10383000FDF7D9FC002220212046FDF7D4FC06B07C
:1038400010BD0000000011100004005070B50446C7
:103850000F4D2878002803D000F0D8FC00202870F5
:103860000020FDF7F5F8002811D10020FDF7F0F851
:103870000028FAD00020FDF7DDF80648006800288F
:1038800005D02088C83020802046FCF747FE70BD58
:1038900050000020640000202021020C01D01021E3
:1038A0001046020A01D010460839020901D010461C
:1038B000091F820801D01046891E420801D0881EC7
:1038C0007047081A704730B47446641E2578641C2B
:1038D000AB4200D21D46635D5B00E31830BC184765
:1038E00002E008C8121F08C1002AFAD170477047C9
:1038F000002001E001C1121F002AFBD1704770B502
:103900008AB00C4615461E4603900722002101A8E6
:10391000FFF7DEF91822002104A8FFF7D9F93F20AC
:10392000694608828A20488203A8069001200790F1
:1039300001A808900720099004A800F0E3FA0028E5
:1039400002DAFF200AB070BD684600790028F9D17C
:103950006946887949790002084320806946087AD7
:10396000C9790002084328806946887A497A0002AA
:10397000084330800020E5E7F0B58FB0159E149D18
:1039800017461C466A4610725172394602AF102221
:10399000B81CFFF799F96A469476D576167707A989
:1039A00001311698FCF7E0FB08AA1798507018220E
:1039B000002109A8FFF78CF93F206A4690848620F1
:1039C000D0840B971A200C9001A80D9001200E9026
:1039D00009A800F097FA002802DAFF200FB0F0BD26
:1039E000684600790028F9D1F8E7FFB5C9B0539FC0
:1039F000559D694601AC08710126601C02224AA946
:103A0000FFF762F9E01C02224BA9FFF75DF9694656
:103A10004C98487252988872CF7203A83A465499CB
:103A2000FFF752F90837F8B22554401CC7B2E01925
:103A30002A465699FFF748F97819C5B2601902224B
:103A400057A9FFF741F9AD1CEDB26019022258A940
:103A5000FFF73AF9AD1CEDB21822002143A8FFF799
:103A600037F93F2040A988818320C8814594469535
:103A700042A84790489643A800F044FA002802DA8A
:103A8000FF204DB0F0BD40A8007A0028F9D1F8E73A
:103A9000FFB5C9B00D461F4601AC2046022249A918
:103AA000FFF712F9684685710326012D3BD01025DA
:103AB000E01C2A464B99FFF707F9ED1CE8B22754A2
:103AC000401CC0B252992154401CC0B25399215499
:103AD000401CC0B254992154401CC0B25599215485
:103AE000401CC0B256992154401CC5B2032200218B
:103AF00042A8FFF7EDF81822002143A8FFF7E8F8E5
:103B00003F2040A98881FF200530C8814594469513
:103B100042A84790489643A800F0F4F9002804DA38
:103B2000FF204DB0F0BD0225C2E740A8007A002872
:103B3000F7D140A9887A497A00020843579908804A
:103B40000020EEE7FFB5C9B0529F539E154601AC69
:103B50002046022249A9FFF7B7F8A01C02224AA971
:103B6000FFF7B2F868460572012D46D01025601D9A
:103B70002A464C99FFF7A8F86D1DE8B22754401C5F
:103B8000C0B22654401CC5B2601932465499FFF7A2
:103B90009BF8A819C0B255992154401CC0B256993F
:103BA0002154401CC0B257992154401CC0B25899AE
:103BB0002154401CC0B259992154401CC5B2032263
:103BC000002142A8FFF784F81822002143A8FFF73C
:103BD0007FF83F2040A98881FF200630C8814594A6
:103BE000469542A847900320489043A800F08AF9E0
:103BF000002804DAFF204DB0F0BD0225B7E740A849
:103C0000007A0028F7D140A9887A497A000208434F
:103C10005A9908800020EEE7F0B5C9B016461F4655
:103C20006A4601AD107101282AD01024681C224672
:103C3000FFF74AF8641CE0B22E54401CC0B22F5467
:103C4000401CC4B20322002142A8FFF741F8182209
:103C5000002143A8FFF73CF83F2040A98881FF20BE
:103C60000330C8814595469442A847900320489068
:103C700043A800F047F9002804DAFF2049B0F0BD5E
:103C80000224D3E740A8007A0028F7D140A9887A17
:103C9000497A000208434E9908800020EEE700B5FB
:103CA00089B002901822002103A8FFF711F83F20E5
:103CB00069468881FF202830C88102A8059002202B
:103CC000069001A807900120089003A800F01AF9B7
:103CD000002802DAFF2009B000BD684600790028FC
:103CE000F9D1F8E700B587B01822002101A8FEF746
:103CF000EFFF3F2069468880FF200230C880684679
:103D000005900120069001A800F0FCF8002802DAD6
:103D1000FF2007B000BD684600780028F9D1F8E719
:103D2000FFB5C9B0529F16461D4601AC204602227F
:103D300049A9FEF7C9FFA01C02224AA9FEF7C4FF49
:103D400069460E724D72A01D2A463946FEF7BCFF29
:103D5000AD1DEDB21822002143A8FEF7B9FF3F20A8
:103D600040A98881FF200730C8814594469542A824
:103D700047900120489043A800F0C4F8002802DAD8
:103D8000FF204DB0F0BD40A8007A0028F9D1F8E737
:103D900000B589B06A46107251721822002103A83A
:103DA000FEF796FF3F206A4690810F20D08102A83F
:103DB00005900220069001A807900120089003A812
:103DC00000F0A0F8002802DAFF2009B000BD684624
:103DD00000790028F9D1F8E770B50C46C8B0114653
:103DE0006A466D46107001265470A81C2246FEF7E4
:103DF0006BFFA41CE4B21822002142A8FEF768FF62
:103E00003F2040AA10810C2050814495459441A840
:103E10004690479642A800F075F8002802DAFF2085
:103E200048B070BD40A800790028F9D1F8E700003B
:103E300010B5014608314A1C0978042909D11178C6
:103E40000E2906D00F2904D00146054800F00CF9D0
:103E500010BD01460248083800F006F910BD000008
:103E60008400002030B58FB004460D46202200218A
:103E700001A8FEF72DFF684604711F2C00D91F24EE
:103E8000224601AC2946601CFEF71EFF18220021C5
:103E900009A8FEF71DFF0820694688840920C88408
:103EA0000B9420200C9068460D9001200E9009A8DC
:103EB00000F028F80021C943002802DA08460FB0B4
:103EC00030BD68460078002801D00846F7E700209A
:103ED000F5E77CB514461D468905890D800201432E
:103EE0006A469180947101201070032201A96844F0
:103EF000FEF7EAFE234604222946684600F0A6F8AB
:103F000000207CBDFEB50446608821788005800DC8
:103F10008902084387B2474864210068FCF7EAF841
:103F20000546454900204870444800F089F8227B46
:103F300061882088A368FFF7CCFF002871DB0A2680
:103F40006CE0002D00D10125002D0CDD29466846CE
:103F5000FFF724F96846FFF713F9002861D13648C6
:103F600040780028F6D0344841680A78042A04D002
:103F700000214170FCF7C2FE50E00B462E48C91CE0
:103F80004288D21E58780E281CD00F2804D0102842
:103F900047D03E283DD127E0C8788B7800021843EF
:103FA000B84236D160680F2803D00878002838D18D
:103FB0002FE06069904200DC024662612069FEF7F2
:103FC00083FE1FE00846837840781B020343BB4210
:103FD0001FD1C91CD21E6069904200DC024662619A
:103FE0002069FEF771FE0DE008786368984210D1F1
:103FF000521E6069904200DC02466261491C2069E1
:10400000FEF762FE002000F01BF8FCF777FE0020B0
:10401000FEBD094900204870FCF770FE761E701C3A
:104020008FD1002000F00CF8FCF768FE0020C043A0
:10403000FEBD00007042000870000020F941000839
:1040400001498860704700007000002010B5FEF73D
:104050007FFC10BD00604060704702680A604860E5
:104060000160086841607047086042684A604160CA
:104070004868016070470168814201D101207047A2
:104080000020704700B50B4601681960006800F019
:1040900006F81968002008601968486000BD426889
:1040A0000168116003C84160704700008CB048A4EB
:1040B00049A103C90B910A90FDF782FA0020FCF791
:1040C00099FC00210846FCF7D1FCFEF7ABFFFCF79A
:1040D00073FCFEF7A1FBFCF72DFD06220AA908A838
:1040E000FEF7F2FD08AA06210020FFF775FEFFF794
:1040F000F9FD05AB06AA07A90120FFF700FC204641
:10410000FCF72BF8C3B268460094018B0022808B29
:10411000FFF706FE002800D0FEE700270126304802
:1041200010210091029007233A46019703963946E1
:104130003046FFF721FCFCF767FAFCF7FFFA042191
:104140000120FFF725FEFEF73BFDFFF747FBFEF7DB
:1041500067FDFEF79DFEFEF7CFFEFEF701FFFEF7BF
:1041600075FDFEF741FDFEF715FD19256D011D4C8E
:10417000FFF71CF81420FCF7CBFEFFF729F81420FA
:10418000FCF7C6FEFFF736F81420FCF7C1FE164810
:104190000088A84201D226700EE014480088A84288
:1041A00002D20220207007E011480088A84202D203
:1041B0000320207000E02770FCF7D2F9FCF7BAFD6D
:1041C000FCF732FEFEF7A0FB0A48FFF73FFBCFE704
:1041D000426C75654E524700123400E180020000C7
:1041E00040E20100A8000020A2000020A40000205E
:1041F000A60000206800002010B5FCF75CFD024915
:104200000120487010BD00007000002000B589B08A
:104210000CA003C80891079000210846FFF722FE72
:10422000002007A9082206900590019202910390B0
:1042300004900123009002460146FFF7D6FB09B027
:1042400000BD000009426C75654E524720000020F9
:104250000700000000FA000000F4010000E803007D
:1042600000D0070040420F0080841E0000093D007E
:10427000E80300009442000800000020AC000000A9
:10428000E038000840430008AC000020240B000088
:10429000F03800080000005000080050E80300005B
:1042A0000000000080841E000000000000000000EC
:1042B0000102030406070809030406080C1018206D
:1042C0003000000000000000030406080C10182055
:1042D0003000000000010203040102030406070885
:1042E00009000000010000000000000000000000C4
:1042F00000000000000000000000000000000000BE
:1043000000000000000000000000000000000000AD
:10431000000000000000000000000000000000009D
:10432000000000000000000000000000000000008D
:10433000000000000000000000000000000000007D
:04000005080000C12E
:00000001FF
